{"contracts/StakingRewards.sol":{"StakingRewards":{"abi":[{"inputs":[{"internalType":"address","name":"_rewardToken","type":"address"},{"internalType":"uint256","name":"_initialRewardRate","type":"uint256"}],"stateMutability":"nonpayable","type":"constructor"},{"anonymous":false,"inputs":[{"indexed":false,"internalType":"uint256","name":"newRate","type":"uint256"}],"name":"RewardRateUpdated","type":"event"},{"anonymous":false,"inputs":[{"indexed":true,"internalType":"address","name":"user","type":"address"},{"indexed":false,"internalType":"uint256","name":"amount","type":"uint256"}],"name":"RewardsClaimed","type":"event"},{"anonymous":false,"inputs":[{"indexed":true,"internalType":"address","name":"user","type":"address"},{"indexed":false,"internalType":"uint256","name":"amount","type":"uint256"}],"name":"Staked","type":"event"},{"anonymous":false,"inputs":[{"indexed":true,"internalType":"address","name":"user","type":"address"},{"indexed":false,"internalType":"uint256","name":"amount","type":"uint256"}],"name":"Unstaked","type":"event"},{"inputs":[{"internalType":"address","name":"user","type":"address"}],"name":"calculatePendingRewards","outputs":[{"internalType":"uint256","name":"","type":"uint256"}],"stateMutability":"view","type":"function"},{"inputs":[],"name":"claimRewards","outputs":[],"stateMutability":"nonpayable","type":"function"},{"inputs":[{"internalType":"uint256","name":"amount","type":"uint256"}],"name":"depositRewards","outputs":[],"stateMutability":"nonpayable","type":"function"},{"inputs":[{"internalType":"address","name":"user","type":"address"}],"name":"getStakeInfo","outputs":[{"components":[{"internalType":"uint256","name":"amount","type":"uint256"},{"internalType":"uint64","name":"stakedAt","type":"uint64"},{"internalType":"uint64","name":"lastClaimed","type":"uint64"},{"internalType":"uint256","name":"totalEarned","type":"uint256"}],"internalType":"struct StakingRewards.StakeInfo","name":"","type":"tuple"}],"stateMutability":"view","type":"function"},{"inputs":[],"name":"getTotalStakers","outputs":[{"internalType":"uint256","name":"","type":"uint256"}],"stateMutability":"view","type":"function"},{"inputs":[],"name":"owner","outputs":[{"internalType":"address","name":"","type":"address"}],"stateMutability":"view","type":"function"},{"inputs":[],"name":"rewardRate","outputs":[{"internalType":"uint256","name":"","type":"uint256"}],"stateMutability":"view","type":"function"},{"inputs":[],"name":"rewardToken","outputs":[{"internalType":"address","name":"","type":"address"}],"stateMutability":"view","type":"function"},{"inputs":[{"internalType":"uint256","name":"newRate","type":"uint256"}],"name":"setRewardRate","outputs":[],"stateMutability":"nonpayable","type":"function"},{"inputs":[{"internalType":"uint256","name":"amount","type":"uint256"}],"name":"stake","outputs":[],"stateMutability":"nonpayable","type":"function"},{"inputs":[{"internalType":"uint256","name":"","type":"uint256"}],"name":"stakers","outputs":[{"internalType":"address","name":"","type":"address"}],"stateMutability":"view","type":"function"},{"inputs":[{"internalType":"address","name":"","type":"address"}],"name":"stakes","outputs":[{"internalType":"uint256","name":"amount","type":"uint256"},{"internalType":"uint64","name":"stakedAt","type":"uint64"},{"internalType":"uint64","name":"lastClaimed","type":"uint64"},{"internalType":"uint256","name":"totalEarned","type":"uint256"}],"stateMutability":"view","type":"function"},{"inputs":[],"name":"totalRewardsDistributed","outputs":[{"internalType":"uint256","name":"","type":"uint256"}],"stateMutability":"view","type":"function"},{"inputs":[],"name":"totalStaked","outputs":[{"internalType":"uint256","name":"","type":"uint256"}],"stateMutability":"view","type":"function"},{"inputs":[{"internalType":"uint256","name":"amount","type":"uint256"}],"name":"unstake","outputs":[],"stateMutability":"nonpayable","type":"function"}],"evm":{"bytecode":{"linkReferences":{},"object":"60c0346100a357601f610d1838819003918201601f19168301916001600160401b038311848410176100a85780849260409485528339810103126100a3578051906001600160a01b03821682036100a35760200151903360805260a052600055604051610c5990816100bf8239608051818181610453015261050c015260a0518181816101270152818161030e0152818161057e015281816106ef0152610b430152f35b600080fd5b634e487b7160e01b600052604160045260246000fdfe6040608081526004908136101561001557600080fd5b6000803560e01c8063097aad101461084257806316934fc4146107dd5780632e17de781461065457806331ed0db414610636578063372500ab1461061c5780637b0a47ee146105ff578063817b1cd2146105e05780638bdf67f2146105305780638da5cb5b146104ec5780639e447fc614610432578063a694fc3a1461021e578063c34531531461016e578063ee1725461461014f578063f7c618c1146101075763fd5e6dd1146100c557600080fd5b34610104576020366003190112610104578235925483101561010457506001600160a01b036100f560209361087a565b92905490519260031b1c168152f35b80fd5b50903461014b578160031936011261014b57602090516001600160a01b037f0000000000000000000000000000000000000000000000000000000000000000168152f35b5080fd5b50903461014b578160031936011261014b576020906002549051908152f35b50913461021a57602036600319011261021a57356001600160a01b03811680910361021a57828291608094606084516101a6816108c7565b828152826020820152828682015201528152600360205220908051906101cb826108c7565b825492838352600181015467ffffffffffffffff8092606060026020880192848616845284888a0196891c16865201549601958652845196875251166020860152511690830152516060820152f35b8280fd5b50903461014b5760208060031936011261021a5783359182156103f0573384526003825280842080546103db576001810180546fffffffffffffffffffffffffffffffff19164267ffffffffffffffff81169190911760409190911b6fffffffffffffffff0000000000000000161790558554680100000000000000008110156103c8578461030196976102b8836001889501835561087a565b81549060031b906001600160a01b0333831b921b19161790555b84516323b872dd60e01b8152339181019182523060208301526040820192909252909687918291606090910190565b0381896001600160a01b037f0000000000000000000000000000000000000000000000000000000000000000165af19485156103be577f9e71bc8eea02a63969f509818f2dafb9254532904319f9dbda79b67bd34a5f3d949561036b918891610391575b50610a0a565b610376858254610a55565b905561038484600154610a55565b600155519283523392a280f35b6103b19150853d87116103b7575b6103a981836108f9565b8101906109ed565b38610365565b503d61039f565b82513d88823e3d90fd5b602486604189634e487b7160e01b835252fd5b828461030196976103eb33610a62565b6102d2565b6064918591519162461bcd60e51b8352820152601260248201527f416d6f756e74206d757374206265203e203000000000000000000000000000006044820152fd5b5091903461021a57602036600319011261021a578135916001600160a01b037f00000000000000000000000000000000000000000000000000000000000000001633036104aa5750816020917f41d466ebd06fb97e7786086ac8b69b7eb7da798592036251291d34e9791cde0193855551908152a180f35b6020606492519162461bcd60e51b8352820152600960248201527f4e6f74206f776e657200000000000000000000000000000000000000000000006044820152fd5b50903461014b578160031936011261014b57602090516001600160a01b037f0000000000000000000000000000000000000000000000000000000000000000168152f35b50913461021a57602036600319011261021a5781516323b872dd60e01b8152338183019081523060208281019190915292356040820152909190829081906060010381866001600160a01b037f0000000000000000000000000000000000000000000000000000000000000000165af19081156105d4576105b8925083916105bb5750610a0a565b80f35b6103b1915060203d6020116103b7576103a981836108f9565b505051903d90823e3d90fd5b50903461014b578160031936011261014b576020906001549051908152f35b50903461014b578160031936011261014b57602091549051908152f35b50346101045780600319360112610104576105b833610a62565b50913461021a578260031936011261021a5760209250549051908152f35b50913461021a576020806003193601126107d957813591338552600382528385208381541061079757836106e292849261068d33610a62565b61069883825461091b565b81556106a68360015461091b565b600155805415610777575b508651938492839263a9059cbb60e01b845233908401602090939291936001600160a01b0360408201951681520152565b0381886001600160a01b037f0000000000000000000000000000000000000000000000000000000000000000165af190811561076d577f0f5bb82176feb1b5e747e28471aa92156a04d9f3ab9f45f28e2d704232b93f7593949161074c9187916107565750610a0a565b519283523392a280f35b6103b19150843d86116103b7576103a981836108f9565b84513d87823e3d90fd5b6001016fffffffffffffffffffffffffffffffff198154169055386106b1565b5060649184519162461bcd60e51b8352820152601260248201527f496e73756666696369656e74207374616b6500000000000000000000000000006044820152fd5b8380fd5b50913461021a57602036600319011261021a57356001600160a01b03811680910361021a5782829160809452600360205220805491600182015491600267ffffffffffffffff9101549282519485528181166020860152821c16908301526060820152f35b50913461021a57602036600319011261021a5735916001600160a01b03831683036101045750610873602092610951565b9051908152f35b6004548110156108b15760046000527f8a35acfbc15ff81a39ae7d344fd709f28e8600b4aa8c65c6b64bfe7fe36bd19b0190600090565b634e487b7160e01b600052603260045260246000fd5b6080810190811067ffffffffffffffff8211176108e357604052565b634e487b7160e01b600052604160045260246000fd5b90601f8019910116810190811067ffffffffffffffff8211176108e357604052565b9190820391821161092857565b634e487b7160e01b600052601160045260246000fd5b8181029291811591840414171561092857565b6001600160a01b03166000526003602052604060002060405190610974826108c7565b80548083526002600183015467ffffffffffffffff90818116602087015260401c1692836040860152015460608401521580156109e5575b6109de57670de0b6b3a7640000916109d56109ca6109da934261091b565b91516000549061093e565b61093e565b0490565b5050600090565b5080156109ac565b90816020910312610a0557518015158103610a055790565b600080fd5b15610a1157565b606460405162461bcd60e51b815260206004820152600f60248201527f5472616e73666572206661696c656400000000000000000000000000000000006044820152fd5b9190820180921161092857565b6001600160a01b03808216918260005260209160038352604060002091825415610c1c57610a8f81610951565b9283610a9e575b505050505050565b610b3f928592610afc836002889501610ab8868254610a55565b905560010180547fffffffffffffffffffffffffffffffff0000000000000000ffffffffffffffff164260401b6fffffffffffffffff000000000000000016179055565b610b0883600254610a55565b600255600060405180968195829463a9059cbb60e01b845260048401602090939291936001600160a01b0360408201951681520152565b03927f0000000000000000000000000000000000000000000000000000000000000000165af1908115610c1057600091610bf3575b5015610baf57907ffc30cddea38e2bf4d6ea7d3f9ed3b6ad7f176419f4963bd81318067a4aee73fe91604051908152a2388080808080610a96565b6064826040519062461bcd60e51b82526004820152601660248201527f526577617264207472616e73666572206661696c6564000000000000000000006044820152fd5b610c0a9150833d85116103b7576103a981836108f9565b38610b74565b6040513d6000823e3d90fd5b505050505056fea26469706673582212200bba4f019effdfe469110a6202a93d735522f903914b4a5c13764471e3c7b93364736f6c63430008180033","opcodes":"PUSH1 0xC0 CALLVALUE PUSH2 0xA3 JUMPI PUSH1 0x1F PUSH2 0xD18 CODESIZE DUP2 SWAP1 SUB SWAP2 DUP3 ADD PUSH1 0x1F NOT AND DUP4 ADD SWAP2 PUSH1 0x1 PUSH1 0x1 PUSH1 0x40 SHL SUB DUP4 GT DUP5 DUP5 LT OR PUSH2 0xA8 JUMPI DUP1 DUP5 SWAP3 PUSH1 0x40 SWAP5 DUP6 MSTORE DUP4 CODECOPY DUP2 ADD SUB SLT PUSH2 0xA3 JUMPI DUP1 MLOAD SWAP1 PUSH1 0x1 PUSH1 0x1 PUSH1 0xA0 SHL SUB DUP3 AND DUP3 SUB PUSH2 0xA3 JUMPI PUSH1 0x20 ADD MLOAD SWAP1 CALLER PUSH1 0x80 MSTORE PUSH1 0xA0 MSTORE PUSH1 0x0 SSTORE PUSH1 0x40 MLOAD PUSH2 0xC59 SWAP1 DUP2 PUSH2 0xBF DUP3 CODECOPY PUSH1 0x80 MLOAD DUP2 DUP2 DUP2 PUSH2 0x453 ADD MSTORE PUSH2 0x50C ADD MSTORE PUSH1 0xA0 MLOAD DUP2 DUP2 DUP2 PUSH2 0x127 ADD MSTORE DUP2 DUP2 PUSH2 0x30E ADD MSTORE DUP2 DUP2 PUSH2 0x57E ADD MSTORE DUP2 DUP2 PUSH2 0x6EF ADD MSTORE PUSH2 0xB43 ADD MSTORE RETURN JUMPDEST PUSH1 0x0 DUP1 REVERT JUMPDEST PUSH4 0x4E487B71 PUSH1 0xE0 SHL PUSH1 0x0 MSTORE PUSH1 0x41 PUSH1 0x4 MSTORE PUSH1 0x24 PUSH1 0x0 REVERT INVALID PUSH1 0x40 PUSH1 0x80 DUP2 MSTORE PUSH1 0x4 SWAP1 DUP2 CALLDATASIZE LT ISZERO PUSH2 0x15 JUMPI PUSH1 0x0 DUP1 REVERT JUMPDEST PUSH1 0x0 DUP1 CALLDATALOAD PUSH1 0xE0 SHR DUP1 PUSH4 0x97AAD10 EQ PUSH2 0x842 JUMPI DUP1 PUSH4 0x16934FC4 EQ PUSH2 0x7DD JUMPI DUP1 PUSH4 0x2E17DE78 EQ PUSH2 0x654 JUMPI DUP1 PUSH4 0x31ED0DB4 EQ PUSH2 0x636 JUMPI DUP1 PUSH4 0x372500AB EQ PUSH2 0x61C JUMPI DUP1 PUSH4 0x7B0A47EE EQ PUSH2 0x5FF JUMPI DUP1 PUSH4 0x817B1CD2 EQ PUSH2 0x5E0 JUMPI DUP1 PUSH4 0x8BDF67F2 EQ PUSH2 0x530 JUMPI DUP1 PUSH4 0x8DA5CB5B EQ PUSH2 0x4EC JUMPI DUP1 PUSH4 0x9E447FC6 EQ PUSH2 0x432 JUMPI DUP1 PUSH4 0xA694FC3A EQ PUSH2 0x21E JUMPI DUP1 PUSH4 0xC3453153 EQ PUSH2 0x16E JUMPI DUP1 PUSH4 0xEE172546 EQ PUSH2 0x14F JUMPI DUP1 PUSH4 0xF7C618C1 EQ PUSH2 0x107 JUMPI PUSH4 0xFD5E6DD1 EQ PUSH2 0xC5 JUMPI PUSH1 0x0 DUP1 REVERT JUMPDEST CALLVALUE PUSH2 0x104 JUMPI PUSH1 0x20 CALLDATASIZE PUSH1 0x3 NOT ADD SLT PUSH2 0x104 JUMPI DUP3 CALLDATALOAD SWAP3 SLOAD DUP4 LT ISZERO PUSH2 0x104 JUMPI POP PUSH1 0x1 PUSH1 0x1 PUSH1 0xA0 SHL SUB PUSH2 0xF5 PUSH1 0x20 SWAP4 PUSH2 0x87A JUMP JUMPDEST SWAP3 SWAP1 SLOAD SWAP1 MLOAD SWAP3 PUSH1 0x3 SHL SHR AND DUP2 MSTORE RETURN JUMPDEST DUP1 REVERT JUMPDEST POP SWAP1 CALLVALUE PUSH2 0x14B JUMPI DUP2 PUSH1 0x3 NOT CALLDATASIZE ADD SLT PUSH2 0x14B JUMPI PUSH1 0x20 SWAP1 MLOAD PUSH1 0x1 PUSH1 0x1 PUSH1 0xA0 SHL SUB PUSH32 0x0 AND DUP2 MSTORE RETURN JUMPDEST POP DUP1 REVERT JUMPDEST POP SWAP1 CALLVALUE PUSH2 0x14B JUMPI DUP2 PUSH1 0x3 NOT CALLDATASIZE ADD SLT PUSH2 0x14B JUMPI PUSH1 0x20 SWAP1 PUSH1 0x2 SLOAD SWAP1 MLOAD SWAP1 DUP2 MSTORE RETURN JUMPDEST POP SWAP2 CALLVALUE PUSH2 0x21A JUMPI PUSH1 0x20 CALLDATASIZE PUSH1 0x3 NOT ADD SLT PUSH2 0x21A JUMPI CALLDATALOAD PUSH1 0x1 PUSH1 0x1 PUSH1 0xA0 SHL SUB DUP2 AND DUP1 SWAP2 SUB PUSH2 0x21A JUMPI DUP3 DUP3 SWAP2 PUSH1 0x80 SWAP5 PUSH1 0x60 DUP5 MLOAD PUSH2 0x1A6 DUP2 PUSH2 0x8C7 JUMP JUMPDEST DUP3 DUP2 MSTORE DUP3 PUSH1 0x20 DUP3 ADD MSTORE DUP3 DUP7 DUP3 ADD MSTORE ADD MSTORE DUP2 MSTORE PUSH1 0x3 PUSH1 0x20 MSTORE KECCAK256 SWAP1 DUP1 MLOAD SWAP1 PUSH2 0x1CB DUP3 PUSH2 0x8C7 JUMP JUMPDEST DUP3 SLOAD SWAP3 DUP4 DUP4 MSTORE PUSH1 0x1 DUP2 ADD SLOAD PUSH8 0xFFFFFFFFFFFFFFFF DUP1 SWAP3 PUSH1 0x60 PUSH1 0x2 PUSH1 0x20 DUP9 ADD SWAP3 DUP5 DUP7 AND DUP5 MSTORE DUP5 DUP9 DUP11 ADD SWAP7 DUP10 SHR AND DUP7 MSTORE ADD SLOAD SWAP7 ADD SWAP6 DUP7 MSTORE DUP5 MLOAD SWAP7 DUP8 MSTORE MLOAD AND PUSH1 0x20 DUP7 ADD MSTORE MLOAD AND SWAP1 DUP4 ADD MSTORE MLOAD PUSH1 0x60 DUP3 ADD MSTORE RETURN JUMPDEST DUP3 DUP1 REVERT JUMPDEST POP SWAP1 CALLVALUE PUSH2 0x14B JUMPI PUSH1 0x20 DUP1 PUSH1 0x3 NOT CALLDATASIZE ADD SLT PUSH2 0x21A JUMPI DUP4 CALLDATALOAD SWAP2 DUP3 ISZERO PUSH2 0x3F0 JUMPI CALLER DUP5 MSTORE PUSH1 0x3 DUP3 MSTORE DUP1 DUP5 KECCAK256 DUP1 SLOAD PUSH2 0x3DB JUMPI PUSH1 0x1 DUP2 ADD DUP1 SLOAD PUSH16 0xFFFFFFFFFFFFFFFFFFFFFFFFFFFFFFFF NOT AND TIMESTAMP PUSH8 0xFFFFFFFFFFFFFFFF DUP2 AND SWAP2 SWAP1 SWAP2 OR PUSH1 0x40 SWAP2 SWAP1 SWAP2 SHL PUSH16 0xFFFFFFFFFFFFFFFF0000000000000000 AND OR SWAP1 SSTORE DUP6 SLOAD PUSH9 0x10000000000000000 DUP2 LT ISZERO PUSH2 0x3C8 JUMPI DUP5 PUSH2 0x301 SWAP7 SWAP8 PUSH2 0x2B8 DUP4 PUSH1 0x1 DUP9 SWAP6 ADD DUP4 SSTORE PUSH2 0x87A JUMP JUMPDEST DUP2 SLOAD SWAP1 PUSH1 0x3 SHL SWAP1 PUSH1 0x1 PUSH1 0x1 PUSH1 0xA0 SHL SUB CALLER DUP4 SHL SWAP3 SHL NOT AND OR SWAP1 SSTORE JUMPDEST DUP5 MLOAD PUSH4 0x23B872DD PUSH1 0xE0 SHL DUP2 MSTORE CALLER SWAP2 DUP2 ADD SWAP2 DUP3 MSTORE ADDRESS PUSH1 0x20 DUP4 ADD MSTORE PUSH1 0x40 DUP3 ADD SWAP3 SWAP1 SWAP3 MSTORE SWAP1 SWAP7 DUP8 SWAP2 DUP3 SWAP2 PUSH1 0x60 SWAP1 SWAP2 ADD SWAP1 JUMP JUMPDEST SUB DUP2 DUP10 PUSH1 0x1 PUSH1 0x1 PUSH1 0xA0 SHL SUB PUSH32 0x0 AND GAS CALL SWAP5 DUP6 ISZERO PUSH2 0x3BE JUMPI PUSH32 0x9E71BC8EEA02A63969F509818F2DAFB9254532904319F9DBDA79B67BD34A5F3D SWAP5 SWAP6 PUSH2 0x36B SWAP2 DUP9 SWAP2 PUSH2 0x391 JUMPI JUMPDEST POP PUSH2 0xA0A JUMP JUMPDEST PUSH2 0x376 DUP6 DUP3 SLOAD PUSH2 0xA55 JUMP JUMPDEST SWAP1 SSTORE PUSH2 0x384 DUP5 PUSH1 0x1 SLOAD PUSH2 0xA55 JUMP JUMPDEST PUSH1 0x1 SSTORE MLOAD SWAP3 DUP4 MSTORE CALLER SWAP3 LOG2 DUP1 RETURN JUMPDEST PUSH2 0x3B1 SWAP2 POP DUP6 RETURNDATASIZE DUP8 GT PUSH2 0x3B7 JUMPI JUMPDEST PUSH2 0x3A9 DUP2 DUP4 PUSH2 0x8F9 JUMP JUMPDEST DUP2 ADD SWAP1 PUSH2 0x9ED JUMP JUMPDEST CODESIZE PUSH2 0x365 JUMP JUMPDEST POP RETURNDATASIZE PUSH2 0x39F JUMP JUMPDEST DUP3 MLOAD RETURNDATASIZE DUP9 DUP3 RETURNDATACOPY RETURNDATASIZE SWAP1 REVERT JUMPDEST PUSH1 0x24 DUP7 PUSH1 0x41 DUP10 PUSH4 0x4E487B71 PUSH1 0xE0 SHL DUP4 MSTORE MSTORE REVERT JUMPDEST DUP3 DUP5 PUSH2 0x301 SWAP7 SWAP8 PUSH2 0x3EB CALLER PUSH2 0xA62 JUMP JUMPDEST PUSH2 0x2D2 JUMP JUMPDEST PUSH1 0x64 SWAP2 DUP6 SWAP2 MLOAD SWAP2 PUSH3 0x461BCD PUSH1 0xE5 SHL DUP4 MSTORE DUP3 ADD MSTORE PUSH1 0x12 PUSH1 0x24 DUP3 ADD MSTORE PUSH32 0x416D6F756E74206D757374206265203E20300000000000000000000000000000 PUSH1 0x44 DUP3 ADD MSTORE REVERT JUMPDEST POP SWAP2 SWAP1 CALLVALUE PUSH2 0x21A JUMPI PUSH1 0x20 CALLDATASIZE PUSH1 0x3 NOT ADD SLT PUSH2 0x21A JUMPI DUP2 CALLDATALOAD SWAP2 PUSH1 0x1 PUSH1 0x1 PUSH1 0xA0 SHL SUB PUSH32 0x0 AND CALLER SUB PUSH2 0x4AA JUMPI POP DUP2 PUSH1 0x20 SWAP2 PUSH32 0x41D466EBD06FB97E7786086AC8B69B7EB7DA798592036251291D34E9791CDE01 SWAP4 DUP6 SSTORE MLOAD SWAP1 DUP2 MSTORE LOG1 DUP1 RETURN JUMPDEST PUSH1 0x20 PUSH1 0x64 SWAP3 MLOAD SWAP2 PUSH3 0x461BCD PUSH1 0xE5 SHL DUP4 MSTORE DUP3 ADD MSTORE PUSH1 0x9 PUSH1 0x24 DUP3 ADD MSTORE PUSH32 0x4E6F74206F776E65720000000000000000000000000000000000000000000000 PUSH1 0x44 DUP3 ADD MSTORE REVERT JUMPDEST POP SWAP1 CALLVALUE PUSH2 0x14B JUMPI DUP2 PUSH1 0x3 NOT CALLDATASIZE ADD SLT PUSH2 0x14B JUMPI PUSH1 0x20 SWAP1 MLOAD PUSH1 0x1 PUSH1 0x1 PUSH1 0xA0 SHL SUB PUSH32 0x0 AND DUP2 MSTORE RETURN JUMPDEST POP SWAP2 CALLVALUE PUSH2 0x21A JUMPI PUSH1 0x20 CALLDATASIZE PUSH1 0x3 NOT ADD SLT PUSH2 0x21A JUMPI DUP2 MLOAD PUSH4 0x23B872DD PUSH1 0xE0 SHL DUP2 MSTORE CALLER DUP2 DUP4 ADD SWAP1 DUP2 MSTORE ADDRESS PUSH1 0x20 DUP3 DUP2 ADD SWAP2 SWAP1 SWAP2 MSTORE SWAP3 CALLDATALOAD PUSH1 0x40 DUP3 ADD MSTORE SWAP1 SWAP2 SWAP1 DUP3 SWAP1 DUP2 SWAP1 PUSH1 0x60 ADD SUB DUP2 DUP7 PUSH1 0x1 PUSH1 0x1 PUSH1 0xA0 SHL SUB PUSH32 0x0 AND GAS CALL SWAP1 DUP2 ISZERO PUSH2 0x5D4 JUMPI PUSH2 0x5B8 SWAP3 POP DUP4 SWAP2 PUSH2 0x5BB JUMPI POP PUSH2 0xA0A JUMP JUMPDEST DUP1 RETURN JUMPDEST PUSH2 0x3B1 SWAP2 POP PUSH1 0x20 RETURNDATASIZE PUSH1 0x20 GT PUSH2 0x3B7 JUMPI PUSH2 0x3A9 DUP2 DUP4 PUSH2 0x8F9 JUMP JUMPDEST POP POP MLOAD SWAP1 RETURNDATASIZE SWAP1 DUP3 RETURNDATACOPY RETURNDATASIZE SWAP1 REVERT JUMPDEST POP SWAP1 CALLVALUE PUSH2 0x14B JUMPI DUP2 PUSH1 0x3 NOT CALLDATASIZE ADD SLT PUSH2 0x14B JUMPI PUSH1 0x20 SWAP1 PUSH1 0x1 SLOAD SWAP1 MLOAD SWAP1 DUP2 MSTORE RETURN JUMPDEST POP SWAP1 CALLVALUE PUSH2 0x14B JUMPI DUP2 PUSH1 0x3 NOT CALLDATASIZE ADD SLT PUSH2 0x14B JUMPI PUSH1 0x20 SWAP2 SLOAD SWAP1 MLOAD SWAP1 DUP2 MSTORE RETURN JUMPDEST POP CALLVALUE PUSH2 0x104 JUMPI DUP1 PUSH1 0x3 NOT CALLDATASIZE ADD SLT PUSH2 0x104 JUMPI PUSH2 0x5B8 CALLER PUSH2 0xA62 JUMP JUMPDEST POP SWAP2 CALLVALUE PUSH2 0x21A JUMPI DUP3 PUSH1 0x3 NOT CALLDATASIZE ADD SLT PUSH2 0x21A JUMPI PUSH1 0x20 SWAP3 POP SLOAD SWAP1 MLOAD SWAP1 DUP2 MSTORE RETURN JUMPDEST POP SWAP2 CALLVALUE PUSH2 0x21A JUMPI PUSH1 0x20 DUP1 PUSH1 0x3 NOT CALLDATASIZE ADD SLT PUSH2 0x7D9 JUMPI DUP2 CALLDATALOAD SWAP2 CALLER DUP6 MSTORE PUSH1 0x3 DUP3 MSTORE DUP4 DUP6 KECCAK256 DUP4 DUP2 SLOAD LT PUSH2 0x797 JUMPI DUP4 PUSH2 0x6E2 SWAP3 DUP5 SWAP3 PUSH2 0x68D CALLER PUSH2 0xA62 JUMP JUMPDEST PUSH2 0x698 DUP4 DUP3 SLOAD PUSH2 0x91B JUMP JUMPDEST DUP2 SSTORE PUSH2 0x6A6 DUP4 PUSH1 0x1 SLOAD PUSH2 0x91B JUMP JUMPDEST PUSH1 0x1 SSTORE DUP1 SLOAD ISZERO PUSH2 0x777 JUMPI JUMPDEST POP DUP7 MLOAD SWAP4 DUP5 SWAP3 DUP4 SWAP3 PUSH4 0xA9059CBB PUSH1 0xE0 SHL DUP5 MSTORE CALLER SWAP1 DUP5 ADD PUSH1 0x20 SWAP1 SWAP4 SWAP3 SWAP2 SWAP4 PUSH1 0x1 PUSH1 0x1 PUSH1 0xA0 SHL SUB PUSH1 0x40 DUP3 ADD SWAP6 AND DUP2 MSTORE ADD MSTORE JUMP JUMPDEST SUB DUP2 DUP9 PUSH1 0x1 PUSH1 0x1 PUSH1 0xA0 SHL SUB PUSH32 0x0 AND GAS CALL SWAP1 DUP2 ISZERO PUSH2 0x76D JUMPI PUSH32 0xF5BB82176FEB1B5E747E28471AA92156A04D9F3AB9F45F28E2D704232B93F75 SWAP4 SWAP5 SWAP2 PUSH2 0x74C SWAP2 DUP8 SWAP2 PUSH2 0x756 JUMPI POP PUSH2 0xA0A JUMP JUMPDEST MLOAD SWAP3 DUP4 MSTORE CALLER SWAP3 LOG2 DUP1 RETURN JUMPDEST PUSH2 0x3B1 SWAP2 POP DUP5 RETURNDATASIZE DUP7 GT PUSH2 0x3B7 JUMPI PUSH2 0x3A9 DUP2 DUP4 PUSH2 0x8F9 JUMP JUMPDEST DUP5 MLOAD RETURNDATASIZE DUP8 DUP3 RETURNDATACOPY RETURNDATASIZE SWAP1 REVERT JUMPDEST PUSH1 0x1 ADD PUSH16 0xFFFFFFFFFFFFFFFFFFFFFFFFFFFFFFFF NOT DUP2 SLOAD AND SWAP1 SSTORE CODESIZE PUSH2 0x6B1 JUMP JUMPDEST POP PUSH1 0x64 SWAP2 DUP5 MLOAD SWAP2 PUSH3 0x461BCD PUSH1 0xE5 SHL DUP4 MSTORE DUP3 ADD MSTORE PUSH1 0x12 PUSH1 0x24 DUP3 ADD MSTORE PUSH32 0x496E73756666696369656E74207374616B650000000000000000000000000000 PUSH1 0x44 DUP3 ADD MSTORE REVERT JUMPDEST DUP4 DUP1 REVERT JUMPDEST POP SWAP2 CALLVALUE PUSH2 0x21A JUMPI PUSH1 0x20 CALLDATASIZE PUSH1 0x3 NOT ADD SLT PUSH2 0x21A JUMPI CALLDATALOAD PUSH1 0x1 PUSH1 0x1 PUSH1 0xA0 SHL SUB DUP2 AND DUP1 SWAP2 SUB PUSH2 0x21A JUMPI DUP3 DUP3 SWAP2 PUSH1 0x80 SWAP5 MSTORE PUSH1 0x3 PUSH1 0x20 MSTORE KECCAK256 DUP1 SLOAD SWAP2 PUSH1 0x1 DUP3 ADD SLOAD SWAP2 PUSH1 0x2 PUSH8 0xFFFFFFFFFFFFFFFF SWAP2 ADD SLOAD SWAP3 DUP3 MLOAD SWAP5 DUP6 MSTORE DUP2 DUP2 AND PUSH1 0x20 DUP7 ADD MSTORE DUP3 SHR AND SWAP1 DUP4 ADD MSTORE PUSH1 0x60 DUP3 ADD MSTORE RETURN JUMPDEST POP SWAP2 CALLVALUE PUSH2 0x21A JUMPI PUSH1 0x20 CALLDATASIZE PUSH1 0x3 NOT ADD SLT PUSH2 0x21A JUMPI CALLDATALOAD SWAP2 PUSH1 0x1 PUSH1 0x1 PUSH1 0xA0 SHL SUB DUP4 AND DUP4 SUB PUSH2 0x104 JUMPI POP PUSH2 0x873 PUSH1 0x20 SWAP3 PUSH2 0x951 JUMP JUMPDEST SWAP1 MLOAD SWAP1 DUP2 MSTORE RETURN JUMPDEST PUSH1 0x4 SLOAD DUP2 LT ISZERO PUSH2 0x8B1 JUMPI PUSH1 0x4 PUSH1 0x0 MSTORE PUSH32 0x8A35ACFBC15FF81A39AE7D344FD709F28E8600B4AA8C65C6B64BFE7FE36BD19B ADD SWAP1 PUSH1 0x0 SWAP1 JUMP JUMPDEST PUSH4 0x4E487B71 PUSH1 0xE0 SHL PUSH1 0x0 MSTORE PUSH1 0x32 PUSH1 0x4 MSTORE PUSH1 0x24 PUSH1 0x0 REVERT JUMPDEST PUSH1 0x80 DUP2 ADD SWAP1 DUP2 LT PUSH8 0xFFFFFFFFFFFFFFFF DUP3 GT OR PUSH2 0x8E3 JUMPI PUSH1 0x40 MSTORE JUMP JUMPDEST PUSH4 0x4E487B71 PUSH1 0xE0 SHL PUSH1 0x0 MSTORE PUSH1 0x41 PUSH1 0x4 MSTORE PUSH1 0x24 PUSH1 0x0 REVERT JUMPDEST SWAP1 PUSH1 0x1F DUP1 NOT SWAP2 ADD AND DUP2 ADD SWAP1 DUP2 LT PUSH8 0xFFFFFFFFFFFFFFFF DUP3 GT OR PUSH2 0x8E3 JUMPI PUSH1 0x40 MSTORE JUMP JUMPDEST SWAP2 SWAP1 DUP3 SUB SWAP2 DUP3 GT PUSH2 0x928 JUMPI JUMP JUMPDEST PUSH4 0x4E487B71 PUSH1 0xE0 SHL PUSH1 0x0 MSTORE PUSH1 0x11 PUSH1 0x4 MSTORE PUSH1 0x24 PUSH1 0x0 REVERT JUMPDEST DUP2 DUP2 MUL SWAP3 SWAP2 DUP2 ISZERO SWAP2 DUP5 DIV EQ OR ISZERO PUSH2 0x928 JUMPI JUMP JUMPDEST PUSH1 0x1 PUSH1 0x1 PUSH1 0xA0 SHL SUB AND PUSH1 0x0 MSTORE PUSH1 0x3 PUSH1 0x20 MSTORE PUSH1 0x40 PUSH1 0x0 KECCAK256 PUSH1 0x40 MLOAD SWAP1 PUSH2 0x974 DUP3 PUSH2 0x8C7 JUMP JUMPDEST DUP1 SLOAD DUP1 DUP4 MSTORE PUSH1 0x2 PUSH1 0x1 DUP4 ADD SLOAD PUSH8 0xFFFFFFFFFFFFFFFF SWAP1 DUP2 DUP2 AND PUSH1 0x20 DUP8 ADD MSTORE PUSH1 0x40 SHR AND SWAP3 DUP4 PUSH1 0x40 DUP7 ADD MSTORE ADD SLOAD PUSH1 0x60 DUP5 ADD MSTORE ISZERO DUP1 ISZERO PUSH2 0x9E5 JUMPI JUMPDEST PUSH2 0x9DE JUMPI PUSH8 0xDE0B6B3A7640000 SWAP2 PUSH2 0x9D5 PUSH2 0x9CA PUSH2 0x9DA SWAP4 TIMESTAMP PUSH2 0x91B JUMP JUMPDEST SWAP2 MLOAD PUSH1 0x0 SLOAD SWAP1 PUSH2 0x93E JUMP JUMPDEST PUSH2 0x93E JUMP JUMPDEST DIV SWAP1 JUMP JUMPDEST POP POP PUSH1 0x0 SWAP1 JUMP JUMPDEST POP DUP1 ISZERO PUSH2 0x9AC JUMP JUMPDEST SWAP1 DUP2 PUSH1 0x20 SWAP2 SUB SLT PUSH2 0xA05 JUMPI MLOAD DUP1 ISZERO ISZERO DUP2 SUB PUSH2 0xA05 JUMPI SWAP1 JUMP JUMPDEST PUSH1 0x0 DUP1 REVERT JUMPDEST ISZERO PUSH2 0xA11 JUMPI JUMP JUMPDEST PUSH1 0x64 PUSH1 0x40 MLOAD PUSH3 0x461BCD PUSH1 0xE5 SHL DUP2 MSTORE PUSH1 0x20 PUSH1 0x4 DUP3 ADD MSTORE PUSH1 0xF PUSH1 0x24 DUP3 ADD MSTORE PUSH32 0x5472616E73666572206661696C65640000000000000000000000000000000000 PUSH1 0x44 DUP3 ADD MSTORE REVERT JUMPDEST SWAP2 SWAP1 DUP3 ADD DUP1 SWAP3 GT PUSH2 0x928 JUMPI JUMP JUMPDEST PUSH1 0x1 PUSH1 0x1 PUSH1 0xA0 SHL SUB DUP1 DUP3 AND SWAP2 DUP3 PUSH1 0x0 MSTORE PUSH1 0x20 SWAP2 PUSH1 0x3 DUP4 MSTORE PUSH1 0x40 PUSH1 0x0 KECCAK256 SWAP2 DUP3 SLOAD ISZERO PUSH2 0xC1C JUMPI PUSH2 0xA8F DUP2 PUSH2 0x951 JUMP JUMPDEST SWAP3 DUP4 PUSH2 0xA9E JUMPI JUMPDEST POP POP POP POP POP POP JUMP JUMPDEST PUSH2 0xB3F SWAP3 DUP6 SWAP3 PUSH2 0xAFC DUP4 PUSH1 0x2 DUP9 SWAP6 ADD PUSH2 0xAB8 DUP7 DUP3 SLOAD PUSH2 0xA55 JUMP JUMPDEST SWAP1 SSTORE PUSH1 0x1 ADD DUP1 SLOAD PUSH32 0xFFFFFFFFFFFFFFFFFFFFFFFFFFFFFFFF0000000000000000FFFFFFFFFFFFFFFF AND TIMESTAMP PUSH1 0x40 SHL PUSH16 0xFFFFFFFFFFFFFFFF0000000000000000 AND OR SWAP1 SSTORE JUMP JUMPDEST PUSH2 0xB08 DUP4 PUSH1 0x2 SLOAD PUSH2 0xA55 JUMP JUMPDEST PUSH1 0x2 SSTORE PUSH1 0x0 PUSH1 0x40 MLOAD DUP1 SWAP7 DUP2 SWAP6 DUP3 SWAP5 PUSH4 0xA9059CBB PUSH1 0xE0 SHL DUP5 MSTORE PUSH1 0x4 DUP5 ADD PUSH1 0x20 SWAP1 SWAP4 SWAP3 SWAP2 SWAP4 PUSH1 0x1 PUSH1 0x1 PUSH1 0xA0 SHL SUB PUSH1 0x40 DUP3 ADD SWAP6 AND DUP2 MSTORE ADD MSTORE JUMP JUMPDEST SUB SWAP3 PUSH32 0x0 AND GAS CALL SWAP1 DUP2 ISZERO PUSH2 0xC10 JUMPI PUSH1 0x0 SWAP2 PUSH2 0xBF3 JUMPI JUMPDEST POP ISZERO PUSH2 0xBAF JUMPI SWAP1 PUSH32 0xFC30CDDEA38E2BF4D6EA7D3F9ED3B6AD7F176419F4963BD81318067A4AEE73FE SWAP2 PUSH1 0x40 MLOAD SWAP1 DUP2 MSTORE LOG2 CODESIZE DUP1 DUP1 DUP1 DUP1 DUP1 PUSH2 0xA96 JUMP JUMPDEST PUSH1 0x64 DUP3 PUSH1 0x40 MLOAD SWAP1 PUSH3 0x461BCD PUSH1 0xE5 SHL DUP3 MSTORE PUSH1 0x4 DUP3 ADD MSTORE PUSH1 0x16 PUSH1 0x24 DUP3 ADD MSTORE PUSH32 0x526577617264207472616E73666572206661696C656400000000000000000000 PUSH1 0x44 DUP3 ADD MSTORE REVERT JUMPDEST PUSH2 0xC0A SWAP2 POP DUP4 RETURNDATASIZE DUP6 GT PUSH2 0x3B7 JUMPI PUSH2 0x3A9 DUP2 DUP4 PUSH2 0x8F9 JUMP JUMPDEST CODESIZE PUSH2 0xB74 JUMP JUMPDEST PUSH1 0x40 MLOAD RETURNDATASIZE PUSH1 0x0 DUP3 RETURNDATACOPY RETURNDATASIZE SWAP1 REVERT JUMPDEST POP POP POP POP POP JUMP INVALID LOG2 PUSH5 0x6970667358 0x22 SLT KECCAK256 SIGNEXTEND 0xBA 0x4F ADD SWAP15 SELFDESTRUCT 0xDF 0xE4 PUSH10 0x110A6202A93D735522F9 SUB SWAP2 0x4B BLOBBASEFEE TLOAD SGT PUSH23 0x4471E3C7B93364736F6C63430008180033000000000000 "},"methodIdentifiers":{"calculatePendingRewards(address)":"097aad10","claimRewards()":"372500ab","depositRewards(uint256)":"8bdf67f2","getStakeInfo(address)":"c3453153","getTotalStakers()":"31ed0db4","owner()":"8da5cb5b","rewardRate()":"7b0a47ee","rewardToken()":"f7c618c1","setRewardRate(uint256)":"9e447fc6","stake(uint256)":"a694fc3a","stakers(uint256)":"fd5e6dd1","stakes(address)":"16934fc4","totalRewardsDistributed()":"ee172546","totalStaked()":"817b1cd2","unstake(uint256)":"2e17de78"}}}}}