{"contracts/ReferralSystem.sol":{"ReferralSystem":{"abi":[{"inputs":[{"internalType":"uint256","name":"_referralRewardBps","type":"uint256"}],"stateMutability":"nonpayable","type":"constructor"},{"anonymous":false,"inputs":[{"indexed":true,"internalType":"address","name":"user","type":"address"},{"indexed":true,"internalType":"address","name":"referrer","type":"address"}],"name":"ReferralRegistered","type":"event"},{"anonymous":false,"inputs":[{"indexed":true,"internalType":"address","name":"referrer","type":"address"},{"indexed":true,"internalType":"address","name":"referee","type":"address"},{"indexed":false,"internalType":"uint256","name":"amount","type":"uint256"}],"name":"ReferralRewardEarned","type":"event"},{"anonymous":false,"inputs":[{"indexed":true,"internalType":"address","name":"referrer","type":"address"},{"indexed":false,"internalType":"uint256","name":"amount","type":"uint256"}],"name":"RewardsClaimed","type":"event"},{"inputs":[],"name":"claimRewards","outputs":[],"stateMutability":"nonpayable","type":"function"},{"inputs":[{"internalType":"address","name":"user","type":"address"}],"name":"getReferralData","outputs":[{"components":[{"internalType":"address","name":"referrer","type":"address"},{"internalType":"uint256","name":"referrals","type":"uint256"},{"internalType":"uint256","name":"totalEarnings","type":"uint256"},{"internalType":"uint256","name":"claimedEarnings","type":"uint256"}],"internalType":"struct ReferralSystem.ReferralData","name":"","type":"tuple"}],"stateMutability":"view","type":"function"},{"inputs":[{"internalType":"address","name":"user","type":"address"}],"name":"getReferrer","outputs":[{"internalType":"address","name":"","type":"address"}],"stateMutability":"view","type":"function"},{"inputs":[],"name":"owner","outputs":[{"internalType":"address","name":"","type":"address"}],"stateMutability":"view","type":"function"},{"inputs":[{"internalType":"address","name":"referee","type":"address"},{"internalType":"uint256","name":"transactionAmount","type":"uint256"}],"name":"recordReferralReward","outputs":[],"stateMutability":"nonpayable","type":"function"},{"inputs":[],"name":"referralRewardBps","outputs":[{"internalType":"uint256","name":"","type":"uint256"}],"stateMutability":"view","type":"function"},{"inputs":[{"internalType":"address","name":"","type":"address"}],"name":"referrals","outputs":[{"internalType":"address","name":"referrer","type":"address"},{"internalType":"uint256","name":"referrals","type":"uint256"},{"internalType":"uint256","name":"totalEarnings","type":"uint256"},{"internalType":"uint256","name":"claimedEarnings","type":"uint256"}],"stateMutability":"view","type":"function"},{"inputs":[{"internalType":"address","name":"","type":"address"}],"name":"referrerOf","outputs":[{"internalType":"address","name":"","type":"address"}],"stateMutability":"view","type":"function"},{"inputs":[{"internalType":"address","name":"referrer","type":"address"}],"name":"registerReferral","outputs":[],"stateMutability":"nonpayable","type":"function"},{"inputs":[{"internalType":"address","name":"","type":"address"}],"name":"registered","outputs":[{"internalType":"bool","name":"","type":"bool"}],"stateMutability":"view","type":"function"},{"inputs":[{"internalType":"uint256","name":"newBps","type":"uint256"}],"name":"setReferralRewardBps","outputs":[],"stateMutability":"nonpayable","type":"function"}],"evm":{"bytecode":{"linkReferences":{},"object":"60a03461006557601f6107e838819003918201601f19168301916001600160401b0383118484101761006a5780849260209460405283398101031261006557513360805260005560405161076790816100818239608051818181610135015261030c0152f35b600080fd5b634e487b7160e01b600052604160045260246000fdfe608060408181526004918236101561001657600080fd5b600092833560e01c918263209ab7111461046e575081632bd15fa514610443578163372500ab146103765781634a9fefc71461034d57816375f4c059146103305781638da5cb5b146102ec5781639ca423b31461028f578163a3674633146101f5578163b09e603f1461011557508063b2dd5c07146100da5763d21cacdf1461009e57600080fd5b346100d65760203660031901126100d657602091816001600160a01b0391826100c561061e565b168152600285522054169051908152f35b5080fd5b50346100d65760203660031901126100d65760ff816020936001600160a01b0361010261061e565b1681526003855220541690519015158152f35b9050346101f15760203660031901126101f1578035916001600160a01b037f00000000000000000000000000000000000000000000000000000000000000001633036101ae576103e8831161016b575050815580f35b906020606492519162461bcd60e51b8352820152600760248201527f4d617820313025000000000000000000000000000000000000000000000000006044820152fd5b906020606492519162461bcd60e51b8352820152600960248201527f4e6f74206f776e657200000000000000000000000000000000000000000000006044820152fd5b8280fd5b5050346100d65760203660031901126100d6576080918161021461061e565b918060606102206106fb565b828152826020820152828582015201526001600160a01b0380931681526001602052209161024c6106fb565b9183541692838352600181015460208401908152606060036002840154938587019485520154940193845282519485525160208501525190830152516060820152f35b5050346100d65760203660031901126100d65790816080926001600160a01b0392836102b961061e565b16815260016020522091825416916001810154916003600283015492015492815194855260208501528301526060820152f35b5050346100d657816003193601126100d657602090516001600160a01b037f0000000000000000000000000000000000000000000000000000000000000000168152f35b5050346100d657816003193601126100d657602091549051908152f35b5050346100d65760203660031901126100d657602091816001600160a01b0391826100c561061e565b919050346101f157826003193601126101f15733835260016020528083209160036002840154930190815490818503948086116104305782146103ed5750836103be91610639565b9055519081527ffc30cddea38e2bf4d6ea7d3f9ed3b6ad7f176419f4963bd81318067a4aee73fe60203392a280f35b606490602085519162461bcd60e51b8352820152600a60248201527f4e6f2072657761726473000000000000000000000000000000000000000000006044820152fd5b602487601184634e487b7160e01b835252fd5b5050346100d65736600319011261046b5761046861045f61061e565b6024359061065c565b80f35b80fd5b8491843461061a57602092836003193601126106165761048c61061e565b903386526003855260ff83872054166105d657506001600160a01b03169233841461059557831561055457906001809233875260028152828720867fffffffffffffffffffffffff0000000000000000000000000000000000000000825416179055600381528287208260ff198254161790558587525284200190815490600019821461054157506001019055337f5f1ca2fcc108b751843a763e60d2201f593516109d7dbb1b700468f2d4190bb78380a380f35b846011602492634e487b7160e01b835252fd5b60649291519162461bcd60e51b8352820152601060248201527f496e76616c6964207265666572726572000000000000000000000000000000006044820152fd5b60649291519162461bcd60e51b8352820152601160248201527f43616e6e6f742072656665722073656c660000000000000000000000000000006044820152fd5b80858562461bcd60e51b60649452820152601260248201527f416c7265616479207265676973746572656400000000000000000000000000006044820152fd5b8480fd5b8380fd5b600435906001600160a01b038216820361063457565b600080fd5b9190820180921161064657565b634e487b7160e01b600052601160045260246000fd5b906001600160a01b038092169160009083825260026020526040822054169182156106f5578154908181029181830414901517156106e1577fe05841e5a327956f4a370d19d6e54c700a6b2638644182706f8ac8738c35fb8a916002604061271060209404928681526001855220016106d6828254610639565b9055604051908152a3565b602482634e487b7160e01b81526011600452fd5b50505050565b604051906080820182811067ffffffffffffffff82111761071b57604052565b634e487b7160e01b600052604160045260246000fdfea264697066735822122072152115778a41a68af004c2822eda1ca0bb9d4a58dc9c589569d5424219dd6664736f6c63430008180033","opcodes":"PUSH1 0xA0 CALLVALUE PUSH2 0x65 JUMPI PUSH1 0x1F PUSH2 0x7E8 CODESIZE DUP2 SWAP1 SUB SWAP2 DUP3 ADD PUSH1 0x1F NOT AND DUP4 ADD SWAP2 PUSH1 0x1 PUSH1 0x1 PUSH1 0x40 SHL SUB DUP4 GT DUP5 DUP5 LT OR PUSH2 0x6A JUMPI DUP1 DUP5 SWAP3 PUSH1 0x20 SWAP5 PUSH1 0x40 MSTORE DUP4 CODECOPY DUP2 ADD SUB SLT PUSH2 0x65 JUMPI MLOAD CALLER PUSH1 0x80 MSTORE PUSH1 0x0 SSTORE PUSH1 0x40 MLOAD PUSH2 0x767 SWAP1 DUP2 PUSH2 0x81 DUP3 CODECOPY PUSH1 0x80 MLOAD DUP2 DUP2 DUP2 PUSH2 0x135 ADD MSTORE PUSH2 0x30C ADD MSTORE RETURN JUMPDEST PUSH1 0x0 DUP1 REVERT JUMPDEST PUSH4 0x4E487B71 PUSH1 0xE0 SHL PUSH1 0x0 MSTORE PUSH1 0x41 PUSH1 0x4 MSTORE PUSH1 0x24 PUSH1 0x0 REVERT INVALID PUSH1 0x80 PUSH1 0x40 DUP2 DUP2 MSTORE PUSH1 0x4 SWAP2 DUP3 CALLDATASIZE LT ISZERO PUSH2 0x16 JUMPI PUSH1 0x0 DUP1 REVERT JUMPDEST PUSH1 0x0 SWAP3 DUP4 CALLDATALOAD PUSH1 0xE0 SHR SWAP2 DUP3 PUSH4 0x209AB711 EQ PUSH2 0x46E JUMPI POP DUP2 PUSH4 0x2BD15FA5 EQ PUSH2 0x443 JUMPI DUP2 PUSH4 0x372500AB EQ PUSH2 0x376 JUMPI DUP2 PUSH4 0x4A9FEFC7 EQ PUSH2 0x34D JUMPI DUP2 PUSH4 0x75F4C059 EQ PUSH2 0x330 JUMPI DUP2 PUSH4 0x8DA5CB5B EQ PUSH2 0x2EC JUMPI DUP2 PUSH4 0x9CA423B3 EQ PUSH2 0x28F JUMPI DUP2 PUSH4 0xA3674633 EQ PUSH2 0x1F5 JUMPI DUP2 PUSH4 0xB09E603F EQ PUSH2 0x115 JUMPI POP DUP1 PUSH4 0xB2DD5C07 EQ PUSH2 0xDA JUMPI PUSH4 0xD21CACDF EQ PUSH2 0x9E JUMPI PUSH1 0x0 DUP1 REVERT JUMPDEST CALLVALUE PUSH2 0xD6 JUMPI PUSH1 0x20 CALLDATASIZE PUSH1 0x3 NOT ADD SLT PUSH2 0xD6 JUMPI PUSH1 0x20 SWAP2 DUP2 PUSH1 0x1 PUSH1 0x1 PUSH1 0xA0 SHL SUB SWAP2 DUP3 PUSH2 0xC5 PUSH2 0x61E JUMP JUMPDEST AND DUP2 MSTORE PUSH1 0x2 DUP6 MSTORE KECCAK256 SLOAD AND SWAP1 MLOAD SWAP1 DUP2 MSTORE RETURN JUMPDEST POP DUP1 REVERT JUMPDEST POP CALLVALUE PUSH2 0xD6 JUMPI PUSH1 0x20 CALLDATASIZE PUSH1 0x3 NOT ADD SLT PUSH2 0xD6 JUMPI PUSH1 0xFF DUP2 PUSH1 0x20 SWAP4 PUSH1 0x1 PUSH1 0x1 PUSH1 0xA0 SHL SUB PUSH2 0x102 PUSH2 0x61E JUMP JUMPDEST AND DUP2 MSTORE PUSH1 0x3 DUP6 MSTORE KECCAK256 SLOAD AND SWAP1 MLOAD SWAP1 ISZERO ISZERO DUP2 MSTORE RETURN JUMPDEST SWAP1 POP CALLVALUE PUSH2 0x1F1 JUMPI PUSH1 0x20 CALLDATASIZE PUSH1 0x3 NOT ADD SLT PUSH2 0x1F1 JUMPI DUP1 CALLDATALOAD SWAP2 PUSH1 0x1 PUSH1 0x1 PUSH1 0xA0 SHL SUB PUSH32 0x0 AND CALLER SUB PUSH2 0x1AE JUMPI PUSH2 0x3E8 DUP4 GT PUSH2 0x16B JUMPI POP POP DUP2 SSTORE DUP1 RETURN JUMPDEST SWAP1 PUSH1 0x20 PUSH1 0x64 SWAP3 MLOAD SWAP2 PUSH3 0x461BCD PUSH1 0xE5 SHL DUP4 MSTORE DUP3 ADD MSTORE PUSH1 0x7 PUSH1 0x24 DUP3 ADD MSTORE PUSH32 0x4D61782031302500000000000000000000000000000000000000000000000000 PUSH1 0x44 DUP3 ADD MSTORE REVERT JUMPDEST SWAP1 PUSH1 0x20 PUSH1 0x64 SWAP3 MLOAD SWAP2 PUSH3 0x461BCD PUSH1 0xE5 SHL DUP4 MSTORE DUP3 ADD MSTORE PUSH1 0x9 PUSH1 0x24 DUP3 ADD MSTORE PUSH32 0x4E6F74206F776E65720000000000000000000000000000000000000000000000 PUSH1 0x44 DUP3 ADD MSTORE REVERT JUMPDEST DUP3 DUP1 REVERT JUMPDEST POP POP CALLVALUE PUSH2 0xD6 JUMPI PUSH1 0x20 CALLDATASIZE PUSH1 0x3 NOT ADD SLT PUSH2 0xD6 JUMPI PUSH1 0x80 SWAP2 DUP2 PUSH2 0x214 PUSH2 0x61E JUMP JUMPDEST SWAP2 DUP1 PUSH1 0x60 PUSH2 0x220 PUSH2 0x6FB JUMP JUMPDEST DUP3 DUP2 MSTORE DUP3 PUSH1 0x20 DUP3 ADD MSTORE DUP3 DUP6 DUP3 ADD MSTORE ADD MSTORE PUSH1 0x1 PUSH1 0x1 PUSH1 0xA0 SHL SUB DUP1 SWAP4 AND DUP2 MSTORE PUSH1 0x1 PUSH1 0x20 MSTORE KECCAK256 SWAP2 PUSH2 0x24C PUSH2 0x6FB JUMP JUMPDEST SWAP2 DUP4 SLOAD AND SWAP3 DUP4 DUP4 MSTORE PUSH1 0x1 DUP2 ADD SLOAD PUSH1 0x20 DUP5 ADD SWAP1 DUP2 MSTORE PUSH1 0x60 PUSH1 0x3 PUSH1 0x2 DUP5 ADD SLOAD SWAP4 DUP6 DUP8 ADD SWAP5 DUP6 MSTORE ADD SLOAD SWAP5 ADD SWAP4 DUP5 MSTORE DUP3 MLOAD SWAP5 DUP6 MSTORE MLOAD PUSH1 0x20 DUP6 ADD MSTORE MLOAD SWAP1 DUP4 ADD MSTORE MLOAD PUSH1 0x60 DUP3 ADD MSTORE RETURN JUMPDEST POP POP CALLVALUE PUSH2 0xD6 JUMPI PUSH1 0x20 CALLDATASIZE PUSH1 0x3 NOT ADD SLT PUSH2 0xD6 JUMPI SWAP1 DUP2 PUSH1 0x80 SWAP3 PUSH1 0x1 PUSH1 0x1 PUSH1 0xA0 SHL SUB SWAP3 DUP4 PUSH2 0x2B9 PUSH2 0x61E JUMP JUMPDEST AND DUP2 MSTORE PUSH1 0x1 PUSH1 0x20 MSTORE KECCAK256 SWAP2 DUP3 SLOAD AND SWAP2 PUSH1 0x1 DUP2 ADD SLOAD SWAP2 PUSH1 0x3 PUSH1 0x2 DUP4 ADD SLOAD SWAP3 ADD SLOAD SWAP3 DUP2 MLOAD SWAP5 DUP6 MSTORE PUSH1 0x20 DUP6 ADD MSTORE DUP4 ADD MSTORE PUSH1 0x60 DUP3 ADD MSTORE RETURN JUMPDEST POP POP CALLVALUE PUSH2 0xD6 JUMPI DUP2 PUSH1 0x3 NOT CALLDATASIZE ADD SLT PUSH2 0xD6 JUMPI PUSH1 0x20 SWAP1 MLOAD PUSH1 0x1 PUSH1 0x1 PUSH1 0xA0 SHL SUB PUSH32 0x0 AND DUP2 MSTORE RETURN JUMPDEST POP POP CALLVALUE PUSH2 0xD6 JUMPI DUP2 PUSH1 0x3 NOT CALLDATASIZE ADD SLT PUSH2 0xD6 JUMPI PUSH1 0x20 SWAP2 SLOAD SWAP1 MLOAD SWAP1 DUP2 MSTORE RETURN JUMPDEST POP POP CALLVALUE PUSH2 0xD6 JUMPI PUSH1 0x20 CALLDATASIZE PUSH1 0x3 NOT ADD SLT PUSH2 0xD6 JUMPI PUSH1 0x20 SWAP2 DUP2 PUSH1 0x1 PUSH1 0x1 PUSH1 0xA0 SHL SUB SWAP2 DUP3 PUSH2 0xC5 PUSH2 0x61E JUMP JUMPDEST SWAP2 SWAP1 POP CALLVALUE PUSH2 0x1F1 JUMPI DUP3 PUSH1 0x3 NOT CALLDATASIZE ADD SLT PUSH2 0x1F1 JUMPI CALLER DUP4 MSTORE PUSH1 0x1 PUSH1 0x20 MSTORE DUP1 DUP4 KECCAK256 SWAP2 PUSH1 0x3 PUSH1 0x2 DUP5 ADD SLOAD SWAP4 ADD SWAP1 DUP2 SLOAD SWAP1 DUP2 DUP6 SUB SWAP5 DUP1 DUP7 GT PUSH2 0x430 JUMPI DUP3 EQ PUSH2 0x3ED JUMPI POP DUP4 PUSH2 0x3BE SWAP2 PUSH2 0x639 JUMP JUMPDEST SWAP1 SSTORE MLOAD SWAP1 DUP2 MSTORE PUSH32 0xFC30CDDEA38E2BF4D6EA7D3F9ED3B6AD7F176419F4963BD81318067A4AEE73FE PUSH1 0x20 CALLER SWAP3 LOG2 DUP1 RETURN JUMPDEST PUSH1 0x64 SWAP1 PUSH1 0x20 DUP6 MLOAD SWAP2 PUSH3 0x461BCD PUSH1 0xE5 SHL DUP4 MSTORE DUP3 ADD MSTORE PUSH1 0xA PUSH1 0x24 DUP3 ADD MSTORE PUSH32 0x4E6F207265776172647300000000000000000000000000000000000000000000 PUSH1 0x44 DUP3 ADD MSTORE REVERT JUMPDEST PUSH1 0x24 DUP8 PUSH1 0x11 DUP5 PUSH4 0x4E487B71 PUSH1 0xE0 SHL DUP4 MSTORE MSTORE REVERT JUMPDEST POP POP CALLVALUE PUSH2 0xD6 JUMPI CALLDATASIZE PUSH1 0x3 NOT ADD SLT PUSH2 0x46B JUMPI PUSH2 0x468 PUSH2 0x45F PUSH2 0x61E JUMP JUMPDEST PUSH1 0x24 CALLDATALOAD SWAP1 PUSH2 0x65C JUMP JUMPDEST DUP1 RETURN JUMPDEST DUP1 REVERT JUMPDEST DUP5 SWAP2 DUP5 CALLVALUE PUSH2 0x61A JUMPI PUSH1 0x20 SWAP3 DUP4 PUSH1 0x3 NOT CALLDATASIZE ADD SLT PUSH2 0x616 JUMPI PUSH2 0x48C PUSH2 0x61E JUMP JUMPDEST SWAP1 CALLER DUP7 MSTORE PUSH1 0x3 DUP6 MSTORE PUSH1 0xFF DUP4 DUP8 KECCAK256 SLOAD AND PUSH2 0x5D6 JUMPI POP PUSH1 0x1 PUSH1 0x1 PUSH1 0xA0 SHL SUB AND SWAP3 CALLER DUP5 EQ PUSH2 0x595 JUMPI DUP4 ISZERO PUSH2 0x554 JUMPI SWAP1 PUSH1 0x1 DUP1 SWAP3 CALLER DUP8 MSTORE PUSH1 0x2 DUP2 MSTORE DUP3 DUP8 KECCAK256 DUP7 PUSH32 0xFFFFFFFFFFFFFFFFFFFFFFFF0000000000000000000000000000000000000000 DUP3 SLOAD AND OR SWAP1 SSTORE PUSH1 0x3 DUP2 MSTORE DUP3 DUP8 KECCAK256 DUP3 PUSH1 0xFF NOT DUP3 SLOAD AND OR SWAP1 SSTORE DUP6 DUP8 MSTORE MSTORE DUP5 KECCAK256 ADD SWAP1 DUP2 SLOAD SWAP1 PUSH1 0x0 NOT DUP3 EQ PUSH2 0x541 JUMPI POP PUSH1 0x1 ADD SWAP1 SSTORE CALLER PUSH32 0x5F1CA2FCC108B751843A763E60D2201F593516109D7DBB1B700468F2D4190BB7 DUP4 DUP1 LOG3 DUP1 RETURN JUMPDEST DUP5 PUSH1 0x11 PUSH1 0x24 SWAP3 PUSH4 0x4E487B71 PUSH1 0xE0 SHL DUP4 MSTORE MSTORE REVERT JUMPDEST PUSH1 0x64 SWAP3 SWAP2 MLOAD SWAP2 PUSH3 0x461BCD PUSH1 0xE5 SHL DUP4 MSTORE DUP3 ADD MSTORE PUSH1 0x10 PUSH1 0x24 DUP3 ADD MSTORE PUSH32 0x496E76616C696420726566657272657200000000000000000000000000000000 PUSH1 0x44 DUP3 ADD MSTORE REVERT JUMPDEST PUSH1 0x64 SWAP3 SWAP2 MLOAD SWAP2 PUSH3 0x461BCD PUSH1 0xE5 SHL DUP4 MSTORE DUP3 ADD MSTORE PUSH1 0x11 PUSH1 0x24 DUP3 ADD MSTORE PUSH32 0x43616E6E6F742072656665722073656C66000000000000000000000000000000 PUSH1 0x44 DUP3 ADD MSTORE REVERT JUMPDEST DUP1 DUP6 DUP6 PUSH3 0x461BCD PUSH1 0xE5 SHL PUSH1 0x64 SWAP5 MSTORE DUP3 ADD MSTORE PUSH1 0x12 PUSH1 0x24 DUP3 ADD MSTORE PUSH32 0x416C726561647920726567697374657265640000000000000000000000000000 PUSH1 0x44 DUP3 ADD MSTORE REVERT JUMPDEST DUP5 DUP1 REVERT JUMPDEST DUP4 DUP1 REVERT JUMPDEST PUSH1 0x4 CALLDATALOAD SWAP1 PUSH1 0x1 PUSH1 0x1 PUSH1 0xA0 SHL SUB DUP3 AND DUP3 SUB PUSH2 0x634 JUMPI JUMP JUMPDEST PUSH1 0x0 DUP1 REVERT JUMPDEST SWAP2 SWAP1 DUP3 ADD DUP1 SWAP3 GT PUSH2 0x646 JUMPI JUMP JUMPDEST PUSH4 0x4E487B71 PUSH1 0xE0 SHL PUSH1 0x0 MSTORE PUSH1 0x11 PUSH1 0x4 MSTORE PUSH1 0x24 PUSH1 0x0 REVERT JUMPDEST SWAP1 PUSH1 0x1 PUSH1 0x1 PUSH1 0xA0 SHL SUB DUP1 SWAP3 AND SWAP2 PUSH1 0x0 SWAP1 DUP4 DUP3 MSTORE PUSH1 0x2 PUSH1 0x20 MSTORE PUSH1 0x40 DUP3 KECCAK256 SLOAD AND SWAP2 DUP3 ISZERO PUSH2 0x6F5 JUMPI DUP2 SLOAD SWAP1 DUP2 DUP2 MUL SWAP2 DUP2 DUP4 DIV EQ SWAP1 ISZERO OR ISZERO PUSH2 0x6E1 JUMPI PUSH32 0xE05841E5A327956F4A370D19D6E54C700A6B2638644182706F8AC8738C35FB8A SWAP2 PUSH1 0x2 PUSH1 0x40 PUSH2 0x2710 PUSH1 0x20 SWAP5 DIV SWAP3 DUP7 DUP2 MSTORE PUSH1 0x1 DUP6 MSTORE KECCAK256 ADD PUSH2 0x6D6 DUP3 DUP3 SLOAD PUSH2 0x639 JUMP JUMPDEST SWAP1 SSTORE PUSH1 0x40 MLOAD SWAP1 DUP2 MSTORE LOG3 JUMP JUMPDEST PUSH1 0x24 DUP3 PUSH4 0x4E487B71 PUSH1 0xE0 SHL DUP2 MSTORE PUSH1 0x11 PUSH1 0x4 MSTORE REVERT JUMPDEST POP POP POP POP JUMP JUMPDEST PUSH1 0x40 MLOAD SWAP1 PUSH1 0x80 DUP3 ADD DUP3 DUP2 LT PUSH8 0xFFFFFFFFFFFFFFFF DUP3 GT OR PUSH2 0x71B JUMPI PUSH1 0x40 MSTORE JUMP JUMPDEST PUSH4 0x4E487B71 PUSH1 0xE0 SHL PUSH1 0x0 MSTORE PUSH1 0x41 PUSH1 0x4 MSTORE PUSH1 0x24 PUSH1 0x0 REVERT INVALID LOG2 PUSH5 0x6970667358 0x22 SLT KECCAK256 PUSH19 0x152115778A41A68AF004C2822EDA1CA0BB9D4A PC 0xDC SWAP13 PC SWAP6 PUSH10 0xD5424219DD6664736F6C PUSH4 0x43000818 STOP CALLER "},"methodIdentifiers":{"claimRewards()":"372500ab","getReferralData(address)":"a3674633","getReferrer(address)":"4a9fefc7","owner()":"8da5cb5b","recordReferralReward(address,uint256)":"2bd15fa5","referralRewardBps()":"75f4c059","referrals(address)":"9ca423b3","referrerOf(address)":"d21cacdf","registerReferral(address)":"209ab711","registered(address)":"b2dd5c07","setReferralRewardBps(uint256)":"b09e603f"}}}}}