{"contracts/DuelManager.sol":{"DuelManager":{"abi":[{"inputs":[{"internalType":"address","name":"_feeCollector","type":"address"},{"internalType":"uint256","name":"_feeBps","type":"uint256"}],"stateMutability":"nonpayable","type":"constructor"},{"anonymous":false,"inputs":[{"indexed":true,"internalType":"bytes32","name":"id","type":"bytes32"},{"indexed":true,"internalType":"address","name":"player1","type":"address"},{"indexed":false,"internalType":"uint256","name":"stake","type":"uint256"},{"indexed":true,"internalType":"address","name":"token","type":"address"}],"name":"ComputerDuelCreated","type":"event"},{"anonymous":false,"inputs":[{"indexed":true,"internalType":"bytes32","name":"id","type":"bytes32"},{"indexed":true,"internalType":"address","name":"winner","type":"address"},{"indexed":false,"internalType":"uint256","name":"prize","type":"uint256"},{"indexed":false,"internalType":"bool","name":"playerWon","type":"bool"}],"name":"ComputerDuelFinished","type":"event"},{"anonymous":false,"inputs":[{"indexed":true,"internalType":"bytes32","name":"id","type":"bytes32"}],"name":"DuelCancelled","type":"event"},{"anonymous":false,"inputs":[{"indexed":true,"internalType":"bytes32","name":"id","type":"bytes32"},{"indexed":true,"internalType":"address","name":"player1","type":"address"},{"indexed":false,"internalType":"uint256","name":"stake","type":"uint256"},{"indexed":true,"internalType":"address","name":"token","type":"address"}],"name":"DuelCreated","type":"event"},{"anonymous":false,"inputs":[{"indexed":true,"internalType":"bytes32","name":"id","type":"bytes32"},{"indexed":true,"internalType":"address","name":"winner","type":"address"},{"indexed":false,"internalType":"uint256","name":"prize","type":"uint256"}],"name":"DuelFinished","type":"event"},{"anonymous":false,"inputs":[{"indexed":true,"internalType":"bytes32","name":"id","type":"bytes32"},{"indexed":true,"internalType":"address","name":"player2","type":"address"}],"name":"DuelJoined","type":"event"},{"anonymous":false,"inputs":[{"indexed":true,"internalType":"bytes32","name":"id","type":"bytes32"}],"name":"DuelStarted","type":"event"},{"anonymous":false,"inputs":[{"indexed":true,"internalType":"bytes32","name":"id","type":"bytes32"},{"indexed":true,"internalType":"address","name":"player","type":"address"},{"indexed":true,"internalType":"address","name":"winner","type":"address"}],"name":"ResultConfirmed","type":"event"},{"inputs":[{"internalType":"bytes32","name":"id","type":"bytes32"}],"name":"cancelDuel","outputs":[],"stateMutability":"nonpayable","type":"function"},{"inputs":[],"name":"computerOpponent","outputs":[{"internalType":"address","name":"","type":"address"}],"stateMutability":"view","type":"function"},{"inputs":[{"internalType":"bytes32","name":"id","type":"bytes32"},{"internalType":"address","name":"winner","type":"address"}],"name":"confirmResult","outputs":[],"stateMutability":"nonpayable","type":"function"},{"inputs":[{"internalType":"bytes32","name":"","type":"bytes32"},{"internalType":"address","name":"","type":"address"}],"name":"confirmations","outputs":[{"internalType":"address","name":"","type":"address"}],"stateMutability":"view","type":"function"},{"inputs":[{"internalType":"bytes32","name":"id","type":"bytes32"},{"internalType":"uint256","name":"stake","type":"uint256"},{"internalType":"address","name":"token","type":"address"}],"name":"createComputerDuel","outputs":[],"stateMutability":"nonpayable","type":"function"},{"inputs":[{"internalType":"bytes32","name":"id","type":"bytes32"},{"internalType":"uint256","name":"stake","type":"uint256"},{"internalType":"address","name":"token","type":"address"}],"name":"createDuel","outputs":[],"stateMutability":"nonpayable","type":"function"},{"inputs":[{"internalType":"bytes32","name":"","type":"bytes32"}],"name":"duels","outputs":[{"internalType":"bytes32","name":"id","type":"bytes32"},{"internalType":"address","name":"player1","type":"address"},{"internalType":"address","name":"player2","type":"address"},{"internalType":"uint256","name":"stake","type":"uint256"},{"internalType":"address","name":"token","type":"address"},{"internalType":"enum DuelManager.Status","name":"status","type":"uint8"},{"internalType":"address","name":"winner","type":"address"},{"internalType":"bool","name":"isComputerDuel","type":"bool"}],"stateMutability":"view","type":"function"},{"inputs":[],"name":"feeBps","outputs":[{"internalType":"uint256","name":"","type":"uint256"}],"stateMutability":"view","type":"function"},{"inputs":[],"name":"feeCollector","outputs":[{"internalType":"address","name":"","type":"address"}],"stateMutability":"view","type":"function"},{"inputs":[{"internalType":"bytes32","name":"id","type":"bytes32"},{"internalType":"address","name":"winner","type":"address"}],"name":"finishComputerDuel","outputs":[],"stateMutability":"nonpayable","type":"function"},{"inputs":[{"internalType":"uint256","name":"start","type":"uint256"},{"internalType":"uint256","name":"count","type":"uint256"}],"name":"getPlayers","outputs":[{"internalType":"address[]","name":"out","type":"address[]"}],"stateMutability":"view","type":"function"},{"inputs":[{"internalType":"bytes32","name":"id","type":"bytes32"}],"name":"joinDuel","outputs":[],"stateMutability":"nonpayable","type":"function"},{"inputs":[],"name":"owner","outputs":[{"internalType":"address","name":"","type":"address"}],"stateMutability":"view","type":"function"},{"inputs":[{"internalType":"uint256","name":"","type":"uint256"}],"name":"players","outputs":[{"internalType":"address","name":"","type":"address"}],"stateMutability":"view","type":"function"},{"inputs":[{"internalType":"address","name":"_computerOpponent","type":"address"}],"name":"setComputerOpponent","outputs":[],"stateMutability":"nonpayable","type":"function"},{"inputs":[{"internalType":"uint256","name":"_feeBps","type":"uint256"}],"name":"setFeeBps","outputs":[],"stateMutability":"nonpayable","type":"function"},{"inputs":[{"internalType":"address","name":"_feeCollector","type":"address"}],"name":"setFeeCollector","outputs":[],"stateMutability":"nonpayable","type":"function"},{"inputs":[{"internalType":"address","name":"","type":"address"}],"name":"stats","outputs":[{"internalType":"uint256","name":"wins","type":"uint256"},{"internalType":"uint256","name":"losses","type":"uint256"},{"internalType":"uint256","name":"winnings","type":"uint256"},{"internalType":"uint256","name":"totalStaked","type":"uint256"}],"stateMutability":"view","type":"function"}],"evm":{"bytecode":{"linkReferences":{},"object":"6080346100a357601f611c6a38819003918201601f19168301916001600160401b038311848410176100a85780849260409485528339810103126100a35780516001600160a01b0380821691908282036100a357602061dead9401519160018060a01b031993338560005416176000551560001461009e5750335b168260015416176001556002556003541617600355604051611bab90816100bf8239f35b61007a565b600080fd5b634e487b7160e01b600052604160045260246000fdfe60406080815260048036101561001457600080fd5b600091823560e01c806304fe738a146111d65780630c4ecab4146111945780630d2dce221461112b578063123fa3b614610f7457806324a9d85314610f555780633709e08f14610dc15780636ca81ff014610cad57806372c27b6214610c2e5780638bcdcbf314610bd55780638da5cb5b14610baf578063a42dce8014610b69578063ac7be06f14610b41578063c415b95c14610b19578063d18aae7014610a6c578063d9c88cf7146105bd578063ed5eb77a1461035c578063f71d96cb146103175763fb39fb52146100e657600080fd5b3461031357600191816100f83661124d565b82889693959296528460209485928484526101248b6001600160a01b039b8c9485922001541615611542565b61012f89151561158d565b169761013c8915156115d8565b84516101478161130f565b828152898b85830133815288840182815260608501908d8252608086019485528a60a08701948086528b60c089019b828d5260e08a019b838d5283525220955186558660018701935116926001600160a01b031993848254161790558660028701915116838254161790555160038501558488850193511690835416178255519086821015610300579260058996936101e68d979461025a9a976114f1565b019251167fffffffffffffffffffffff00000000000000000000000000000000000000000060ff60a01b84549351151560a01b16921617179055845193849283926323b872dd60e01b84523090339085016040919493929460608201956001600160a01b0380921683521660208201520152565b03818a8a5af19081156102f6577fc387dbc55364fece0c83fa65c865f1dcef6ab6a86829e50446076911b906868193929161029c9189916102c9575b50611623565b338752600682526003818820016102b486825461137c565b90556102bf33611b02565b519384523393a480f35b6102e99150843d86116102ef575b6102e18183611342565b81019061152a565b38610296565b503d6102d7565b82513d89823e3d90fd5b60248d602189634e487b7160e01b835252fd5b8280fd5b50903461031357602036600319011261031357359160075483101561035957506001600160a01b0361034a602093611277565b92905490519260031b1c168152f35b80fd5b503461031357602090816003193601126105b9578235928385528083528185206001600160a01b0390816001820154169081156105775783810180549260ff8460a01c1686811015610564576103b290156114a6565b60028301908154908682166105225733146104e0576001600160a01b0319163390811790915560ff60a01b19841674010000000000000000000000000000000000000000179091556003909101805486516323b872dd60e01b81529586019283523060208401526040830152939286928492909183918b919083906060010393165af19081156104d65760039261045661046795936006938a916104bf5750611623565b54943388525285200191825461137c565b905561047233611b02565b33817f1eb43aa8ef4d730d2f76aae922aafdbd064efa3352f73fd40fa1d3bbef4cd0578480a37fb37fb54a76f874f0ec60d8cd7ffdcd72d64968a3b511f407f16cafd9b50a77088280a280f35b6102e99150883d8a116102ef576102e18183611342565b83513d88823e3d90fd5b6064878a8a519162461bcd60e51b8352820152600b60248201527f53616d6520706c617965720000000000000000000000000000000000000000006044820152fd5b6064888b8b519162461bcd60e51b8352820152600660248201527f4a6f696e656400000000000000000000000000000000000000000000000000006044820152fd5b60248b602189634e487b7160e01b835252fd5b6064848787519162461bcd60e51b8352820152600c60248201527f4475656c206d697373696e6700000000000000000000000000000000000000006044820152fd5b8380fd5b5090346103135781600319360112610313578035906105da611237565b928285526020828152818620906001600160a01b0393600192858085830154163314918215610a5b575b505015610a1a5785885280825283882060ff8282015460a01c1682811015610a07578461063191146116b9565b838101938680865416991698891480156109f8575b61064f90611704565b878a52600598898552868b20338c528552868b20906001600160a01b03199181838254161790558b8a7fdf9e8954c1fe1dc40676cadb9b3e2d1ebee0b2437c9dd6632cb289ba62a46eab339280a4828a015460a01c60ff16156106fc5750505050848752858152838388209254169182885281528383882054166106d7575b50505050505080f35b6106f19585885281528287209187525284205416906117f8565b3880808080806106ce565b90939594888b9a939998949b5282875283868b209154168a52865282858a20541697878a52828752836002878c20920154168a52865282858a20541688151590816109ee575b816109e4575b5061075b575b5050505050505050905080f35b868952898652848920918a830190815460ff8160a01c168d8110156109d0578761078591146116b9565b60038501549384881b94808604600214901517156109bc57898e938d9a9998979695938f8c90610817956107c96127106107c16002548d61174f565b04809b61139f565b9e8f95600160a11b60ff60a01b198716178a558c01918254161790558a8d5180978196829563a9059cbb60e01b9c8d85528401602090939291936001600160a01b0360408201951681520152565b0393165af19081156109b2579161083c87969594928f948d9591610995575b506117ad565b8361090c575b50505050808401548216898103610904575060020154165b878952600686528389208054908482018092116108f15755878952600686526002848a200161088a86825461137c565b905516875260068452808288200180549182018092116108de577f6128b48d5ec91f60dd9382c113490194411b22b09fc18481e66742e9a5428fee95969798505551908152a380388080808080808061074e565b60248860118b634e487b7160e01b835252fd5b60248b60118e634e487b7160e01b835252fd5b91505061085a565b94909192939454168d8d87895416936109468b519788968795869485528401602090939291936001600160a01b0360408201951681520152565b03925af190811561098b57839291610965918c9161096e575b50611762565b38878180610842565b6109859150893d8b116102ef576102e18183611342565b3861095f565b85513d8c823e3d90fd5b6109ac9150853d87116102ef576102e18183611342565b38610836565b88513d8f823e3d90fd5b5060248c60118f634e487b7160e01b835252fd5b5060248c60218f634e487b7160e01b835252fd5b9050881438610748565b8015159150610742565b50600282015487168914610646565b60248a602185634e487b7160e01b835252fd5b60649184519162461bcd60e51b8352820152600c60248201527f4e6f74206120706c6179657200000000000000000000000000000000000000006044820152fd5b600291925001541633148538610604565b50829034610b15576020366003190112610b15578235825282602052808220918254926001600160a01b0391828060018401541694816002850154166003850154908986015492600560ff8560a01c169701549881519a8b5260208b0152890152606088015216608086015285821015610b02576101008560ff86868660a0850152811660c084015260a01c16151560e0820152f35b80602187634e487b7160e01b6024945252fd5b5080fd5b838234610b155781600319360112610b15576020906001600160a01b03600154169051908152f35b838234610b155781600319360112610b15576020906001600160a01b03600354169051908152f35b833461035957602036600319011261035957610b8361121c565b6001600160a01b0390610b9a8284541633146112c4565b166001600160a01b0319600154161760015580f35b838234610b155781600319360112610b15576001600160a01b0360209254169051908152f35b838234610b15576020366003190112610b1557806080926001600160a01b03610bfc61121c565b168152600660205220908154916001810154916003600283015492015492815194855260208501528301526060820152f35b50903461031357602036600319011261031357803591610c596001600160a01b0385541633146112c4565b6107d08311610c6a57505060025580f35b906020606492519162461bcd60e51b8352820152600c60248201527f46656520746f6f206869676800000000000000000000000000000000000000006044820152fd5b50919034610b155782600319360112610b15578035610cca611237565b9181845280602052848420610ce860ff600583015460a01c1661166e565b60ff8282015460a01c1682811015610dae576001610d0691146116b9565b6001600160a01b03610d30816001840154169282871683858214928315610d9e575b505050611704565b8554163314908115610d94575b5015610d51575090610d4e916117f8565b80f35b606490602086519162461bcd60e51b8352820152600e60248201527f4e6f7420617574686f72697a65640000000000000000000000000000000000006044820152fd5b9050331438610d3d565b6002015416149050388381610d28565b602486602185634e487b7160e01b835252fd5b5090346103135760019082610dd53661124d565b828897939795929552866020948592848452610e028b6001600160a01b039a8b9485922001541615611542565b610e0d88151561158d565b1696610e1a8815156115d8565b8060035416855190610e2b8261130f565b8382528b858301338152888401928352606084018b815260808501938d85528a60a0870194600186528b60c089019b828d5260e08a019b60018d5283525220955186558660018701935116926001600160a01b031993848254161790558660028701915116838254161790555160038501558488850193511690835416178255519086821015610300579260058996936101e68c9794610ecb9a976114f1565b03818a895af19081156102f65791610f0d8794927fb989f5bcaa268ac1f9f1798edc2ab8b625696181778bda6362b4a70f3d762bd7948a916102c95750611623565b33885260068252600381892001610f2586825461137c565b9055519384523393a47fb37fb54a76f874f0ec60d8cd7ffdcd72d64968a3b511f407f16cafd9b50a77088280a280f35b838234610b155781600319360112610b15576020906002549051908152f35b509034610313576020806003193601126105b9578135928385528282528085206001600160a01b0390816001820154163381036110e9578582019182549260ff8460a01c16888110156110d657600388959361102b979593610fd78e94156114a6565b7403000000000000000000000000000000000000000060ff60a01b198716179055015493875180978196829563a9059cbb60e01b84528d8401602090939291936001600160a01b0360408201951681520152565b0393165af19081156110cc5786916110af575b501561106e575050507f5d798f443a55745e766f01169abbf30e321258c3ac925c948d1fad2c068967e48280a280f35b60649350519162461bcd60e51b8352820152600d60248201527f726566756e64206661696c6564000000000000000000000000000000000000006044820152fd5b6110c69150833d85116102ef576102e18183611342565b3861103e565b82513d88823e3d90fd5b60248b60218b634e487b7160e01b835252fd5b6064868686519162461bcd60e51b8352820152600c60248201527f4f6e6c792063726561746f7200000000000000000000000000000000000000006044820152fd5b50903461031357816003193601126103135761114b9060243590356113ac565b815192839260208080860192818752855180945286019401925b82811061117457505050500390f35b83516001600160a01b031685528695509381019392810192600101611165565b509034610313578160031936011261031357816020936111b2611237565b92358152600585528181206001600160a01b03809416825285522054169051908152f35b8334610359576020366003190112610359576111f061121c565b6001600160a01b03906112078284541633146112c4565b166001600160a01b0319600354161760035580f35b600435906001600160a01b038216820361123257565b600080fd5b602435906001600160a01b038216820361123257565b60609060031901126112325760043590602435906044356001600160a01b03811681036112325790565b6007548110156112ae5760076000527fa66cc928b5edb82af9bd49922954155ab7b0942694bea4ce44661d9a8736c6880190600090565b634e487b7160e01b600052603260045260246000fd5b156112cb57565b606460405162461bcd60e51b815260206004820152600960248201527f4e6f74206f776e657200000000000000000000000000000000000000000000006044820152fd5b610100810190811067ffffffffffffffff82111761132c57604052565b634e487b7160e01b600052604160045260246000fd5b90601f8019910116810190811067ffffffffffffffff82111761132c57604052565b67ffffffffffffffff811161132c5760051b60200190565b9190820180921161138957565b634e487b7160e01b600052601160045260246000fd5b9190820391821161138957565b91906007549081841015611479576113d8916113c985928361137c565b90808211611471575b5061139f565b916113e283611364565b926113f06040519485611342565b8084526113fc81611364565b60209490601f19013686830137809460009360005b84811061142057505050505050565b61143261142d828461137c565b611277565b905490855183101561145d5760031b1c6001600160a01b0316600582901b8501840152600101611411565b602488634e487b7160e01b81526032600452fd5b9050386113d2565b505090506040516020810181811067ffffffffffffffff82111761132c5760405260008152600036813790565b156114ad57565b606460405162461bcd60e51b815260206004820152600860248201527f4e6f74206f70656e0000000000000000000000000000000000000000000000006044820152fd5b9060048110156115145760ff60a01b1960ff60a01b83549260a01b169116179055565b634e487b7160e01b600052602160045260246000fd5b90816020910312611232575180151581036112325790565b1561154957565b606460405162461bcd60e51b815260206004820152600b60248201527f4475656c206578697374730000000000000000000000000000000000000000006044820152fd5b1561159457565b606460405162461bcd60e51b815260206004820152600760248201527f5374616b653e30000000000000000000000000000000000000000000000000006044820152fd5b156115df57565b606460405162461bcd60e51b815260206004820152600e60248201527f546f6b656e2072657175697265640000000000000000000000000000000000006044820152fd5b1561162a57565b606460405162461bcd60e51b815260206004820152601560248201527f7374616b65207472616e73666572206661696c656400000000000000000000006044820152fd5b1561167557565b606460405162461bcd60e51b815260206004820152601160248201527f4e6f7420636f6d7075746572206475656c0000000000000000000000000000006044820152fd5b156116c057565b606460405162461bcd60e51b815260206004820152600a60248201527f4e6f7420616374697665000000000000000000000000000000000000000000006044820152fd5b1561170b57565b606460405162461bcd60e51b815260206004820152600e60248201527f496e76616c69642077696e6e65720000000000000000000000000000000000006044820152fd5b8181029291811591840414171561138957565b1561176957565b606460405162461bcd60e51b815260206004820152601360248201527f666565207472616e73666572206661696c6564000000000000000000000000006044820152fd5b156117b457565b606460405162461bcd60e51b815260206004820152601560248201527f7072697a65207472616e73666572206661696c656400000000000000000000006044820152fd5b91909160009080825260049360209085825260408085209487860180549160ff8360a01c16948a861015611aef576001809614611834906116b9565b8a868860058c019b8c54938460a01c60ff1661184f9061166e565b60ff60a01b198916600160a11b1788556001600160a01b038096169d8e6001600160a01b0319819716179055600382015460025461188d908261174f565b6127109004908161189d9161139f565b9b8c9301958787541614998a6000146119dc575050856118f494959697985416908888885416918c519687958694859363a9059cbb60e01b85528401602090939291936001600160a01b0360408201951681520152565b03925af19081156119d257906119109186916119bb57506117ad565b8282541684526006885285842080549182018092116119a8578a9b9c50868a9b9692957f9c2ea0f13a3509f96498872388f9a890949af6263d737e43e106cf07a3b4660a9582957f6128b48d5ec91f60dd9382c113490194411b22b09fc18481e66742e9a5428fee9d98600295555416815260068b52200161199388825461137c565b90555b81519087825288820152a351908152a3565b60248560118f634e487b7160e01b835252fd5b6109ac91508a3d8c116102ef576102e18183611342565b87513d87823e3d90fd5b91949850809250611a6d575b5050505054168152600686528184822001908154928301809311611a5a575087989950838798937f6128b48d5ec91f60dd9382c113490194411b22b09fc18481e66742e9a5428fee98937f9c2ea0f13a3509f96498872388f9a890949af6263d737e43e106cf07a3b4660a9355611996565b8060118c634e487b7160e01b6024945252fd5b611aa8938787808b5416928d519788968795869363a9059cbb60e01b85528401602090939291936001600160a01b0360408201951681520152565b0393165af1908115611ae55790611ac5918591611ace5750611762565b8b8838806119e8565b61098591508a3d8c116102ef576102e18183611342565b87513d86823e3d90fd5b60248260218d634e487b7160e01b835252fd5b6001600160a01b038091168060005260086020526040600020805460ff811615611b2d575b50505050565b60ff191660011790556007546801000000000000000081101561132c57806001611b5a9201600755611277565b909283549160031b92831b921b191617905538808080611b2756fea264697066735822122076d8ebbc83421104f1474b66a8965828d42f2fd88a07265fc4bede8085c70a3d64736f6c63430008180033","opcodes":"PUSH1 0x80 CALLVALUE PUSH2 0xA3 JUMPI PUSH1 0x1F PUSH2 0x1C6A CODESIZE DUP2 SWAP1 SUB SWAP2 DUP3 ADD PUSH1 0x1F NOT AND DUP4 ADD SWAP2 PUSH1 0x1 PUSH1 0x1 PUSH1 0x40 SHL SUB DUP4 GT DUP5 DUP5 LT OR PUSH2 0xA8 JUMPI DUP1 DUP5 SWAP3 PUSH1 0x40 SWAP5 DUP6 MSTORE DUP4 CODECOPY DUP2 ADD SUB SLT PUSH2 0xA3 JUMPI DUP1 MLOAD PUSH1 0x1 PUSH1 0x1 PUSH1 0xA0 SHL SUB DUP1 DUP3 AND SWAP2 SWAP1 DUP3 DUP3 SUB PUSH2 0xA3 JUMPI PUSH1 0x20 PUSH2 0xDEAD SWAP5 ADD MLOAD SWAP2 PUSH1 0x1 DUP1 PUSH1 0xA0 SHL SUB NOT SWAP4 CALLER DUP6 PUSH1 0x0 SLOAD AND OR PUSH1 0x0 SSTORE ISZERO PUSH1 0x0 EQ PUSH2 0x9E JUMPI POP CALLER JUMPDEST AND DUP3 PUSH1 0x1 SLOAD AND OR PUSH1 0x1 SSTORE PUSH1 0x2 SSTORE PUSH1 0x3 SLOAD AND OR PUSH1 0x3 SSTORE PUSH1 0x40 MLOAD PUSH2 0x1BAB SWAP1 DUP2 PUSH2 0xBF DUP3 CODECOPY RETURN JUMPDEST PUSH2 0x7A JUMP JUMPDEST PUSH1 0x0 DUP1 REVERT JUMPDEST PUSH4 0x4E487B71 PUSH1 0xE0 SHL PUSH1 0x0 MSTORE PUSH1 0x41 PUSH1 0x4 MSTORE PUSH1 0x24 PUSH1 0x0 REVERT INVALID PUSH1 0x40 PUSH1 0x80 DUP2 MSTORE PUSH1 0x4 DUP1 CALLDATASIZE LT ISZERO PUSH2 0x14 JUMPI PUSH1 0x0 DUP1 REVERT JUMPDEST PUSH1 0x0 SWAP2 DUP3 CALLDATALOAD PUSH1 0xE0 SHR DUP1 PUSH4 0x4FE738A EQ PUSH2 0x11D6 JUMPI DUP1 PUSH4 0xC4ECAB4 EQ PUSH2 0x1194 JUMPI DUP1 PUSH4 0xD2DCE22 EQ PUSH2 0x112B JUMPI DUP1 PUSH4 0x123FA3B6 EQ PUSH2 0xF74 JUMPI DUP1 PUSH4 0x24A9D853 EQ PUSH2 0xF55 JUMPI DUP1 PUSH4 0x3709E08F EQ PUSH2 0xDC1 JUMPI DUP1 PUSH4 0x6CA81FF0 EQ PUSH2 0xCAD JUMPI DUP1 PUSH4 0x72C27B62 EQ PUSH2 0xC2E JUMPI DUP1 PUSH4 0x8BCDCBF3 EQ PUSH2 0xBD5 JUMPI DUP1 PUSH4 0x8DA5CB5B EQ PUSH2 0xBAF JUMPI DUP1 PUSH4 0xA42DCE80 EQ PUSH2 0xB69 JUMPI DUP1 PUSH4 0xAC7BE06F EQ PUSH2 0xB41 JUMPI DUP1 PUSH4 0xC415B95C EQ PUSH2 0xB19 JUMPI DUP1 PUSH4 0xD18AAE70 EQ PUSH2 0xA6C JUMPI DUP1 PUSH4 0xD9C88CF7 EQ PUSH2 0x5BD JUMPI DUP1 PUSH4 0xED5EB77A EQ PUSH2 0x35C JUMPI DUP1 PUSH4 0xF71D96CB EQ PUSH2 0x317 JUMPI PUSH4 0xFB39FB52 EQ PUSH2 0xE6 JUMPI PUSH1 0x0 DUP1 REVERT JUMPDEST CALLVALUE PUSH2 0x313 JUMPI PUSH1 0x1 SWAP2 DUP2 PUSH2 0xF8 CALLDATASIZE PUSH2 0x124D JUMP JUMPDEST DUP3 DUP9 SWAP7 SWAP4 SWAP6 SWAP3 SWAP7 MSTORE DUP5 PUSH1 0x20 SWAP5 DUP6 SWAP3 DUP5 DUP5 MSTORE PUSH2 0x124 DUP12 PUSH1 0x1 PUSH1 0x1 PUSH1 0xA0 SHL SUB SWAP12 DUP13 SWAP5 DUP6 SWAP3 KECCAK256 ADD SLOAD AND ISZERO PUSH2 0x1542 JUMP JUMPDEST PUSH2 0x12F DUP10 ISZERO ISZERO PUSH2 0x158D JUMP JUMPDEST AND SWAP8 PUSH2 0x13C DUP10 ISZERO ISZERO PUSH2 0x15D8 JUMP JUMPDEST DUP5 MLOAD PUSH2 0x147 DUP2 PUSH2 0x130F JUMP JUMPDEST DUP3 DUP2 MSTORE DUP10 DUP12 DUP6 DUP4 ADD CALLER DUP2 MSTORE DUP9 DUP5 ADD DUP3 DUP2 MSTORE PUSH1 0x60 DUP6 ADD SWAP1 DUP14 DUP3 MSTORE PUSH1 0x80 DUP7 ADD SWAP5 DUP6 MSTORE DUP11 PUSH1 0xA0 DUP8 ADD SWAP5 DUP1 DUP7 MSTORE DUP12 PUSH1 0xC0 DUP10 ADD SWAP12 DUP3 DUP14 MSTORE PUSH1 0xE0 DUP11 ADD SWAP12 DUP4 DUP14 MSTORE DUP4 MSTORE MSTORE KECCAK256 SWAP6 MLOAD DUP7 SSTORE DUP7 PUSH1 0x1 DUP8 ADD SWAP4 MLOAD AND SWAP3 PUSH1 0x1 PUSH1 0x1 PUSH1 0xA0 SHL SUB NOT SWAP4 DUP5 DUP3 SLOAD AND OR SWAP1 SSTORE DUP7 PUSH1 0x2 DUP8 ADD SWAP2 MLOAD AND DUP4 DUP3 SLOAD AND OR SWAP1 SSTORE MLOAD PUSH1 0x3 DUP6 ADD SSTORE DUP5 DUP9 DUP6 ADD SWAP4 MLOAD AND SWAP1 DUP4 SLOAD AND OR DUP3 SSTORE MLOAD SWAP1 DUP7 DUP3 LT ISZERO PUSH2 0x300 JUMPI SWAP3 PUSH1 0x5 DUP10 SWAP7 SWAP4 PUSH2 0x1E6 DUP14 SWAP8 SWAP5 PUSH2 0x25A SWAP11 SWAP8 PUSH2 0x14F1 JUMP JUMPDEST ADD SWAP3 MLOAD AND PUSH32 0xFFFFFFFFFFFFFFFFFFFFFF000000000000000000000000000000000000000000 PUSH1 0xFF PUSH1 0xA0 SHL DUP5 SLOAD SWAP4 MLOAD ISZERO ISZERO PUSH1 0xA0 SHL AND SWAP3 AND OR OR SWAP1 SSTORE DUP5 MLOAD SWAP4 DUP5 SWAP3 DUP4 SWAP3 PUSH4 0x23B872DD PUSH1 0xE0 SHL DUP5 MSTORE ADDRESS SWAP1 CALLER SWAP1 DUP6 ADD PUSH1 0x40 SWAP2 SWAP5 SWAP4 SWAP3 SWAP5 PUSH1 0x60 DUP3 ADD SWAP6 PUSH1 0x1 PUSH1 0x1 PUSH1 0xA0 SHL SUB DUP1 SWAP3 AND DUP4 MSTORE AND PUSH1 0x20 DUP3 ADD MSTORE ADD MSTORE JUMP JUMPDEST SUB DUP2 DUP11 DUP11 GAS CALL SWAP1 DUP2 ISZERO PUSH2 0x2F6 JUMPI PUSH32 0xC387DBC55364FECE0C83FA65C865F1DCEF6AB6A86829E50446076911B9068681 SWAP4 SWAP3 SWAP2 PUSH2 0x29C SWAP2 DUP10 SWAP2 PUSH2 0x2C9 JUMPI JUMPDEST POP PUSH2 0x1623 JUMP JUMPDEST CALLER DUP8 MSTORE PUSH1 0x6 DUP3 MSTORE PUSH1 0x3 DUP2 DUP9 KECCAK256 ADD PUSH2 0x2B4 DUP7 DUP3 SLOAD PUSH2 0x137C JUMP JUMPDEST SWAP1 SSTORE PUSH2 0x2BF CALLER PUSH2 0x1B02 JUMP JUMPDEST MLOAD SWAP4 DUP5 MSTORE CALLER SWAP4 LOG4 DUP1 RETURN JUMPDEST PUSH2 0x2E9 SWAP2 POP DUP5 RETURNDATASIZE DUP7 GT PUSH2 0x2EF JUMPI JUMPDEST PUSH2 0x2E1 DUP2 DUP4 PUSH2 0x1342 JUMP JUMPDEST DUP2 ADD SWAP1 PUSH2 0x152A JUMP JUMPDEST CODESIZE PUSH2 0x296 JUMP JUMPDEST POP RETURNDATASIZE PUSH2 0x2D7 JUMP JUMPDEST DUP3 MLOAD RETURNDATASIZE DUP10 DUP3 RETURNDATACOPY RETURNDATASIZE SWAP1 REVERT JUMPDEST PUSH1 0x24 DUP14 PUSH1 0x21 DUP10 PUSH4 0x4E487B71 PUSH1 0xE0 SHL DUP4 MSTORE MSTORE REVERT JUMPDEST DUP3 DUP1 REVERT JUMPDEST POP SWAP1 CALLVALUE PUSH2 0x313 JUMPI PUSH1 0x20 CALLDATASIZE PUSH1 0x3 NOT ADD SLT PUSH2 0x313 JUMPI CALLDATALOAD SWAP2 PUSH1 0x7 SLOAD DUP4 LT ISZERO PUSH2 0x359 JUMPI POP PUSH1 0x1 PUSH1 0x1 PUSH1 0xA0 SHL SUB PUSH2 0x34A PUSH1 0x20 SWAP4 PUSH2 0x1277 JUMP JUMPDEST SWAP3 SWAP1 SLOAD SWAP1 MLOAD SWAP3 PUSH1 0x3 SHL SHR AND DUP2 MSTORE RETURN JUMPDEST DUP1 REVERT JUMPDEST POP CALLVALUE PUSH2 0x313 JUMPI PUSH1 0x20 SWAP1 DUP2 PUSH1 0x3 NOT CALLDATASIZE ADD SLT PUSH2 0x5B9 JUMPI DUP3 CALLDATALOAD SWAP3 DUP4 DUP6 MSTORE DUP1 DUP4 MSTORE DUP2 DUP6 KECCAK256 PUSH1 0x1 PUSH1 0x1 PUSH1 0xA0 SHL SUB SWAP1 DUP2 PUSH1 0x1 DUP3 ADD SLOAD AND SWAP1 DUP2 ISZERO PUSH2 0x577 JUMPI DUP4 DUP2 ADD DUP1 SLOAD SWAP3 PUSH1 0xFF DUP5 PUSH1 0xA0 SHR AND DUP7 DUP2 LT ISZERO PUSH2 0x564 JUMPI PUSH2 0x3B2 SWAP1 ISZERO PUSH2 0x14A6 JUMP JUMPDEST PUSH1 0x2 DUP4 ADD SWAP1 DUP2 SLOAD SWAP1 DUP7 DUP3 AND PUSH2 0x522 JUMPI CALLER EQ PUSH2 0x4E0 JUMPI PUSH1 0x1 PUSH1 0x1 PUSH1 0xA0 SHL SUB NOT AND CALLER SWAP1 DUP2 OR SWAP1 SWAP2 SSTORE PUSH1 0xFF PUSH1 0xA0 SHL NOT DUP5 AND PUSH21 0x10000000000000000000000000000000000000000 OR SWAP1 SWAP2 SSTORE PUSH1 0x3 SWAP1 SWAP2 ADD DUP1 SLOAD DUP7 MLOAD PUSH4 0x23B872DD PUSH1 0xE0 SHL DUP2 MSTORE SWAP6 DUP7 ADD SWAP3 DUP4 MSTORE ADDRESS PUSH1 0x20 DUP5 ADD MSTORE PUSH1 0x40 DUP4 ADD MSTORE SWAP4 SWAP3 DUP7 SWAP3 DUP5 SWAP3 SWAP1 SWAP2 DUP4 SWAP2 DUP12 SWAP2 SWAP1 DUP4 SWAP1 PUSH1 0x60 ADD SUB SWAP4 AND GAS CALL SWAP1 DUP2 ISZERO PUSH2 0x4D6 JUMPI PUSH1 0x3 SWAP3 PUSH2 0x456 PUSH2 0x467 SWAP6 SWAP4 PUSH1 0x6 SWAP4 DUP11 SWAP2 PUSH2 0x4BF JUMPI POP PUSH2 0x1623 JUMP JUMPDEST SLOAD SWAP5 CALLER DUP9 MSTORE MSTORE DUP6 KECCAK256 ADD SWAP2 DUP3 SLOAD PUSH2 0x137C JUMP JUMPDEST SWAP1 SSTORE PUSH2 0x472 CALLER PUSH2 0x1B02 JUMP JUMPDEST CALLER DUP2 PUSH32 0x1EB43AA8EF4D730D2F76AAE922AAFDBD064EFA3352F73FD40FA1D3BBEF4CD057 DUP5 DUP1 LOG3 PUSH32 0xB37FB54A76F874F0EC60D8CD7FFDCD72D64968A3B511F407F16CAFD9B50A7708 DUP3 DUP1 LOG2 DUP1 RETURN JUMPDEST PUSH2 0x2E9 SWAP2 POP DUP9 RETURNDATASIZE DUP11 GT PUSH2 0x2EF JUMPI PUSH2 0x2E1 DUP2 DUP4 PUSH2 0x1342 JUMP JUMPDEST DUP4 MLOAD RETURNDATASIZE DUP9 DUP3 RETURNDATACOPY RETURNDATASIZE SWAP1 REVERT JUMPDEST PUSH1 0x64 DUP8 DUP11 DUP11 MLOAD SWAP2 PUSH3 0x461BCD PUSH1 0xE5 SHL DUP4 MSTORE DUP3 ADD MSTORE PUSH1 0xB PUSH1 0x24 DUP3 ADD MSTORE PUSH32 0x53616D6520706C61796572000000000000000000000000000000000000000000 PUSH1 0x44 DUP3 ADD MSTORE REVERT JUMPDEST PUSH1 0x64 DUP9 DUP12 DUP12 MLOAD SWAP2 PUSH3 0x461BCD PUSH1 0xE5 SHL DUP4 MSTORE DUP3 ADD MSTORE PUSH1 0x6 PUSH1 0x24 DUP3 ADD MSTORE PUSH32 0x4A6F696E65640000000000000000000000000000000000000000000000000000 PUSH1 0x44 DUP3 ADD MSTORE REVERT JUMPDEST PUSH1 0x24 DUP12 PUSH1 0x21 DUP10 PUSH4 0x4E487B71 PUSH1 0xE0 SHL DUP4 MSTORE MSTORE REVERT JUMPDEST PUSH1 0x64 DUP5 DUP8 DUP8 MLOAD SWAP2 PUSH3 0x461BCD PUSH1 0xE5 SHL DUP4 MSTORE DUP3 ADD MSTORE PUSH1 0xC PUSH1 0x24 DUP3 ADD MSTORE PUSH32 0x4475656C206D697373696E670000000000000000000000000000000000000000 PUSH1 0x44 DUP3 ADD MSTORE REVERT JUMPDEST DUP4 DUP1 REVERT JUMPDEST POP SWAP1 CALLVALUE PUSH2 0x313 JUMPI DUP2 PUSH1 0x3 NOT CALLDATASIZE ADD SLT PUSH2 0x313 JUMPI DUP1 CALLDATALOAD SWAP1 PUSH2 0x5DA PUSH2 0x1237 JUMP JUMPDEST SWAP3 DUP3 DUP6 MSTORE PUSH1 0x20 DUP3 DUP2 MSTORE DUP2 DUP7 KECCAK256 SWAP1 PUSH1 0x1 PUSH1 0x1 PUSH1 0xA0 SHL SUB SWAP4 PUSH1 0x1 SWAP3 DUP6 DUP1 DUP6 DUP4 ADD SLOAD AND CALLER EQ SWAP2 DUP3 ISZERO PUSH2 0xA5B JUMPI JUMPDEST POP POP ISZERO PUSH2 0xA1A JUMPI DUP6 DUP9 MSTORE DUP1 DUP3 MSTORE DUP4 DUP9 KECCAK256 PUSH1 0xFF DUP3 DUP3 ADD SLOAD PUSH1 0xA0 SHR AND DUP3 DUP2 LT ISZERO PUSH2 0xA07 JUMPI DUP5 PUSH2 0x631 SWAP2 EQ PUSH2 0x16B9 JUMP JUMPDEST DUP4 DUP2 ADD SWAP4 DUP7 DUP1 DUP7 SLOAD AND SWAP10 AND SWAP9 DUP10 EQ DUP1 ISZERO PUSH2 0x9F8 JUMPI JUMPDEST PUSH2 0x64F SWAP1 PUSH2 0x1704 JUMP JUMPDEST DUP8 DUP11 MSTORE PUSH1 0x5 SWAP9 DUP10 DUP6 MSTORE DUP7 DUP12 KECCAK256 CALLER DUP13 MSTORE DUP6 MSTORE DUP7 DUP12 KECCAK256 SWAP1 PUSH1 0x1 PUSH1 0x1 PUSH1 0xA0 SHL SUB NOT SWAP2 DUP2 DUP4 DUP3 SLOAD AND OR SWAP1 SSTORE DUP12 DUP11 PUSH32 0xDF9E8954C1FE1DC40676CADB9B3E2D1EBEE0B2437C9DD6632CB289BA62A46EAB CALLER SWAP3 DUP1 LOG4 DUP3 DUP11 ADD SLOAD PUSH1 0xA0 SHR PUSH1 0xFF AND ISZERO PUSH2 0x6FC JUMPI POP POP POP POP DUP5 DUP8 MSTORE DUP6 DUP2 MSTORE DUP4 DUP4 DUP9 KECCAK256 SWAP3 SLOAD AND SWAP2 DUP3 DUP9 MSTORE DUP2 MSTORE DUP4 DUP4 DUP9 KECCAK256 SLOAD AND PUSH2 0x6D7 JUMPI JUMPDEST POP POP POP POP POP POP DUP1 RETURN JUMPDEST PUSH2 0x6F1 SWAP6 DUP6 DUP9 MSTORE DUP2 MSTORE DUP3 DUP8 KECCAK256 SWAP2 DUP8 MSTORE MSTORE DUP5 KECCAK256 SLOAD AND SWAP1 PUSH2 0x17F8 JUMP JUMPDEST CODESIZE DUP1 DUP1 DUP1 DUP1 DUP1 PUSH2 0x6CE JUMP JUMPDEST SWAP1 SWAP4 SWAP6 SWAP5 DUP9 DUP12 SWAP11 SWAP4 SWAP10 SWAP9 SWAP5 SWAP12 MSTORE DUP3 DUP8 MSTORE DUP4 DUP7 DUP12 KECCAK256 SWAP2 SLOAD AND DUP11 MSTORE DUP7 MSTORE DUP3 DUP6 DUP11 KECCAK256 SLOAD AND SWAP8 DUP8 DUP11 MSTORE DUP3 DUP8 MSTORE DUP4 PUSH1 0x2 DUP8 DUP13 KECCAK256 SWAP3 ADD SLOAD AND DUP11 MSTORE DUP7 MSTORE DUP3 DUP6 DUP11 KECCAK256 SLOAD AND DUP9 ISZERO ISZERO SWAP1 DUP2 PUSH2 0x9EE JUMPI JUMPDEST DUP2 PUSH2 0x9E4 JUMPI JUMPDEST POP PUSH2 0x75B JUMPI JUMPDEST POP POP POP POP POP POP POP POP SWAP1 POP DUP1 RETURN JUMPDEST DUP7 DUP10 MSTORE DUP10 DUP7 MSTORE DUP5 DUP10 KECCAK256 SWAP2 DUP11 DUP4 ADD SWAP1 DUP2 SLOAD PUSH1 0xFF DUP2 PUSH1 0xA0 SHR AND DUP14 DUP2 LT ISZERO PUSH2 0x9D0 JUMPI DUP8 PUSH2 0x785 SWAP2 EQ PUSH2 0x16B9 JUMP JUMPDEST PUSH1 0x3 DUP6 ADD SLOAD SWAP4 DUP5 DUP9 SHL SWAP5 DUP1 DUP7 DIV PUSH1 0x2 EQ SWAP1 ISZERO OR ISZERO PUSH2 0x9BC JUMPI DUP10 DUP15 SWAP4 DUP14 SWAP11 SWAP10 SWAP9 SWAP8 SWAP7 SWAP6 SWAP4 DUP16 DUP13 SWAP1 PUSH2 0x817 SWAP6 PUSH2 0x7C9 PUSH2 0x2710 PUSH2 0x7C1 PUSH1 0x2 SLOAD DUP14 PUSH2 0x174F JUMP JUMPDEST DIV DUP1 SWAP12 PUSH2 0x139F JUMP JUMPDEST SWAP15 DUP16 SWAP6 PUSH1 0x1 PUSH1 0xA1 SHL PUSH1 0xFF PUSH1 0xA0 SHL NOT DUP8 AND OR DUP11 SSTORE DUP13 ADD SWAP2 DUP3 SLOAD AND OR SWAP1 SSTORE DUP11 DUP14 MLOAD DUP1 SWAP8 DUP2 SWAP7 DUP3 SWAP6 PUSH4 0xA9059CBB PUSH1 0xE0 SHL SWAP13 DUP14 DUP6 MSTORE DUP5 ADD PUSH1 0x20 SWAP1 SWAP4 SWAP3 SWAP2 SWAP4 PUSH1 0x1 PUSH1 0x1 PUSH1 0xA0 SHL SUB PUSH1 0x40 DUP3 ADD SWAP6 AND DUP2 MSTORE ADD MSTORE JUMP JUMPDEST SUB SWAP4 AND GAS CALL SWAP1 DUP2 ISZERO PUSH2 0x9B2 JUMPI SWAP2 PUSH2 0x83C DUP8 SWAP7 SWAP6 SWAP5 SWAP3 DUP16 SWAP5 DUP14 SWAP6 SWAP2 PUSH2 0x995 JUMPI JUMPDEST POP PUSH2 0x17AD JUMP JUMPDEST DUP4 PUSH2 0x90C JUMPI JUMPDEST POP POP POP POP DUP1 DUP5 ADD SLOAD DUP3 AND DUP10 DUP2 SUB PUSH2 0x904 JUMPI POP PUSH1 0x2 ADD SLOAD AND JUMPDEST DUP8 DUP10 MSTORE PUSH1 0x6 DUP7 MSTORE DUP4 DUP10 KECCAK256 DUP1 SLOAD SWAP1 DUP5 DUP3 ADD DUP1 SWAP3 GT PUSH2 0x8F1 JUMPI SSTORE DUP8 DUP10 MSTORE PUSH1 0x6 DUP7 MSTORE PUSH1 0x2 DUP5 DUP11 KECCAK256 ADD PUSH2 0x88A DUP7 DUP3 SLOAD PUSH2 0x137C JUMP JUMPDEST SWAP1 SSTORE AND DUP8 MSTORE PUSH1 0x6 DUP5 MSTORE DUP1 DUP3 DUP9 KECCAK256 ADD DUP1 SLOAD SWAP2 DUP3 ADD DUP1 SWAP3 GT PUSH2 0x8DE JUMPI PUSH32 0x6128B48D5EC91F60DD9382C113490194411B22B09FC18481E66742E9A5428FEE SWAP6 SWAP7 SWAP8 SWAP9 POP SSTORE MLOAD SWAP1 DUP2 MSTORE LOG3 DUP1 CODESIZE DUP1 DUP1 DUP1 DUP1 DUP1 DUP1 DUP1 PUSH2 0x74E JUMP JUMPDEST PUSH1 0x24 DUP9 PUSH1 0x11 DUP12 PUSH4 0x4E487B71 PUSH1 0xE0 SHL DUP4 MSTORE MSTORE REVERT JUMPDEST PUSH1 0x24 DUP12 PUSH1 0x11 DUP15 PUSH4 0x4E487B71 PUSH1 0xE0 SHL DUP4 MSTORE MSTORE REVERT JUMPDEST SWAP2 POP POP PUSH2 0x85A JUMP JUMPDEST SWAP5 SWAP1 SWAP2 SWAP3 SWAP4 SWAP5 SLOAD AND DUP14 DUP14 DUP8 DUP10 SLOAD AND SWAP4 PUSH2 0x946 DUP12 MLOAD SWAP8 DUP9 SWAP7 DUP8 SWAP6 DUP7 SWAP5 DUP6 MSTORE DUP5 ADD PUSH1 0x20 SWAP1 SWAP4 SWAP3 SWAP2 SWAP4 PUSH1 0x1 PUSH1 0x1 PUSH1 0xA0 SHL SUB PUSH1 0x40 DUP3 ADD SWAP6 AND DUP2 MSTORE ADD MSTORE JUMP JUMPDEST SUB SWAP3 GAS CALL SWAP1 DUP2 ISZERO PUSH2 0x98B JUMPI DUP4 SWAP3 SWAP2 PUSH2 0x965 SWAP2 DUP13 SWAP2 PUSH2 0x96E JUMPI JUMPDEST POP PUSH2 0x1762 JUMP JUMPDEST CODESIZE DUP8 DUP2 DUP1 PUSH2 0x842 JUMP JUMPDEST PUSH2 0x985 SWAP2 POP DUP10 RETURNDATASIZE DUP12 GT PUSH2 0x2EF JUMPI PUSH2 0x2E1 DUP2 DUP4 PUSH2 0x1342 JUMP JUMPDEST CODESIZE PUSH2 0x95F JUMP JUMPDEST DUP6 MLOAD RETURNDATASIZE DUP13 DUP3 RETURNDATACOPY RETURNDATASIZE SWAP1 REVERT JUMPDEST PUSH2 0x9AC SWAP2 POP DUP6 RETURNDATASIZE DUP8 GT PUSH2 0x2EF JUMPI PUSH2 0x2E1 DUP2 DUP4 PUSH2 0x1342 JUMP JUMPDEST CODESIZE PUSH2 0x836 JUMP JUMPDEST DUP9 MLOAD RETURNDATASIZE DUP16 DUP3 RETURNDATACOPY RETURNDATASIZE SWAP1 REVERT JUMPDEST POP PUSH1 0x24 DUP13 PUSH1 0x11 DUP16 PUSH4 0x4E487B71 PUSH1 0xE0 SHL DUP4 MSTORE MSTORE REVERT JUMPDEST POP PUSH1 0x24 DUP13 PUSH1 0x21 DUP16 PUSH4 0x4E487B71 PUSH1 0xE0 SHL DUP4 MSTORE MSTORE REVERT JUMPDEST SWAP1 POP DUP9 EQ CODESIZE PUSH2 0x748 JUMP JUMPDEST DUP1 ISZERO ISZERO SWAP2 POP PUSH2 0x742 JUMP JUMPDEST POP PUSH1 0x2 DUP3 ADD SLOAD DUP8 AND DUP10 EQ PUSH2 0x646 JUMP JUMPDEST PUSH1 0x24 DUP11 PUSH1 0x21 DUP6 PUSH4 0x4E487B71 PUSH1 0xE0 SHL DUP4 MSTORE MSTORE REVERT JUMPDEST PUSH1 0x64 SWAP2 DUP5 MLOAD SWAP2 PUSH3 0x461BCD PUSH1 0xE5 SHL DUP4 MSTORE DUP3 ADD MSTORE PUSH1 0xC PUSH1 0x24 DUP3 ADD MSTORE PUSH32 0x4E6F74206120706C617965720000000000000000000000000000000000000000 PUSH1 0x44 DUP3 ADD MSTORE REVERT JUMPDEST PUSH1 0x2 SWAP2 SWAP3 POP ADD SLOAD AND CALLER EQ DUP6 CODESIZE PUSH2 0x604 JUMP JUMPDEST POP DUP3 SWAP1 CALLVALUE PUSH2 0xB15 JUMPI PUSH1 0x20 CALLDATASIZE PUSH1 0x3 NOT ADD SLT PUSH2 0xB15 JUMPI DUP3 CALLDATALOAD DUP3 MSTORE DUP3 PUSH1 0x20 MSTORE DUP1 DUP3 KECCAK256 SWAP2 DUP3 SLOAD SWAP3 PUSH1 0x1 PUSH1 0x1 PUSH1 0xA0 SHL SUB SWAP2 DUP3 DUP1 PUSH1 0x1 DUP5 ADD SLOAD AND SWAP5 DUP2 PUSH1 0x2 DUP6 ADD SLOAD AND PUSH1 0x3 DUP6 ADD SLOAD SWAP1 DUP10 DUP7 ADD SLOAD SWAP3 PUSH1 0x5 PUSH1 0xFF DUP6 PUSH1 0xA0 SHR AND SWAP8 ADD SLOAD SWAP9 DUP2 MLOAD SWAP11 DUP12 MSTORE PUSH1 0x20 DUP12 ADD MSTORE DUP10 ADD MSTORE PUSH1 0x60 DUP9 ADD MSTORE AND PUSH1 0x80 DUP7 ADD MSTORE DUP6 DUP3 LT ISZERO PUSH2 0xB02 JUMPI PUSH2 0x100 DUP6 PUSH1 0xFF DUP7 DUP7 DUP7 PUSH1 0xA0 DUP6 ADD MSTORE DUP2 AND PUSH1 0xC0 DUP5 ADD MSTORE PUSH1 0xA0 SHR AND ISZERO ISZERO PUSH1 0xE0 DUP3 ADD MSTORE RETURN JUMPDEST DUP1 PUSH1 0x21 DUP8 PUSH4 0x4E487B71 PUSH1 0xE0 SHL PUSH1 0x24 SWAP5 MSTORE MSTORE REVERT JUMPDEST POP DUP1 REVERT JUMPDEST DUP4 DUP3 CALLVALUE PUSH2 0xB15 JUMPI DUP2 PUSH1 0x3 NOT CALLDATASIZE ADD SLT PUSH2 0xB15 JUMPI PUSH1 0x20 SWAP1 PUSH1 0x1 PUSH1 0x1 PUSH1 0xA0 SHL SUB PUSH1 0x1 SLOAD AND SWAP1 MLOAD SWAP1 DUP2 MSTORE RETURN JUMPDEST DUP4 DUP3 CALLVALUE PUSH2 0xB15 JUMPI DUP2 PUSH1 0x3 NOT CALLDATASIZE ADD SLT PUSH2 0xB15 JUMPI PUSH1 0x20 SWAP1 PUSH1 0x1 PUSH1 0x1 PUSH1 0xA0 SHL SUB PUSH1 0x3 SLOAD AND SWAP1 MLOAD SWAP1 DUP2 MSTORE RETURN JUMPDEST DUP4 CALLVALUE PUSH2 0x359 JUMPI PUSH1 0x20 CALLDATASIZE PUSH1 0x3 NOT ADD SLT PUSH2 0x359 JUMPI PUSH2 0xB83 PUSH2 0x121C JUMP JUMPDEST PUSH1 0x1 PUSH1 0x1 PUSH1 0xA0 SHL SUB SWAP1 PUSH2 0xB9A DUP3 DUP5 SLOAD AND CALLER EQ PUSH2 0x12C4 JUMP JUMPDEST AND PUSH1 0x1 PUSH1 0x1 PUSH1 0xA0 SHL SUB NOT PUSH1 0x1 SLOAD AND OR PUSH1 0x1 SSTORE DUP1 RETURN JUMPDEST DUP4 DUP3 CALLVALUE PUSH2 0xB15 JUMPI DUP2 PUSH1 0x3 NOT CALLDATASIZE ADD SLT PUSH2 0xB15 JUMPI PUSH1 0x1 PUSH1 0x1 PUSH1 0xA0 SHL SUB PUSH1 0x20 SWAP3 SLOAD AND SWAP1 MLOAD SWAP1 DUP2 MSTORE RETURN JUMPDEST DUP4 DUP3 CALLVALUE PUSH2 0xB15 JUMPI PUSH1 0x20 CALLDATASIZE PUSH1 0x3 NOT ADD SLT PUSH2 0xB15 JUMPI DUP1 PUSH1 0x80 SWAP3 PUSH1 0x1 PUSH1 0x1 PUSH1 0xA0 SHL SUB PUSH2 0xBFC PUSH2 0x121C JUMP JUMPDEST AND DUP2 MSTORE PUSH1 0x6 PUSH1 0x20 MSTORE KECCAK256 SWAP1 DUP2 SLOAD SWAP2 PUSH1 0x1 DUP2 ADD SLOAD SWAP2 PUSH1 0x3 PUSH1 0x2 DUP4 ADD SLOAD SWAP3 ADD SLOAD SWAP3 DUP2 MLOAD SWAP5 DUP6 MSTORE PUSH1 0x20 DUP6 ADD MSTORE DUP4 ADD MSTORE PUSH1 0x60 DUP3 ADD MSTORE RETURN JUMPDEST POP SWAP1 CALLVALUE PUSH2 0x313 JUMPI PUSH1 0x20 CALLDATASIZE PUSH1 0x3 NOT ADD SLT PUSH2 0x313 JUMPI DUP1 CALLDATALOAD SWAP2 PUSH2 0xC59 PUSH1 0x1 PUSH1 0x1 PUSH1 0xA0 SHL SUB DUP6 SLOAD AND CALLER EQ PUSH2 0x12C4 JUMP JUMPDEST PUSH2 0x7D0 DUP4 GT PUSH2 0xC6A JUMPI POP POP PUSH1 0x2 SSTORE DUP1 RETURN JUMPDEST SWAP1 PUSH1 0x20 PUSH1 0x64 SWAP3 MLOAD SWAP2 PUSH3 0x461BCD PUSH1 0xE5 SHL DUP4 MSTORE DUP3 ADD MSTORE PUSH1 0xC PUSH1 0x24 DUP3 ADD MSTORE PUSH32 0x46656520746F6F20686967680000000000000000000000000000000000000000 PUSH1 0x44 DUP3 ADD MSTORE REVERT JUMPDEST POP SWAP2 SWAP1 CALLVALUE PUSH2 0xB15 JUMPI DUP3 PUSH1 0x3 NOT CALLDATASIZE ADD SLT PUSH2 0xB15 JUMPI DUP1 CALLDATALOAD PUSH2 0xCCA PUSH2 0x1237 JUMP JUMPDEST SWAP2 DUP2 DUP5 MSTORE DUP1 PUSH1 0x20 MSTORE DUP5 DUP5 KECCAK256 PUSH2 0xCE8 PUSH1 0xFF PUSH1 0x5 DUP4 ADD SLOAD PUSH1 0xA0 SHR AND PUSH2 0x166E JUMP JUMPDEST PUSH1 0xFF DUP3 DUP3 ADD SLOAD PUSH1 0xA0 SHR AND DUP3 DUP2 LT ISZERO PUSH2 0xDAE JUMPI PUSH1 0x1 PUSH2 0xD06 SWAP2 EQ PUSH2 0x16B9 JUMP JUMPDEST PUSH1 0x1 PUSH1 0x1 PUSH1 0xA0 SHL SUB PUSH2 0xD30 DUP2 PUSH1 0x1 DUP5 ADD SLOAD AND SWAP3 DUP3 DUP8 AND DUP4 DUP6 DUP3 EQ SWAP3 DUP4 ISZERO PUSH2 0xD9E JUMPI JUMPDEST POP POP POP PUSH2 0x1704 JUMP JUMPDEST DUP6 SLOAD AND CALLER EQ SWAP1 DUP2 ISZERO PUSH2 0xD94 JUMPI JUMPDEST POP ISZERO PUSH2 0xD51 JUMPI POP SWAP1 PUSH2 0xD4E SWAP2 PUSH2 0x17F8 JUMP JUMPDEST DUP1 RETURN JUMPDEST PUSH1 0x64 SWAP1 PUSH1 0x20 DUP7 MLOAD SWAP2 PUSH3 0x461BCD PUSH1 0xE5 SHL DUP4 MSTORE DUP3 ADD MSTORE PUSH1 0xE PUSH1 0x24 DUP3 ADD MSTORE PUSH32 0x4E6F7420617574686F72697A6564000000000000000000000000000000000000 PUSH1 0x44 DUP3 ADD MSTORE REVERT JUMPDEST SWAP1 POP CALLER EQ CODESIZE PUSH2 0xD3D JUMP JUMPDEST PUSH1 0x2 ADD SLOAD AND EQ SWAP1 POP CODESIZE DUP4 DUP2 PUSH2 0xD28 JUMP JUMPDEST PUSH1 0x24 DUP7 PUSH1 0x21 DUP6 PUSH4 0x4E487B71 PUSH1 0xE0 SHL DUP4 MSTORE MSTORE REVERT JUMPDEST POP SWAP1 CALLVALUE PUSH2 0x313 JUMPI PUSH1 0x1 SWAP1 DUP3 PUSH2 0xDD5 CALLDATASIZE PUSH2 0x124D JUMP JUMPDEST DUP3 DUP9 SWAP8 SWAP4 SWAP8 SWAP6 SWAP3 SWAP6 MSTORE DUP7 PUSH1 0x20 SWAP5 DUP6 SWAP3 DUP5 DUP5 MSTORE PUSH2 0xE02 DUP12 PUSH1 0x1 PUSH1 0x1 PUSH1 0xA0 SHL SUB SWAP11 DUP12 SWAP5 DUP6 SWAP3 KECCAK256 ADD SLOAD AND ISZERO PUSH2 0x1542 JUMP JUMPDEST PUSH2 0xE0D DUP9 ISZERO ISZERO PUSH2 0x158D JUMP JUMPDEST AND SWAP7 PUSH2 0xE1A DUP9 ISZERO ISZERO PUSH2 0x15D8 JUMP JUMPDEST DUP1 PUSH1 0x3 SLOAD AND DUP6 MLOAD SWAP1 PUSH2 0xE2B DUP3 PUSH2 0x130F JUMP JUMPDEST DUP4 DUP3 MSTORE DUP12 DUP6 DUP4 ADD CALLER DUP2 MSTORE DUP9 DUP5 ADD SWAP3 DUP4 MSTORE PUSH1 0x60 DUP5 ADD DUP12 DUP2 MSTORE PUSH1 0x80 DUP6 ADD SWAP4 DUP14 DUP6 MSTORE DUP11 PUSH1 0xA0 DUP8 ADD SWAP5 PUSH1 0x1 DUP7 MSTORE DUP12 PUSH1 0xC0 DUP10 ADD SWAP12 DUP3 DUP14 MSTORE PUSH1 0xE0 DUP11 ADD SWAP12 PUSH1 0x1 DUP14 MSTORE DUP4 MSTORE MSTORE KECCAK256 SWAP6 MLOAD DUP7 SSTORE DUP7 PUSH1 0x1 DUP8 ADD SWAP4 MLOAD AND SWAP3 PUSH1 0x1 PUSH1 0x1 PUSH1 0xA0 SHL SUB NOT SWAP4 DUP5 DUP3 SLOAD AND OR SWAP1 SSTORE DUP7 PUSH1 0x2 DUP8 ADD SWAP2 MLOAD AND DUP4 DUP3 SLOAD AND OR SWAP1 SSTORE MLOAD PUSH1 0x3 DUP6 ADD SSTORE DUP5 DUP9 DUP6 ADD SWAP4 MLOAD AND SWAP1 DUP4 SLOAD AND OR DUP3 SSTORE MLOAD SWAP1 DUP7 DUP3 LT ISZERO PUSH2 0x300 JUMPI SWAP3 PUSH1 0x5 DUP10 SWAP7 SWAP4 PUSH2 0x1E6 DUP13 SWAP8 SWAP5 PUSH2 0xECB SWAP11 SWAP8 PUSH2 0x14F1 JUMP JUMPDEST SUB DUP2 DUP11 DUP10 GAS CALL SWAP1 DUP2 ISZERO PUSH2 0x2F6 JUMPI SWAP2 PUSH2 0xF0D DUP8 SWAP5 SWAP3 PUSH32 0xB989F5BCAA268AC1F9F1798EDC2AB8B625696181778BDA6362B4A70F3D762BD7 SWAP5 DUP11 SWAP2 PUSH2 0x2C9 JUMPI POP PUSH2 0x1623 JUMP JUMPDEST CALLER DUP9 MSTORE PUSH1 0x6 DUP3 MSTORE PUSH1 0x3 DUP2 DUP10 KECCAK256 ADD PUSH2 0xF25 DUP7 DUP3 SLOAD PUSH2 0x137C JUMP JUMPDEST SWAP1 SSTORE MLOAD SWAP4 DUP5 MSTORE CALLER SWAP4 LOG4 PUSH32 0xB37FB54A76F874F0EC60D8CD7FFDCD72D64968A3B511F407F16CAFD9B50A7708 DUP3 DUP1 LOG2 DUP1 RETURN JUMPDEST DUP4 DUP3 CALLVALUE PUSH2 0xB15 JUMPI DUP2 PUSH1 0x3 NOT CALLDATASIZE ADD SLT PUSH2 0xB15 JUMPI PUSH1 0x20 SWAP1 PUSH1 0x2 SLOAD SWAP1 MLOAD SWAP1 DUP2 MSTORE RETURN JUMPDEST POP SWAP1 CALLVALUE PUSH2 0x313 JUMPI PUSH1 0x20 DUP1 PUSH1 0x3 NOT CALLDATASIZE ADD SLT PUSH2 0x5B9 JUMPI DUP2 CALLDATALOAD SWAP3 DUP4 DUP6 MSTORE DUP3 DUP3 MSTORE DUP1 DUP6 KECCAK256 PUSH1 0x1 PUSH1 0x1 PUSH1 0xA0 SHL SUB SWAP1 DUP2 PUSH1 0x1 DUP3 ADD SLOAD AND CALLER DUP2 SUB PUSH2 0x10E9 JUMPI DUP6 DUP3 ADD SWAP2 DUP3 SLOAD SWAP3 PUSH1 0xFF DUP5 PUSH1 0xA0 SHR AND DUP9 DUP2 LT ISZERO PUSH2 0x10D6 JUMPI PUSH1 0x3 DUP9 SWAP6 SWAP4 PUSH2 0x102B SWAP8 SWAP6 SWAP4 PUSH2 0xFD7 DUP15 SWAP5 ISZERO PUSH2 0x14A6 JUMP JUMPDEST PUSH21 0x30000000000000000000000000000000000000000 PUSH1 0xFF PUSH1 0xA0 SHL NOT DUP8 AND OR SWAP1 SSTORE ADD SLOAD SWAP4 DUP8 MLOAD DUP1 SWAP8 DUP2 SWAP7 DUP3 SWAP6 PUSH4 0xA9059CBB PUSH1 0xE0 SHL DUP5 MSTORE DUP14 DUP5 ADD PUSH1 0x20 SWAP1 SWAP4 SWAP3 SWAP2 SWAP4 PUSH1 0x1 PUSH1 0x1 PUSH1 0xA0 SHL SUB PUSH1 0x40 DUP3 ADD SWAP6 AND DUP2 MSTORE ADD MSTORE JUMP JUMPDEST SUB SWAP4 AND GAS CALL SWAP1 DUP2 ISZERO PUSH2 0x10CC JUMPI DUP7 SWAP2 PUSH2 0x10AF JUMPI JUMPDEST POP ISZERO PUSH2 0x106E JUMPI POP POP POP PUSH32 0x5D798F443A55745E766F01169ABBF30E321258C3AC925C948D1FAD2C068967E4 DUP3 DUP1 LOG2 DUP1 RETURN JUMPDEST PUSH1 0x64 SWAP4 POP MLOAD SWAP2 PUSH3 0x461BCD PUSH1 0xE5 SHL DUP4 MSTORE DUP3 ADD MSTORE PUSH1 0xD PUSH1 0x24 DUP3 ADD MSTORE PUSH32 0x726566756E64206661696C656400000000000000000000000000000000000000 PUSH1 0x44 DUP3 ADD MSTORE REVERT JUMPDEST PUSH2 0x10C6 SWAP2 POP DUP4 RETURNDATASIZE DUP6 GT PUSH2 0x2EF JUMPI PUSH2 0x2E1 DUP2 DUP4 PUSH2 0x1342 JUMP JUMPDEST CODESIZE PUSH2 0x103E JUMP JUMPDEST DUP3 MLOAD RETURNDATASIZE DUP9 DUP3 RETURNDATACOPY RETURNDATASIZE SWAP1 REVERT JUMPDEST PUSH1 0x24 DUP12 PUSH1 0x21 DUP12 PUSH4 0x4E487B71 PUSH1 0xE0 SHL DUP4 MSTORE MSTORE REVERT JUMPDEST PUSH1 0x64 DUP7 DUP7 DUP7 MLOAD SWAP2 PUSH3 0x461BCD PUSH1 0xE5 SHL DUP4 MSTORE DUP3 ADD MSTORE PUSH1 0xC PUSH1 0x24 DUP3 ADD MSTORE PUSH32 0x4F6E6C792063726561746F720000000000000000000000000000000000000000 PUSH1 0x44 DUP3 ADD MSTORE REVERT JUMPDEST POP SWAP1 CALLVALUE PUSH2 0x313 JUMPI DUP2 PUSH1 0x3 NOT CALLDATASIZE ADD SLT PUSH2 0x313 JUMPI PUSH2 0x114B SWAP1 PUSH1 0x24 CALLDATALOAD SWAP1 CALLDATALOAD PUSH2 0x13AC JUMP JUMPDEST DUP2 MLOAD SWAP3 DUP4 SWAP3 PUSH1 0x20 DUP1 DUP1 DUP7 ADD SWAP3 DUP2 DUP8 MSTORE DUP6 MLOAD DUP1 SWAP5 MSTORE DUP7 ADD SWAP5 ADD SWAP3 JUMPDEST DUP3 DUP2 LT PUSH2 0x1174 JUMPI POP POP POP POP SUB SWAP1 RETURN JUMPDEST DUP4 MLOAD PUSH1 0x1 PUSH1 0x1 PUSH1 0xA0 SHL SUB AND DUP6 MSTORE DUP7 SWAP6 POP SWAP4 DUP2 ADD SWAP4 SWAP3 DUP2 ADD SWAP3 PUSH1 0x1 ADD PUSH2 0x1165 JUMP JUMPDEST POP SWAP1 CALLVALUE PUSH2 0x313 JUMPI DUP2 PUSH1 0x3 NOT CALLDATASIZE ADD SLT PUSH2 0x313 JUMPI DUP2 PUSH1 0x20 SWAP4 PUSH2 0x11B2 PUSH2 0x1237 JUMP JUMPDEST SWAP3 CALLDATALOAD DUP2 MSTORE PUSH1 0x5 DUP6 MSTORE DUP2 DUP2 KECCAK256 PUSH1 0x1 PUSH1 0x1 PUSH1 0xA0 SHL SUB DUP1 SWAP5 AND DUP3 MSTORE DUP6 MSTORE KECCAK256 SLOAD AND SWAP1 MLOAD SWAP1 DUP2 MSTORE RETURN JUMPDEST DUP4 CALLVALUE PUSH2 0x359 JUMPI PUSH1 0x20 CALLDATASIZE PUSH1 0x3 NOT ADD SLT PUSH2 0x359 JUMPI PUSH2 0x11F0 PUSH2 0x121C JUMP JUMPDEST PUSH1 0x1 PUSH1 0x1 PUSH1 0xA0 SHL SUB SWAP1 PUSH2 0x1207 DUP3 DUP5 SLOAD AND CALLER EQ PUSH2 0x12C4 JUMP JUMPDEST AND PUSH1 0x1 PUSH1 0x1 PUSH1 0xA0 SHL SUB NOT PUSH1 0x3 SLOAD AND OR PUSH1 0x3 SSTORE DUP1 RETURN JUMPDEST PUSH1 0x4 CALLDATALOAD SWAP1 PUSH1 0x1 PUSH1 0x1 PUSH1 0xA0 SHL SUB DUP3 AND DUP3 SUB PUSH2 0x1232 JUMPI JUMP JUMPDEST PUSH1 0x0 DUP1 REVERT JUMPDEST PUSH1 0x24 CALLDATALOAD SWAP1 PUSH1 0x1 PUSH1 0x1 PUSH1 0xA0 SHL SUB DUP3 AND DUP3 SUB PUSH2 0x1232 JUMPI JUMP JUMPDEST PUSH1 0x60 SWAP1 PUSH1 0x3 NOT ADD SLT PUSH2 0x1232 JUMPI PUSH1 0x4 CALLDATALOAD SWAP1 PUSH1 0x24 CALLDATALOAD SWAP1 PUSH1 0x44 CALLDATALOAD PUSH1 0x1 PUSH1 0x1 PUSH1 0xA0 SHL SUB DUP2 AND DUP2 SUB PUSH2 0x1232 JUMPI SWAP1 JUMP JUMPDEST PUSH1 0x7 SLOAD DUP2 LT ISZERO PUSH2 0x12AE JUMPI PUSH1 0x7 PUSH1 0x0 MSTORE PUSH32 0xA66CC928B5EDB82AF9BD49922954155AB7B0942694BEA4CE44661D9A8736C688 ADD SWAP1 PUSH1 0x0 SWAP1 JUMP JUMPDEST PUSH4 0x4E487B71 PUSH1 0xE0 SHL PUSH1 0x0 MSTORE PUSH1 0x32 PUSH1 0x4 MSTORE PUSH1 0x24 PUSH1 0x0 REVERT JUMPDEST ISZERO PUSH2 0x12CB JUMPI JUMP JUMPDEST PUSH1 0x64 PUSH1 0x40 MLOAD PUSH3 0x461BCD PUSH1 0xE5 SHL DUP2 MSTORE PUSH1 0x20 PUSH1 0x4 DUP3 ADD MSTORE PUSH1 0x9 PUSH1 0x24 DUP3 ADD MSTORE PUSH32 0x4E6F74206F776E65720000000000000000000000000000000000000000000000 PUSH1 0x44 DUP3 ADD MSTORE REVERT JUMPDEST PUSH2 0x100 DUP2 ADD SWAP1 DUP2 LT PUSH8 0xFFFFFFFFFFFFFFFF DUP3 GT OR PUSH2 0x132C JUMPI PUSH1 0x40 MSTORE JUMP JUMPDEST PUSH4 0x4E487B71 PUSH1 0xE0 SHL PUSH1 0x0 MSTORE PUSH1 0x41 PUSH1 0x4 MSTORE PUSH1 0x24 PUSH1 0x0 REVERT JUMPDEST SWAP1 PUSH1 0x1F DUP1 NOT SWAP2 ADD AND DUP2 ADD SWAP1 DUP2 LT PUSH8 0xFFFFFFFFFFFFFFFF DUP3 GT OR PUSH2 0x132C JUMPI PUSH1 0x40 MSTORE JUMP JUMPDEST PUSH8 0xFFFFFFFFFFFFFFFF DUP2 GT PUSH2 0x132C JUMPI PUSH1 0x5 SHL PUSH1 0x20 ADD SWAP1 JUMP JUMPDEST SWAP2 SWAP1 DUP3 ADD DUP1 SWAP3 GT PUSH2 0x1389 JUMPI JUMP JUMPDEST PUSH4 0x4E487B71 PUSH1 0xE0 SHL PUSH1 0x0 MSTORE PUSH1 0x11 PUSH1 0x4 MSTORE PUSH1 0x24 PUSH1 0x0 REVERT JUMPDEST SWAP2 SWAP1 DUP3 SUB SWAP2 DUP3 GT PUSH2 0x1389 JUMPI JUMP JUMPDEST SWAP2 SWAP1 PUSH1 0x7 SLOAD SWAP1 DUP2 DUP5 LT ISZERO PUSH2 0x1479 JUMPI PUSH2 0x13D8 SWAP2 PUSH2 0x13C9 DUP6 SWAP3 DUP4 PUSH2 0x137C JUMP JUMPDEST SWAP1 DUP1 DUP3 GT PUSH2 0x1471 JUMPI JUMPDEST POP PUSH2 0x139F JUMP JUMPDEST SWAP2 PUSH2 0x13E2 DUP4 PUSH2 0x1364 JUMP JUMPDEST SWAP3 PUSH2 0x13F0 PUSH1 0x40 MLOAD SWAP5 DUP6 PUSH2 0x1342 JUMP JUMPDEST DUP1 DUP5 MSTORE PUSH2 0x13FC DUP2 PUSH2 0x1364 JUMP JUMPDEST PUSH1 0x20 SWAP5 SWAP1 PUSH1 0x1F NOT ADD CALLDATASIZE DUP7 DUP4 ADD CALLDATACOPY DUP1 SWAP5 PUSH1 0x0 SWAP4 PUSH1 0x0 JUMPDEST DUP5 DUP2 LT PUSH2 0x1420 JUMPI POP POP POP POP POP POP JUMP JUMPDEST PUSH2 0x1432 PUSH2 0x142D DUP3 DUP5 PUSH2 0x137C JUMP JUMPDEST PUSH2 0x1277 JUMP JUMPDEST SWAP1 SLOAD SWAP1 DUP6 MLOAD DUP4 LT ISZERO PUSH2 0x145D JUMPI PUSH1 0x3 SHL SHR PUSH1 0x1 PUSH1 0x1 PUSH1 0xA0 SHL SUB AND PUSH1 0x5 DUP3 SWAP1 SHL DUP6 ADD DUP5 ADD MSTORE PUSH1 0x1 ADD PUSH2 0x1411 JUMP JUMPDEST PUSH1 0x24 DUP9 PUSH4 0x4E487B71 PUSH1 0xE0 SHL DUP2 MSTORE PUSH1 0x32 PUSH1 0x4 MSTORE REVERT JUMPDEST SWAP1 POP CODESIZE PUSH2 0x13D2 JUMP JUMPDEST POP POP SWAP1 POP PUSH1 0x40 MLOAD PUSH1 0x20 DUP2 ADD DUP2 DUP2 LT PUSH8 0xFFFFFFFFFFFFFFFF DUP3 GT OR PUSH2 0x132C JUMPI PUSH1 0x40 MSTORE PUSH1 0x0 DUP2 MSTORE PUSH1 0x0 CALLDATASIZE DUP2 CALLDATACOPY SWAP1 JUMP JUMPDEST ISZERO PUSH2 0x14AD JUMPI JUMP JUMPDEST PUSH1 0x64 PUSH1 0x40 MLOAD PUSH3 0x461BCD PUSH1 0xE5 SHL DUP2 MSTORE PUSH1 0x20 PUSH1 0x4 DUP3 ADD MSTORE PUSH1 0x8 PUSH1 0x24 DUP3 ADD MSTORE PUSH32 0x4E6F74206F70656E000000000000000000000000000000000000000000000000 PUSH1 0x44 DUP3 ADD MSTORE REVERT JUMPDEST SWAP1 PUSH1 0x4 DUP2 LT ISZERO PUSH2 0x1514 JUMPI PUSH1 0xFF PUSH1 0xA0 SHL NOT PUSH1 0xFF PUSH1 0xA0 SHL DUP4 SLOAD SWAP3 PUSH1 0xA0 SHL AND SWAP2 AND OR SWAP1 SSTORE JUMP JUMPDEST PUSH4 0x4E487B71 PUSH1 0xE0 SHL PUSH1 0x0 MSTORE PUSH1 0x21 PUSH1 0x4 MSTORE PUSH1 0x24 PUSH1 0x0 REVERT JUMPDEST SWAP1 DUP2 PUSH1 0x20 SWAP2 SUB SLT PUSH2 0x1232 JUMPI MLOAD DUP1 ISZERO ISZERO DUP2 SUB PUSH2 0x1232 JUMPI SWAP1 JUMP JUMPDEST ISZERO PUSH2 0x1549 JUMPI JUMP JUMPDEST PUSH1 0x64 PUSH1 0x40 MLOAD PUSH3 0x461BCD PUSH1 0xE5 SHL DUP2 MSTORE PUSH1 0x20 PUSH1 0x4 DUP3 ADD MSTORE PUSH1 0xB PUSH1 0x24 DUP3 ADD MSTORE PUSH32 0x4475656C20657869737473000000000000000000000000000000000000000000 PUSH1 0x44 DUP3 ADD MSTORE REVERT JUMPDEST ISZERO PUSH2 0x1594 JUMPI JUMP JUMPDEST PUSH1 0x64 PUSH1 0x40 MLOAD PUSH3 0x461BCD PUSH1 0xE5 SHL DUP2 MSTORE PUSH1 0x20 PUSH1 0x4 DUP3 ADD MSTORE PUSH1 0x7 PUSH1 0x24 DUP3 ADD MSTORE PUSH32 0x5374616B653E3000000000000000000000000000000000000000000000000000 PUSH1 0x44 DUP3 ADD MSTORE REVERT JUMPDEST ISZERO PUSH2 0x15DF JUMPI JUMP JUMPDEST PUSH1 0x64 PUSH1 0x40 MLOAD PUSH3 0x461BCD PUSH1 0xE5 SHL DUP2 MSTORE PUSH1 0x20 PUSH1 0x4 DUP3 ADD MSTORE PUSH1 0xE PUSH1 0x24 DUP3 ADD MSTORE PUSH32 0x546F6B656E207265717569726564000000000000000000000000000000000000 PUSH1 0x44 DUP3 ADD MSTORE REVERT JUMPDEST ISZERO PUSH2 0x162A JUMPI JUMP JUMPDEST PUSH1 0x64 PUSH1 0x40 MLOAD PUSH3 0x461BCD PUSH1 0xE5 SHL DUP2 MSTORE PUSH1 0x20 PUSH1 0x4 DUP3 ADD MSTORE PUSH1 0x15 PUSH1 0x24 DUP3 ADD MSTORE PUSH32 0x7374616B65207472616E73666572206661696C65640000000000000000000000 PUSH1 0x44 DUP3 ADD MSTORE REVERT JUMPDEST ISZERO PUSH2 0x1675 JUMPI JUMP JUMPDEST PUSH1 0x64 PUSH1 0x40 MLOAD PUSH3 0x461BCD PUSH1 0xE5 SHL DUP2 MSTORE PUSH1 0x20 PUSH1 0x4 DUP3 ADD MSTORE PUSH1 0x11 PUSH1 0x24 DUP3 ADD MSTORE PUSH32 0x4E6F7420636F6D7075746572206475656C000000000000000000000000000000 PUSH1 0x44 DUP3 ADD MSTORE REVERT JUMPDEST ISZERO PUSH2 0x16C0 JUMPI JUMP JUMPDEST PUSH1 0x64 PUSH1 0x40 MLOAD PUSH3 0x461BCD PUSH1 0xE5 SHL DUP2 MSTORE PUSH1 0x20 PUSH1 0x4 DUP3 ADD MSTORE PUSH1 0xA PUSH1 0x24 DUP3 ADD MSTORE PUSH32 0x4E6F742061637469766500000000000000000000000000000000000000000000 PUSH1 0x44 DUP3 ADD MSTORE REVERT JUMPDEST ISZERO PUSH2 0x170B JUMPI JUMP JUMPDEST PUSH1 0x64 PUSH1 0x40 MLOAD PUSH3 0x461BCD PUSH1 0xE5 SHL DUP2 MSTORE PUSH1 0x20 PUSH1 0x4 DUP3 ADD MSTORE PUSH1 0xE PUSH1 0x24 DUP3 ADD MSTORE PUSH32 0x496E76616C69642077696E6E6572000000000000000000000000000000000000 PUSH1 0x44 DUP3 ADD MSTORE REVERT JUMPDEST DUP2 DUP2 MUL SWAP3 SWAP2 DUP2 ISZERO SWAP2 DUP5 DIV EQ OR ISZERO PUSH2 0x1389 JUMPI JUMP JUMPDEST ISZERO PUSH2 0x1769 JUMPI JUMP JUMPDEST PUSH1 0x64 PUSH1 0x40 MLOAD PUSH3 0x461BCD PUSH1 0xE5 SHL DUP2 MSTORE PUSH1 0x20 PUSH1 0x4 DUP3 ADD MSTORE PUSH1 0x13 PUSH1 0x24 DUP3 ADD MSTORE PUSH32 0x666565207472616E73666572206661696C656400000000000000000000000000 PUSH1 0x44 DUP3 ADD MSTORE REVERT JUMPDEST ISZERO PUSH2 0x17B4 JUMPI JUMP JUMPDEST PUSH1 0x64 PUSH1 0x40 MLOAD PUSH3 0x461BCD PUSH1 0xE5 SHL DUP2 MSTORE PUSH1 0x20 PUSH1 0x4 DUP3 ADD MSTORE PUSH1 0x15 PUSH1 0x24 DUP3 ADD MSTORE PUSH32 0x7072697A65207472616E73666572206661696C65640000000000000000000000 PUSH1 0x44 DUP3 ADD MSTORE REVERT JUMPDEST SWAP2 SWAP1 SWAP2 PUSH1 0x0 SWAP1 DUP1 DUP3 MSTORE PUSH1 0x4 SWAP4 PUSH1 0x20 SWAP1 DUP6 DUP3 MSTORE PUSH1 0x40 DUP1 DUP6 KECCAK256 SWAP5 DUP8 DUP7 ADD DUP1 SLOAD SWAP2 PUSH1 0xFF DUP4 PUSH1 0xA0 SHR AND SWAP5 DUP11 DUP7 LT ISZERO PUSH2 0x1AEF JUMPI PUSH1 0x1 DUP1 SWAP7 EQ PUSH2 0x1834 SWAP1 PUSH2 0x16B9 JUMP JUMPDEST DUP11 DUP7 DUP9 PUSH1 0x5 DUP13 ADD SWAP12 DUP13 SLOAD SWAP4 DUP5 PUSH1 0xA0 SHR PUSH1 0xFF AND PUSH2 0x184F SWAP1 PUSH2 0x166E JUMP JUMPDEST PUSH1 0xFF PUSH1 0xA0 SHL NOT DUP10 AND PUSH1 0x1 PUSH1 0xA1 SHL OR DUP9 SSTORE PUSH1 0x1 PUSH1 0x1 PUSH1 0xA0 SHL SUB DUP1 SWAP7 AND SWAP14 DUP15 PUSH1 0x1 PUSH1 0x1 PUSH1 0xA0 SHL SUB NOT DUP2 SWAP8 AND OR SWAP1 SSTORE PUSH1 0x3 DUP3 ADD SLOAD PUSH1 0x2 SLOAD PUSH2 0x188D SWAP1 DUP3 PUSH2 0x174F JUMP JUMPDEST PUSH2 0x2710 SWAP1 DIV SWAP1 DUP2 PUSH2 0x189D SWAP2 PUSH2 0x139F JUMP JUMPDEST SWAP12 DUP13 SWAP4 ADD SWAP6 DUP8 DUP8 SLOAD AND EQ SWAP10 DUP11 PUSH1 0x0 EQ PUSH2 0x19DC JUMPI POP POP DUP6 PUSH2 0x18F4 SWAP5 SWAP6 SWAP7 SWAP8 SWAP9 SLOAD AND SWAP1 DUP9 DUP9 DUP9 SLOAD AND SWAP2 DUP13 MLOAD SWAP7 DUP8 SWAP6 DUP7 SWAP5 DUP6 SWAP4 PUSH4 0xA9059CBB PUSH1 0xE0 SHL DUP6 MSTORE DUP5 ADD PUSH1 0x20 SWAP1 SWAP4 SWAP3 SWAP2 SWAP4 PUSH1 0x1 PUSH1 0x1 PUSH1 0xA0 SHL SUB PUSH1 0x40 DUP3 ADD SWAP6 AND DUP2 MSTORE ADD MSTORE JUMP JUMPDEST SUB SWAP3 GAS CALL SWAP1 DUP2 ISZERO PUSH2 0x19D2 JUMPI SWAP1 PUSH2 0x1910 SWAP2 DUP7 SWAP2 PUSH2 0x19BB JUMPI POP PUSH2 0x17AD JUMP JUMPDEST DUP3 DUP3 SLOAD AND DUP5 MSTORE PUSH1 0x6 DUP9 MSTORE DUP6 DUP5 KECCAK256 DUP1 SLOAD SWAP2 DUP3 ADD DUP1 SWAP3 GT PUSH2 0x19A8 JUMPI DUP11 SWAP12 SWAP13 POP DUP7 DUP11 SWAP12 SWAP7 SWAP3 SWAP6 PUSH32 0x9C2EA0F13A3509F96498872388F9A890949AF6263D737E43E106CF07A3B4660A SWAP6 DUP3 SWAP6 PUSH32 0x6128B48D5EC91F60DD9382C113490194411B22B09FC18481E66742E9A5428FEE SWAP14 SWAP9 PUSH1 0x2 SWAP6 SSTORE SLOAD AND DUP2 MSTORE PUSH1 0x6 DUP12 MSTORE KECCAK256 ADD PUSH2 0x1993 DUP9 DUP3 SLOAD PUSH2 0x137C JUMP JUMPDEST SWAP1 SSTORE JUMPDEST DUP2 MLOAD SWAP1 DUP8 DUP3 MSTORE DUP9 DUP3 ADD MSTORE LOG3 MLOAD SWAP1 DUP2 MSTORE LOG3 JUMP JUMPDEST PUSH1 0x24 DUP6 PUSH1 0x11 DUP16 PUSH4 0x4E487B71 PUSH1 0xE0 SHL DUP4 MSTORE MSTORE REVERT JUMPDEST PUSH2 0x9AC SWAP2 POP DUP11 RETURNDATASIZE DUP13 GT PUSH2 0x2EF JUMPI PUSH2 0x2E1 DUP2 DUP4 PUSH2 0x1342 JUMP JUMPDEST DUP8 MLOAD RETURNDATASIZE DUP8 DUP3 RETURNDATACOPY RETURNDATASIZE SWAP1 REVERT JUMPDEST SWAP2 SWAP5 SWAP9 POP DUP1 SWAP3 POP PUSH2 0x1A6D JUMPI JUMPDEST POP POP POP POP SLOAD AND DUP2 MSTORE PUSH1 0x6 DUP7 MSTORE DUP2 DUP5 DUP3 KECCAK256 ADD SWAP1 DUP2 SLOAD SWAP3 DUP4 ADD DUP1 SWAP4 GT PUSH2 0x1A5A JUMPI POP DUP8 SWAP9 SWAP10 POP DUP4 DUP8 SWAP9 SWAP4 PUSH32 0x6128B48D5EC91F60DD9382C113490194411B22B09FC18481E66742E9A5428FEE SWAP9 SWAP4 PUSH32 0x9C2EA0F13A3509F96498872388F9A890949AF6263D737E43E106CF07A3B4660A SWAP4 SSTORE PUSH2 0x1996 JUMP JUMPDEST DUP1 PUSH1 0x11 DUP13 PUSH4 0x4E487B71 PUSH1 0xE0 SHL PUSH1 0x24 SWAP5 MSTORE MSTORE REVERT JUMPDEST PUSH2 0x1AA8 SWAP4 DUP8 DUP8 DUP1 DUP12 SLOAD AND SWAP3 DUP14 MLOAD SWAP8 DUP9 SWAP7 DUP8 SWAP6 DUP7 SWAP4 PUSH4 0xA9059CBB PUSH1 0xE0 SHL DUP6 MSTORE DUP5 ADD PUSH1 0x20 SWAP1 SWAP4 SWAP3 SWAP2 SWAP4 PUSH1 0x1 PUSH1 0x1 PUSH1 0xA0 SHL SUB PUSH1 0x40 DUP3 ADD SWAP6 AND DUP2 MSTORE ADD MSTORE JUMP JUMPDEST SUB SWAP4 AND GAS CALL SWAP1 DUP2 ISZERO PUSH2 0x1AE5 JUMPI SWAP1 PUSH2 0x1AC5 SWAP2 DUP6 SWAP2 PUSH2 0x1ACE JUMPI POP PUSH2 0x1762 JUMP JUMPDEST DUP12 DUP9 CODESIZE DUP1 PUSH2 0x19E8 JUMP JUMPDEST PUSH2 0x985 SWAP2 POP DUP11 RETURNDATASIZE DUP13 GT PUSH2 0x2EF JUMPI PUSH2 0x2E1 DUP2 DUP4 PUSH2 0x1342 JUMP JUMPDEST DUP8 MLOAD RETURNDATASIZE DUP7 DUP3 RETURNDATACOPY RETURNDATASIZE SWAP1 REVERT JUMPDEST PUSH1 0x24 DUP3 PUSH1 0x21 DUP14 PUSH4 0x4E487B71 PUSH1 0xE0 SHL DUP4 MSTORE MSTORE REVERT JUMPDEST PUSH1 0x1 PUSH1 0x1 PUSH1 0xA0 SHL SUB DUP1 SWAP2 AND DUP1 PUSH1 0x0 MSTORE PUSH1 0x8 PUSH1 0x20 MSTORE PUSH1 0x40 PUSH1 0x0 KECCAK256 DUP1 SLOAD PUSH1 0xFF DUP2 AND ISZERO PUSH2 0x1B2D JUMPI JUMPDEST POP POP POP POP JUMP JUMPDEST PUSH1 0xFF NOT AND PUSH1 0x1 OR SWAP1 SSTORE PUSH1 0x7 SLOAD PUSH9 0x10000000000000000 DUP2 LT ISZERO PUSH2 0x132C JUMPI DUP1 PUSH1 0x1 PUSH2 0x1B5A SWAP3 ADD PUSH1 0x7 SSTORE PUSH2 0x1277 JUMP JUMPDEST SWAP1 SWAP3 DUP4 SLOAD SWAP2 PUSH1 0x3 SHL SWAP3 DUP4 SHL SWAP3 SHL NOT AND OR SWAP1 SSTORE CODESIZE DUP1 DUP1 DUP1 PUSH2 0x1B27 JUMP INVALID LOG2 PUSH5 0x6970667358 0x22 SLT KECCAK256 PUSH23 0xD8EBBC83421104F1474B66A8965828D42F2FD88A07265F 0xC4 0xBE 0xDE DUP1 DUP6 0xC7 EXP RETURNDATASIZE PUSH5 0x736F6C6343 STOP ADDMOD XOR STOP CALLER "},"methodIdentifiers":{"cancelDuel(bytes32)":"123fa3b6","computerOpponent()":"ac7be06f","confirmResult(bytes32,address)":"d9c88cf7","confirmations(bytes32,address)":"0c4ecab4","createComputerDuel(bytes32,uint256,address)":"3709e08f","createDuel(bytes32,uint256,address)":"fb39fb52","duels(bytes32)":"d18aae70","feeBps()":"24a9d853","feeCollector()":"c415b95c","finishComputerDuel(bytes32,address)":"6ca81ff0","getPlayers(uint256,uint256)":"0d2dce22","joinDuel(bytes32)":"ed5eb77a","owner()":"8da5cb5b","players(uint256)":"f71d96cb","setComputerOpponent(address)":"04fe738a","setFeeBps(uint256)":"72c27b62","setFeeCollector(address)":"a42dce80","stats(address)":"8bcdcbf3"}}}}}