{"contracts/DuelManagerV2.sol":{"DuelManagerV2":{"abi":[{"inputs":[{"internalType":"address","name":"_feeCollector","type":"address"},{"internalType":"uint256","name":"_feeBps","type":"uint256"}],"stateMutability":"nonpayable","type":"constructor"},{"anonymous":false,"inputs":[{"indexed":true,"internalType":"bytes32","name":"id","type":"bytes32"}],"name":"DuelCancelled","type":"event"},{"anonymous":false,"inputs":[{"indexed":true,"internalType":"bytes32","name":"id","type":"bytes32"},{"indexed":true,"internalType":"address","name":"player1","type":"address"},{"indexed":false,"internalType":"uint256","name":"stake","type":"uint256"},{"indexed":true,"internalType":"address","name":"token","type":"address"}],"name":"DuelCreated","type":"event"},{"anonymous":false,"inputs":[{"indexed":true,"internalType":"bytes32","name":"id","type":"bytes32"},{"indexed":true,"internalType":"address","name":"winner","type":"address"},{"indexed":false,"internalType":"uint256","name":"prize","type":"uint256"},{"indexed":false,"internalType":"uint256","name":"fee","type":"uint256"}],"name":"DuelFinished","type":"event"},{"anonymous":false,"inputs":[{"indexed":true,"internalType":"bytes32","name":"id","type":"bytes32"},{"indexed":true,"internalType":"address","name":"player2","type":"address"}],"name":"DuelJoined","type":"event"},{"anonymous":false,"inputs":[{"indexed":true,"internalType":"bytes32","name":"id","type":"bytes32"}],"name":"DuelStarted","type":"event"},{"anonymous":false,"inputs":[{"indexed":true,"internalType":"address","name":"player","type":"address"}],"name":"PlayerVerified","type":"event"},{"anonymous":false,"inputs":[{"indexed":true,"internalType":"bytes32","name":"id","type":"bytes32"},{"indexed":true,"internalType":"address","name":"player","type":"address"},{"indexed":true,"internalType":"address","name":"winner","type":"address"}],"name":"ResultConfirmed","type":"event"},{"inputs":[{"internalType":"address[]","name":"playerList","type":"address[]"}],"name":"batchRegisterVerified","outputs":[],"stateMutability":"nonpayable","type":"function"},{"inputs":[{"internalType":"bytes32","name":"id","type":"bytes32"}],"name":"cancelDuel","outputs":[],"stateMutability":"nonpayable","type":"function"},{"inputs":[{"internalType":"bytes32","name":"id","type":"bytes32"},{"internalType":"address","name":"winner","type":"address"}],"name":"confirmResult","outputs":[],"stateMutability":"nonpayable","type":"function"},{"inputs":[{"internalType":"bytes32","name":"","type":"bytes32"},{"internalType":"address","name":"","type":"address"}],"name":"confirmations","outputs":[{"internalType":"address","name":"","type":"address"}],"stateMutability":"view","type":"function"},{"inputs":[{"internalType":"bytes32","name":"id","type":"bytes32"},{"internalType":"uint256","name":"stake","type":"uint256"},{"internalType":"address","name":"token","type":"address"}],"name":"createDuel","outputs":[],"stateMutability":"nonpayable","type":"function"},{"inputs":[{"internalType":"bytes32","name":"","type":"bytes32"}],"name":"duels","outputs":[{"internalType":"bytes32","name":"id","type":"bytes32"},{"internalType":"address","name":"player1","type":"address"},{"internalType":"address","name":"player2","type":"address"},{"internalType":"uint128","name":"stake","type":"uint128"},{"internalType":"address","name":"token","type":"address"},{"internalType":"uint8","name":"status","type":"uint8"},{"internalType":"address","name":"winner","type":"address"},{"internalType":"uint64","name":"createdAt","type":"uint64"},{"internalType":"uint64","name":"finishedAt","type":"uint64"}],"stateMutability":"view","type":"function"},{"inputs":[],"name":"feeBps","outputs":[{"internalType":"uint256","name":"","type":"uint256"}],"stateMutability":"view","type":"function"},{"inputs":[],"name":"feeCollector","outputs":[{"internalType":"address","name":"","type":"address"}],"stateMutability":"view","type":"function"},{"inputs":[{"internalType":"bytes32","name":"id","type":"bytes32"},{"internalType":"address","name":"winner","type":"address"}],"name":"forceFinishDuel","outputs":[],"stateMutability":"nonpayable","type":"function"},{"inputs":[{"internalType":"bytes32","name":"id","type":"bytes32"}],"name":"getDuel","outputs":[{"components":[{"internalType":"bytes32","name":"id","type":"bytes32"},{"internalType":"address","name":"player1","type":"address"},{"internalType":"address","name":"player2","type":"address"},{"internalType":"uint128","name":"stake","type":"uint128"},{"internalType":"address","name":"token","type":"address"},{"internalType":"uint8","name":"status","type":"uint8"},{"internalType":"address","name":"winner","type":"address"},{"internalType":"uint64","name":"createdAt","type":"uint64"},{"internalType":"uint64","name":"finishedAt","type":"uint64"}],"internalType":"struct DuelManagerV2.Duel","name":"","type":"tuple"}],"stateMutability":"view","type":"function"},{"inputs":[{"internalType":"address","name":"player","type":"address"}],"name":"getPlayerStats","outputs":[{"components":[{"internalType":"uint128","name":"wins","type":"uint128"},{"internalType":"uint128","name":"losses","type":"uint128"},{"internalType":"uint192","name":"winnings","type":"uint192"},{"internalType":"uint192","name":"totalStaked","type":"uint192"}],"internalType":"struct DuelManagerV2.PlayerStats","name":"","type":"tuple"}],"stateMutability":"view","type":"function"},{"inputs":[{"internalType":"uint256","name":"start","type":"uint256"},{"internalType":"uint256","name":"count","type":"uint256"}],"name":"getPlayers","outputs":[{"internalType":"address[]","name":"","type":"address[]"}],"stateMutability":"view","type":"function"},{"inputs":[{"internalType":"address","name":"player","type":"address"}],"name":"isVerified","outputs":[{"internalType":"bool","name":"","type":"bool"}],"stateMutability":"view","type":"function"},{"inputs":[{"internalType":"bytes32","name":"id","type":"bytes32"}],"name":"joinDuel","outputs":[],"stateMutability":"nonpayable","type":"function"},{"inputs":[],"name":"owner","outputs":[{"internalType":"address","name":"","type":"address"}],"stateMutability":"view","type":"function"},{"inputs":[{"internalType":"uint256","name":"","type":"uint256"}],"name":"players","outputs":[{"internalType":"address","name":"","type":"address"}],"stateMutability":"view","type":"function"},{"inputs":[{"internalType":"address","name":"player","type":"address"}],"name":"registerVerifiedPlayer","outputs":[],"stateMutability":"nonpayable","type":"function"},{"inputs":[{"internalType":"address","name":"","type":"address"}],"name":"stats","outputs":[{"internalType":"uint128","name":"wins","type":"uint128"},{"internalType":"uint128","name":"losses","type":"uint128"},{"internalType":"uint192","name":"winnings","type":"uint192"},{"internalType":"uint192","name":"totalStaked","type":"uint192"}],"stateMutability":"view","type":"function"},{"inputs":[{"internalType":"address","name":"","type":"address"}],"name":"verifiedPlayers","outputs":[{"internalType":"bool","name":"","type":"bool"}],"stateMutability":"view","type":"function"}],"evm":{"bytecode":{"linkReferences":{},"object":"60e0346100f657601f611d9638819003918201601f19168301916001600160401b038311848410176100fb5780849260409485528339810103126100f65780516001600160a01b038116918282036100f6576020015133608052916100f15750335b60a0526107d081116100bd5760c052604051611c84908161011282396080518181816108a701528181610c1d01528181610ce80152610e07015260a051818181610b990152611a53015260c0518181816110f8015261180c0152f35b60405162461bcd60e51b815260206004820152600c60248201526b08ccaca40e8dede40d0d2ced60a31b6044820152606490fd5b610061565b600080fd5b634e487b7160e01b600052604160045260246000fdfe60808060405260048036101561001457600080fd5b60003560e01c9182630c4ecab41461130c575081630d2dce221461129f578163123fa3b61461111b57816324a9d853146110e05781634fd66eae1461102257816356c50e3f14610e985781638bcdcbf314610e2b5781638da5cb5b14610de7578163b4e1a26814610cb9578163b9209e33146100f2578163c0938ad414610bbd578163c415b95c14610b79578163d18aae7014610ace578163d9c88cf71461090f578163e07107491461087f578163ed5eb77a1461058a578163f71d96cb1461054b578163fb39fb5214610136575063fb3a6acc146100f257600080fd5b34610131576020366003190112610131576001600160a01b03610113611367565b166000526003602052602060ff604060002054166040519015158152f35b600080fd5b346101315760603660031901126101315760243590604435916001600160a01b0383168093036101315733600052600360205261017a60ff604060002054166116e4565b813560005260006020526001600160a01b036001604060002001541661050757801515806104f6575b156104b257821561046e576040516101ba816113fc565b82358152336020820152600060408201526001600160801b0382166060820152836080820152600060a0820152600060c082015267ffffffffffffffff421660e082015260006101008201528235600052600060205267ffffffffffffffff6101006006604060002084518155600181016001600160a01b036020870151169073ffffffffffffffffffffffffffffffffffffffff19918282541617905560028201906001600160a01b0360408801511690825416179055600381016001600160801b036060870151166fffffffffffffffffffffffffffffffff198254161790558681016001600160a01b036080870151168154907fffffffffffffffffffffff00000000000000000000000000000000000000000074ff000000000000000000000000000000000000000060a08a015160a01b16921617179055600581016001600160a01b0360c0870151168154907fffffffff000000000000000000000000000000000000000000000000000000007bffffffffffffffff000000000000000000000000000000000000000060e08a015160a01b16921617179055019201511667ffffffffffffffff198254161790556040516323b872dd60e01b815233838201523060248201528160448201526020816064816000885af18015610462576103ae91600091610433575b5061172f565b336000526002602052604060002060026001600160c01b0391019077ffffffffffffffffffffffffffffffffffffffffffffffff198254916103f481861682851661177a565b16911617905561040333611b77565b6040519081527fc387dbc55364fece0c83fa65c865f1dcef6ab6a86829e50446076911b9068681602033933592a4005b610455915060203d60201161045b575b61044d8183611419565b8101906115c7565b856103a8565b503d610443565b6040513d6000823e3d90fd5b60648260206040519162461bcd60e51b8352820152600e60248201527f546f6b656e2072657175697265640000000000000000000000000000000000006044820152fd5b60648260206040519162461bcd60e51b8352820152600d60248201527f496e76616c6964207374616b65000000000000000000000000000000000000006044820152fd5b506001600160801b038111156101a3565b60648260206040519162461bcd60e51b8352820152600b60248201527f4475656c206578697374730000000000000000000000000000000000000000006044820152fd5b346101315760203660031901126101315780359054811015610131576001600160a01b0361057a60209261137d565b9190546040519260031b1c168152f35b34610131576020806003193601126101315781359133600052600382526105b860ff604060002054166116e4565b82600052600082526040600020906001600160a01b03928360018401541692831561083c578281018054946105f360ff8760a01c161561157c565b60028301908154908882166107f9578033146107b6576000526003855260ff6040600020541615610773579184939160039373ffffffffffffffffffffffffffffffffffffffff193391161790557401000000000000000000000000000000000000000060ff60a01b198816179055019460646001600160801b03946000868954169360405198899586946323b872dd60e01b865233908601523060248601526044850152165af1908115610462576106b8600294928593600091610756575061172f565b3360005252604060002092541691019077ffffffffffffffffffffffffffffffffffffffffffffffff198254916106f96001600160c01b039182851661177a565b16911617905561070833611b77565b33817f1eb43aa8ef4d730d2f76aae922aafdbd064efa3352f73fd40fa1d3bbef4cd057600080a37fb37fb54a76f874f0ec60d8cd7ffdcd72d64968a3b511f407f16cafd9b50a7708600080a2005b61076d9150833d851161045b5761044d8183611419565b886103a8565b606486866040519162461bcd60e51b8352820152601460248201527f506c6179657231206e6f742076657269666965640000000000000000000000006044820152fd5b606487876040519162461bcd60e51b8352820152600b60248201527f53616d6520706c617965720000000000000000000000000000000000000000006044820152fd5b606487876040519162461bcd60e51b8352820152600660248201527f4a6f696e656400000000000000000000000000000000000000000000000000006044820152fd5b606483836040519162461bcd60e51b8352820152600c60248201527f4475656c206d697373696e6700000000000000000000000000000000000000006044820152fd5b3461013157602036600319011261013157610898611367565b6001600160a01b03906108ce827f00000000000000000000000000000000000000000000000000000000000000001633146115df565b168060005260036020526040600020600160ff198254161790557f35e92767eff4a063167fc37f0df63960429cd730dca0d179d48253fc2aa0d15f600080a2005b346101315760403660031901126101315780359061092b611351565b82600052602091600083526040600020926001600160a01b0392600194848087830154163314918215610abd575b505015610a7a5785600052600082526109818560ff60406000209586015460a01c161461162a565b84830190848083541691169081148015610a6b575b61099f90611675565b86600052858352604060002033600052835260406000208173ffffffffffffffffffffffffffffffffffffffff1982541617905533877fdf9e8954c1fe1dc40676cadb9b3e2d1ebee0b2437c9dd6632cb289ba62a46eab600080a485600052848252836040600020915416600052815282604060002054169385600052815282600260406000209301541660005252604060002054168115159081610a61575b81610a57575b50610a4c57005b610a55916117ad565b005b9050811483610a45565b8015159150610a3f565b50600284015485168114610996565b606483836040519162461bcd60e51b8352820152600c60248201527f4e6f74206120706c6179657200000000000000000000000000000000000000006044820152fd5b600291925001541633148488610959565b3461013157602036600319011261013157806101209135600052600060205260406000209060068254926001600160a01b0360ff816001840154169482600285015416906001600160801b03600386015416908501549160058601549567ffffffffffffffff97889101541697604051998a5260208a015260408901526060880152828116608088015260a01c1660a0860152811660c085015260a01c1660e0830152610100820152f35b346101315760003660031901126101315760206040516001600160a01b037f0000000000000000000000000000000000000000000000000000000000000000168152f35b346101315760209060206003193601126101315780359067ffffffffffffffff90818311610131573660238401121561013157820135908111610131576024820191602436918360051b010111610131576001600160a01b0390610c44827f00000000000000000000000000000000000000000000000000000000000000001633146115df565b60005b818110610c5057005b8083610c67610c6260019486896116c0565b6116d0565b166000526003865260406000208260ff1982541617905583610c8d610c628386896116c0565b167f35e92767eff4a063167fc37f0df63960429cd730dca0d179d48253fc2aa0d15f600080a201610c47565b34610131576040366003190112610131578035610cd4611351565b906005610e106001600160a01b03610d0f817f00000000000000000000000000000000000000000000000000000000000000001633146115df565b836000526000602052610d52604060002091610d36600160ff8a86015460a01c161461162a565b80600184015416818816908114918215610dd7575b5050611675565b67ffffffffffffffff928391015460a01c1601818111610dc25716421115610d7e57610a5592506117ad565b60648360206040519162461bcd60e51b8352820152600960248201527f546f6f206561726c7900000000000000000000000000000000000000000000006044820152fd5b601185634e487b7160e01b6000525260246000fd5b6002850154161490508880610d4b565b346101315760003660031901126101315760206040516001600160a01b037f0000000000000000000000000000000000000000000000000000000000000000168152f35b34610131576020366003190112610131576001600160a01b03610e4c611367565b166000526002602052608060406000208054906001600160c01b036002816001840154169201541690604051926001600160801b0381168452841c602084015260408301526060820152f35b3461013157602036600319011261013157610120906000610100604051610ebe816113fc565b8281528260208201528260408201528260608201528260808201528260a08201528260c08201528260e082015201528035600052600060205267ffffffffffffffff610100604060002082600660405192610f18846113fc565b60ff8154978886526001600160a01b0360018401541660208701526001600160a01b0360028401541660408701526001600160801b0360038401541660608701528201546001600160a01b038116608087015260a01c1660a08501528260058201546001600160a01b03811660c087015260a01c1660e0850152015416828201526040519384526001600160a01b0360208201511660208501526001600160a01b0360408201511660408501526001600160801b0360608201511660608501526001600160a01b03608082015116608085015260ff60a08201511660a08501526001600160a01b0360c08201511660c08501528260e08201511660e0850152015116610100820152f35b34610131576020366003190112610131576001600160a01b03611043611367565b60006060604051611053816113ca565b828152826020820152826040820152015216600052600260205260806040600020604051611080816113ca565b8154906001600160801b0391828116938483526020830191861c82526001600160c01b0393849260608460028160018701541695604089019687520154169501948552604051968752511660208601525116604084015251166060820152f35b346101315760003660031901126101315760206040517f00000000000000000000000000000000000000000000000000000000000000008152f35b34610131576020908160031936011261013157803591826000526000815260406000206001600160a01b038060018301541633810361125c57906044849260006001600160801b0360038988019788549861117c60ff8b60a01c161561157c565b7403000000000000000000000000000000000000000060ff60a01b198b1617905501541693604051968795869463a9059cbb60e01b86528b8601526024850152165af19081156104625760009161123f575b50156111fc57827f5d798f443a55745e766f01169abbf30e321258c3ac925c948d1fad2c068967e4600080a2005b606492506040519162461bcd60e51b8352820152600d60248201527f526566756e64206661696c6564000000000000000000000000000000000000006044820152fd5b6112569150823d841161045b5761044d8183611419565b846111ce565b606485856040519162461bcd60e51b8352820152600c60248201527f4f6e6c792063726561746f7200000000000000000000000000000000000000006044820152fd5b34610131576040366003190112610131576112be906024359035611483565b6040518091602080830160208452825180915260206040850193019160005b8281106112ec57505050500390f35b83516001600160a01b0316855286955093810193928101926001016112dd565b3461013157604036600319011261013157602091611328611351565b90356000526001835260406000206001600160a01b038092166000528352604060002054168152f35b602435906001600160a01b038216820361013157565b600435906001600160a01b038216820361013157565b6004548110156113b45760046000527f8a35acfbc15ff81a39ae7d344fd709f28e8600b4aa8c65c6b64bfe7fe36bd19b0190600090565b634e487b7160e01b600052603260045260246000fd5b6080810190811067ffffffffffffffff8211176113e657604052565b634e487b7160e01b600052604160045260246000fd5b610120810190811067ffffffffffffffff8211176113e657604052565b90601f8019910116810190811067ffffffffffffffff8211176113e657604052565b67ffffffffffffffff81116113e65760051b60200190565b9190820180921161146057565b634e487b7160e01b600052601160045260246000fd5b9190820391821161146057565b90600490600454908184101561154f576114b1916114a2859283611453565b90808211611547575b50611476565b6114ba8161143b565b926114c86040519485611419565b8184526114d48261143b565b60209190601f1901368684013760009060005b8481106114f75750505050505090565b6115096115048284611453565b61137d565b90549088518310156115345760031b1c6001600160a01b0316600582901b88018501526001016114e7565b60248560328a634e487b7160e01b835252fd5b9050386114ab565b505050506040516020810181811067ffffffffffffffff8211176113e65760405260008152600036813790565b1561158357565b606460405162461bcd60e51b815260206004820152600860248201527f4e6f74206f70656e0000000000000000000000000000000000000000000000006044820152fd5b90816020910312610131575180151581036101315790565b156115e657565b606460405162461bcd60e51b815260206004820152600960248201527f4e6f74206f776e657200000000000000000000000000000000000000000000006044820152fd5b1561163157565b606460405162461bcd60e51b815260206004820152600a60248201527f4e6f7420616374697665000000000000000000000000000000000000000000006044820152fd5b1561167c57565b606460405162461bcd60e51b815260206004820152600e60248201527f496e76616c69642077696e6e65720000000000000000000000000000000000006044820152fd5b91908110156113b45760051b0190565b356001600160a01b03811681036101315790565b156116eb57565b606460405162461bcd60e51b815260206004820152600c60248201527f4e6f7420766572696669656400000000000000000000000000000000000000006044820152fd5b1561173657565b606460405162461bcd60e51b815260206004820152600f60248201527f5472616e73666572206661696c656400000000000000000000000000000000006044820152fd5b9190916001600160c01b038080941691160191821161146057565b9060016001600160801b038093160191821161146057565b8060005260006020526040600020916004830154926117d4600160ff8660a01c161461162a565b6003810154907001fffffffffffffffffffffffffffffffe6001600160801b0383169260011b169180830460021490151715611460577f0000000000000000000000000000000000000000000000000000000000000000918281029281840414811517156114605761184b90612710840490611476565b857402000000000000000000000000000000000000000060ff60a01b198398161760048401556001600160a01b03851673ffffffffffffffffffffffffffffffffffffffff196005850154161760058401556006830167ffffffffffffffff421667ffffffffffffffff19825416179055602060405180928160006001600160a01b03826118fe63a9059cbb60e01b998a83528d60048401602090939291936001600160a01b0360408201951681520152565b0393165af190811561046257600091611b58575b5015611b14576127108304611a2a575b507f41ab25b76c03860697e1b4b4d5726e0ff60f9d93dd8115c0915bc5dd0932796392612710604093836001600160a01b03600181960154168086861614600014611a2357506002015484165b84841660005260026020528486600020911660005285600020908054906001600160801b0361199f818416611795565b166fffffffffffffffffffffffffffffffff19928316178155600101805477ffffffffffffffffffffffffffffffffffffffffffffffff196001600160c01b036119ed8e821682851661177a565b1691161790556001600160801b03825491611a0a8360801c611795565b60801b16911617905584519788520460208701521693a3565b905061196f565b60206001600160a01b03600484959401541691604051928391825281600081611a9161271089047f000000000000000000000000000000000000000000000000000000000000000060048401602090939291936001600160a01b0360408201951681520152565b03925af190811561046257600091611af5575b5015611ab1579038611922565b606460405162461bcd60e51b815260206004820152601360248201527f466565207472616e73666572206661696c6564000000000000000000000000006044820152fd5b611b0e915060203d60201161045b5761044d8183611419565b38611aa4565b606460405162461bcd60e51b815260206004820152601560248201527f5072697a65207472616e73666572206661696c656400000000000000000000006044820152fd5b611b71915060203d60201161045b5761044d8183611419565b38611912565b6001600160a01b0380911690600090828252600560205260408220541580611c01575b611ba357505050565b60045468010000000000000000811015611bed5790611bcb826001604095940160045561137d565b819291549060031b9186831b921b191617905560045492815260056020522055565b602483634e487b7160e01b81526041600452fd5b5060045415611c3a5760048252807f8a35acfbc15ff81a39ae7d344fd709f28e8600b4aa8c65c6b64bfe7fe36bd19b5416831415611b9a565b602482634e487b7160e01b81526032600452fdfea2646970667358221220e6f34957f3958dea442eda1668a583340f93d5edea1e4f95d31a4cb64e0717e764736f6c63430008180033","opcodes":"PUSH1 0xE0 CALLVALUE PUSH2 0xF6 JUMPI PUSH1 0x1F PUSH2 0x1D96 CODESIZE DUP2 SWAP1 SUB SWAP2 DUP3 ADD PUSH1 0x1F NOT AND DUP4 ADD SWAP2 PUSH1 0x1 PUSH1 0x1 PUSH1 0x40 SHL SUB DUP4 GT DUP5 DUP5 LT OR PUSH2 0xFB JUMPI DUP1 DUP5 SWAP3 PUSH1 0x40 SWAP5 DUP6 MSTORE DUP4 CODECOPY DUP2 ADD SUB SLT PUSH2 0xF6 JUMPI DUP1 MLOAD PUSH1 0x1 PUSH1 0x1 PUSH1 0xA0 SHL SUB DUP2 AND SWAP2 DUP3 DUP3 SUB PUSH2 0xF6 JUMPI PUSH1 0x20 ADD MLOAD CALLER PUSH1 0x80 MSTORE SWAP2 PUSH2 0xF1 JUMPI POP CALLER JUMPDEST PUSH1 0xA0 MSTORE PUSH2 0x7D0 DUP2 GT PUSH2 0xBD JUMPI PUSH1 0xC0 MSTORE PUSH1 0x40 MLOAD PUSH2 0x1C84 SWAP1 DUP2 PUSH2 0x112 DUP3 CODECOPY PUSH1 0x80 MLOAD DUP2 DUP2 DUP2 PUSH2 0x8A7 ADD MSTORE DUP2 DUP2 PUSH2 0xC1D ADD MSTORE DUP2 DUP2 PUSH2 0xCE8 ADD MSTORE PUSH2 0xE07 ADD MSTORE PUSH1 0xA0 MLOAD DUP2 DUP2 DUP2 PUSH2 0xB99 ADD MSTORE PUSH2 0x1A53 ADD MSTORE PUSH1 0xC0 MLOAD DUP2 DUP2 DUP2 PUSH2 0x10F8 ADD MSTORE PUSH2 0x180C ADD MSTORE RETURN JUMPDEST PUSH1 0x40 MLOAD PUSH3 0x461BCD PUSH1 0xE5 SHL DUP2 MSTORE PUSH1 0x20 PUSH1 0x4 DUP3 ADD MSTORE PUSH1 0xC PUSH1 0x24 DUP3 ADD MSTORE PUSH12 0x8CCACA40E8DEDE40D0D2CED PUSH1 0xA3 SHL PUSH1 0x44 DUP3 ADD MSTORE PUSH1 0x64 SWAP1 REVERT JUMPDEST PUSH2 0x61 JUMP JUMPDEST PUSH1 0x0 DUP1 REVERT JUMPDEST PUSH4 0x4E487B71 PUSH1 0xE0 SHL PUSH1 0x0 MSTORE PUSH1 0x41 PUSH1 0x4 MSTORE PUSH1 0x24 PUSH1 0x0 REVERT INVALID PUSH1 0x80 DUP1 PUSH1 0x40 MSTORE PUSH1 0x4 DUP1 CALLDATASIZE LT ISZERO PUSH2 0x14 JUMPI PUSH1 0x0 DUP1 REVERT JUMPDEST PUSH1 0x0 CALLDATALOAD PUSH1 0xE0 SHR SWAP2 DUP3 PUSH4 0xC4ECAB4 EQ PUSH2 0x130C JUMPI POP DUP2 PUSH4 0xD2DCE22 EQ PUSH2 0x129F JUMPI DUP2 PUSH4 0x123FA3B6 EQ PUSH2 0x111B JUMPI DUP2 PUSH4 0x24A9D853 EQ PUSH2 0x10E0 JUMPI DUP2 PUSH4 0x4FD66EAE EQ PUSH2 0x1022 JUMPI DUP2 PUSH4 0x56C50E3F EQ PUSH2 0xE98 JUMPI DUP2 PUSH4 0x8BCDCBF3 EQ PUSH2 0xE2B JUMPI DUP2 PUSH4 0x8DA5CB5B EQ PUSH2 0xDE7 JUMPI DUP2 PUSH4 0xB4E1A268 EQ PUSH2 0xCB9 JUMPI DUP2 PUSH4 0xB9209E33 EQ PUSH2 0xF2 JUMPI DUP2 PUSH4 0xC0938AD4 EQ PUSH2 0xBBD JUMPI DUP2 PUSH4 0xC415B95C EQ PUSH2 0xB79 JUMPI DUP2 PUSH4 0xD18AAE70 EQ PUSH2 0xACE JUMPI DUP2 PUSH4 0xD9C88CF7 EQ PUSH2 0x90F JUMPI DUP2 PUSH4 0xE0710749 EQ PUSH2 0x87F JUMPI DUP2 PUSH4 0xED5EB77A EQ PUSH2 0x58A JUMPI DUP2 PUSH4 0xF71D96CB EQ PUSH2 0x54B JUMPI DUP2 PUSH4 0xFB39FB52 EQ PUSH2 0x136 JUMPI POP PUSH4 0xFB3A6ACC EQ PUSH2 0xF2 JUMPI PUSH1 0x0 DUP1 REVERT JUMPDEST CALLVALUE PUSH2 0x131 JUMPI PUSH1 0x20 CALLDATASIZE PUSH1 0x3 NOT ADD SLT PUSH2 0x131 JUMPI PUSH1 0x1 PUSH1 0x1 PUSH1 0xA0 SHL SUB PUSH2 0x113 PUSH2 0x1367 JUMP JUMPDEST AND PUSH1 0x0 MSTORE PUSH1 0x3 PUSH1 0x20 MSTORE PUSH1 0x20 PUSH1 0xFF PUSH1 0x40 PUSH1 0x0 KECCAK256 SLOAD AND PUSH1 0x40 MLOAD SWAP1 ISZERO ISZERO DUP2 MSTORE RETURN JUMPDEST PUSH1 0x0 DUP1 REVERT JUMPDEST CALLVALUE PUSH2 0x131 JUMPI PUSH1 0x60 CALLDATASIZE PUSH1 0x3 NOT ADD SLT PUSH2 0x131 JUMPI PUSH1 0x24 CALLDATALOAD SWAP1 PUSH1 0x44 CALLDATALOAD SWAP2 PUSH1 0x1 PUSH1 0x1 PUSH1 0xA0 SHL SUB DUP4 AND DUP1 SWAP4 SUB PUSH2 0x131 JUMPI CALLER PUSH1 0x0 MSTORE PUSH1 0x3 PUSH1 0x20 MSTORE PUSH2 0x17A PUSH1 0xFF PUSH1 0x40 PUSH1 0x0 KECCAK256 SLOAD AND PUSH2 0x16E4 JUMP JUMPDEST DUP2 CALLDATALOAD PUSH1 0x0 MSTORE PUSH1 0x0 PUSH1 0x20 MSTORE PUSH1 0x1 PUSH1 0x1 PUSH1 0xA0 SHL SUB PUSH1 0x1 PUSH1 0x40 PUSH1 0x0 KECCAK256 ADD SLOAD AND PUSH2 0x507 JUMPI DUP1 ISZERO ISZERO DUP1 PUSH2 0x4F6 JUMPI JUMPDEST ISZERO PUSH2 0x4B2 JUMPI DUP3 ISZERO PUSH2 0x46E JUMPI PUSH1 0x40 MLOAD PUSH2 0x1BA DUP2 PUSH2 0x13FC JUMP JUMPDEST DUP3 CALLDATALOAD DUP2 MSTORE CALLER PUSH1 0x20 DUP3 ADD MSTORE PUSH1 0x0 PUSH1 0x40 DUP3 ADD MSTORE PUSH1 0x1 PUSH1 0x1 PUSH1 0x80 SHL SUB DUP3 AND PUSH1 0x60 DUP3 ADD MSTORE DUP4 PUSH1 0x80 DUP3 ADD MSTORE PUSH1 0x0 PUSH1 0xA0 DUP3 ADD MSTORE PUSH1 0x0 PUSH1 0xC0 DUP3 ADD MSTORE PUSH8 0xFFFFFFFFFFFFFFFF TIMESTAMP AND PUSH1 0xE0 DUP3 ADD MSTORE PUSH1 0x0 PUSH2 0x100 DUP3 ADD MSTORE DUP3 CALLDATALOAD PUSH1 0x0 MSTORE PUSH1 0x0 PUSH1 0x20 MSTORE PUSH8 0xFFFFFFFFFFFFFFFF PUSH2 0x100 PUSH1 0x6 PUSH1 0x40 PUSH1 0x0 KECCAK256 DUP5 MLOAD DUP2 SSTORE PUSH1 0x1 DUP2 ADD PUSH1 0x1 PUSH1 0x1 PUSH1 0xA0 SHL SUB PUSH1 0x20 DUP8 ADD MLOAD AND SWAP1 PUSH20 0xFFFFFFFFFFFFFFFFFFFFFFFFFFFFFFFFFFFFFFFF NOT SWAP2 DUP3 DUP3 SLOAD AND OR SWAP1 SSTORE PUSH1 0x2 DUP3 ADD SWAP1 PUSH1 0x1 PUSH1 0x1 PUSH1 0xA0 SHL SUB PUSH1 0x40 DUP9 ADD MLOAD AND SWAP1 DUP3 SLOAD AND OR SWAP1 SSTORE PUSH1 0x3 DUP2 ADD PUSH1 0x1 PUSH1 0x1 PUSH1 0x80 SHL SUB PUSH1 0x60 DUP8 ADD MLOAD AND PUSH16 0xFFFFFFFFFFFFFFFFFFFFFFFFFFFFFFFF NOT DUP3 SLOAD AND OR SWAP1 SSTORE DUP7 DUP2 ADD PUSH1 0x1 PUSH1 0x1 PUSH1 0xA0 SHL SUB PUSH1 0x80 DUP8 ADD MLOAD AND DUP2 SLOAD SWAP1 PUSH32 0xFFFFFFFFFFFFFFFFFFFFFF000000000000000000000000000000000000000000 PUSH21 0xFF0000000000000000000000000000000000000000 PUSH1 0xA0 DUP11 ADD MLOAD PUSH1 0xA0 SHL AND SWAP3 AND OR OR SWAP1 SSTORE PUSH1 0x5 DUP2 ADD PUSH1 0x1 PUSH1 0x1 PUSH1 0xA0 SHL SUB PUSH1 0xC0 DUP8 ADD MLOAD AND DUP2 SLOAD SWAP1 PUSH32 0xFFFFFFFF00000000000000000000000000000000000000000000000000000000 PUSH28 0xFFFFFFFFFFFFFFFF0000000000000000000000000000000000000000 PUSH1 0xE0 DUP11 ADD MLOAD PUSH1 0xA0 SHL AND SWAP3 AND OR OR SWAP1 SSTORE ADD SWAP3 ADD MLOAD AND PUSH8 0xFFFFFFFFFFFFFFFF NOT DUP3 SLOAD AND OR SWAP1 SSTORE PUSH1 0x40 MLOAD PUSH4 0x23B872DD PUSH1 0xE0 SHL DUP2 MSTORE CALLER DUP4 DUP3 ADD MSTORE ADDRESS PUSH1 0x24 DUP3 ADD MSTORE DUP2 PUSH1 0x44 DUP3 ADD MSTORE PUSH1 0x20 DUP2 PUSH1 0x64 DUP2 PUSH1 0x0 DUP9 GAS CALL DUP1 ISZERO PUSH2 0x462 JUMPI PUSH2 0x3AE SWAP2 PUSH1 0x0 SWAP2 PUSH2 0x433 JUMPI JUMPDEST POP PUSH2 0x172F JUMP JUMPDEST CALLER PUSH1 0x0 MSTORE PUSH1 0x2 PUSH1 0x20 MSTORE PUSH1 0x40 PUSH1 0x0 KECCAK256 PUSH1 0x2 PUSH1 0x1 PUSH1 0x1 PUSH1 0xC0 SHL SUB SWAP2 ADD SWAP1 PUSH24 0xFFFFFFFFFFFFFFFFFFFFFFFFFFFFFFFFFFFFFFFFFFFFFFFF NOT DUP3 SLOAD SWAP2 PUSH2 0x3F4 DUP2 DUP7 AND DUP3 DUP6 AND PUSH2 0x177A JUMP JUMPDEST AND SWAP2 AND OR SWAP1 SSTORE PUSH2 0x403 CALLER PUSH2 0x1B77 JUMP JUMPDEST PUSH1 0x40 MLOAD SWAP1 DUP2 MSTORE PUSH32 0xC387DBC55364FECE0C83FA65C865F1DCEF6AB6A86829E50446076911B9068681 PUSH1 0x20 CALLER SWAP4 CALLDATALOAD SWAP3 LOG4 STOP JUMPDEST PUSH2 0x455 SWAP2 POP PUSH1 0x20 RETURNDATASIZE PUSH1 0x20 GT PUSH2 0x45B JUMPI JUMPDEST PUSH2 0x44D DUP2 DUP4 PUSH2 0x1419 JUMP JUMPDEST DUP2 ADD SWAP1 PUSH2 0x15C7 JUMP JUMPDEST DUP6 PUSH2 0x3A8 JUMP JUMPDEST POP RETURNDATASIZE PUSH2 0x443 JUMP JUMPDEST PUSH1 0x40 MLOAD RETURNDATASIZE PUSH1 0x0 DUP3 RETURNDATACOPY RETURNDATASIZE SWAP1 REVERT JUMPDEST PUSH1 0x64 DUP3 PUSH1 0x20 PUSH1 0x40 MLOAD SWAP2 PUSH3 0x461BCD PUSH1 0xE5 SHL DUP4 MSTORE DUP3 ADD MSTORE PUSH1 0xE PUSH1 0x24 DUP3 ADD MSTORE PUSH32 0x546F6B656E207265717569726564000000000000000000000000000000000000 PUSH1 0x44 DUP3 ADD MSTORE REVERT JUMPDEST PUSH1 0x64 DUP3 PUSH1 0x20 PUSH1 0x40 MLOAD SWAP2 PUSH3 0x461BCD PUSH1 0xE5 SHL DUP4 MSTORE DUP3 ADD MSTORE PUSH1 0xD PUSH1 0x24 DUP3 ADD MSTORE PUSH32 0x496E76616C6964207374616B6500000000000000000000000000000000000000 PUSH1 0x44 DUP3 ADD MSTORE REVERT JUMPDEST POP PUSH1 0x1 PUSH1 0x1 PUSH1 0x80 SHL SUB DUP2 GT ISZERO PUSH2 0x1A3 JUMP JUMPDEST PUSH1 0x64 DUP3 PUSH1 0x20 PUSH1 0x40 MLOAD SWAP2 PUSH3 0x461BCD PUSH1 0xE5 SHL DUP4 MSTORE DUP3 ADD MSTORE PUSH1 0xB PUSH1 0x24 DUP3 ADD MSTORE PUSH32 0x4475656C20657869737473000000000000000000000000000000000000000000 PUSH1 0x44 DUP3 ADD MSTORE REVERT JUMPDEST CALLVALUE PUSH2 0x131 JUMPI PUSH1 0x20 CALLDATASIZE PUSH1 0x3 NOT ADD SLT PUSH2 0x131 JUMPI DUP1 CALLDATALOAD SWAP1 SLOAD DUP2 LT ISZERO PUSH2 0x131 JUMPI PUSH1 0x1 PUSH1 0x1 PUSH1 0xA0 SHL SUB PUSH2 0x57A PUSH1 0x20 SWAP3 PUSH2 0x137D JUMP JUMPDEST SWAP2 SWAP1 SLOAD PUSH1 0x40 MLOAD SWAP3 PUSH1 0x3 SHL SHR AND DUP2 MSTORE RETURN JUMPDEST CALLVALUE PUSH2 0x131 JUMPI PUSH1 0x20 DUP1 PUSH1 0x3 NOT CALLDATASIZE ADD SLT PUSH2 0x131 JUMPI DUP2 CALLDATALOAD SWAP2 CALLER PUSH1 0x0 MSTORE PUSH1 0x3 DUP3 MSTORE PUSH2 0x5B8 PUSH1 0xFF PUSH1 0x40 PUSH1 0x0 KECCAK256 SLOAD AND PUSH2 0x16E4 JUMP JUMPDEST DUP3 PUSH1 0x0 MSTORE PUSH1 0x0 DUP3 MSTORE PUSH1 0x40 PUSH1 0x0 KECCAK256 SWAP1 PUSH1 0x1 PUSH1 0x1 PUSH1 0xA0 SHL SUB SWAP3 DUP4 PUSH1 0x1 DUP5 ADD SLOAD AND SWAP3 DUP4 ISZERO PUSH2 0x83C JUMPI DUP3 DUP2 ADD DUP1 SLOAD SWAP5 PUSH2 0x5F3 PUSH1 0xFF DUP8 PUSH1 0xA0 SHR AND ISZERO PUSH2 0x157C JUMP JUMPDEST PUSH1 0x2 DUP4 ADD SWAP1 DUP2 SLOAD SWAP1 DUP9 DUP3 AND PUSH2 0x7F9 JUMPI DUP1 CALLER EQ PUSH2 0x7B6 JUMPI PUSH1 0x0 MSTORE PUSH1 0x3 DUP6 MSTORE PUSH1 0xFF PUSH1 0x40 PUSH1 0x0 KECCAK256 SLOAD AND ISZERO PUSH2 0x773 JUMPI SWAP2 DUP5 SWAP4 SWAP2 PUSH1 0x3 SWAP4 PUSH20 0xFFFFFFFFFFFFFFFFFFFFFFFFFFFFFFFFFFFFFFFF NOT CALLER SWAP2 AND OR SWAP1 SSTORE PUSH21 0x10000000000000000000000000000000000000000 PUSH1 0xFF PUSH1 0xA0 SHL NOT DUP9 AND OR SWAP1 SSTORE ADD SWAP5 PUSH1 0x64 PUSH1 0x1 PUSH1 0x1 PUSH1 0x80 SHL SUB SWAP5 PUSH1 0x0 DUP7 DUP10 SLOAD AND SWAP4 PUSH1 0x40 MLOAD SWAP9 DUP10 SWAP6 DUP7 SWAP5 PUSH4 0x23B872DD PUSH1 0xE0 SHL DUP7 MSTORE CALLER SWAP1 DUP7 ADD MSTORE ADDRESS PUSH1 0x24 DUP7 ADD MSTORE PUSH1 0x44 DUP6 ADD MSTORE AND GAS CALL SWAP1 DUP2 ISZERO PUSH2 0x462 JUMPI PUSH2 0x6B8 PUSH1 0x2 SWAP5 SWAP3 DUP6 SWAP4 PUSH1 0x0 SWAP2 PUSH2 0x756 JUMPI POP PUSH2 0x172F JUMP JUMPDEST CALLER PUSH1 0x0 MSTORE MSTORE PUSH1 0x40 PUSH1 0x0 KECCAK256 SWAP3 SLOAD AND SWAP2 ADD SWAP1 PUSH24 0xFFFFFFFFFFFFFFFFFFFFFFFFFFFFFFFFFFFFFFFFFFFFFFFF NOT DUP3 SLOAD SWAP2 PUSH2 0x6F9 PUSH1 0x1 PUSH1 0x1 PUSH1 0xC0 SHL SUB SWAP2 DUP3 DUP6 AND PUSH2 0x177A JUMP JUMPDEST AND SWAP2 AND OR SWAP1 SSTORE PUSH2 0x708 CALLER PUSH2 0x1B77 JUMP JUMPDEST CALLER DUP2 PUSH32 0x1EB43AA8EF4D730D2F76AAE922AAFDBD064EFA3352F73FD40FA1D3BBEF4CD057 PUSH1 0x0 DUP1 LOG3 PUSH32 0xB37FB54A76F874F0EC60D8CD7FFDCD72D64968A3B511F407F16CAFD9B50A7708 PUSH1 0x0 DUP1 LOG2 STOP JUMPDEST PUSH2 0x76D SWAP2 POP DUP4 RETURNDATASIZE DUP6 GT PUSH2 0x45B JUMPI PUSH2 0x44D DUP2 DUP4 PUSH2 0x1419 JUMP JUMPDEST DUP9 PUSH2 0x3A8 JUMP JUMPDEST PUSH1 0x64 DUP7 DUP7 PUSH1 0x40 MLOAD SWAP2 PUSH3 0x461BCD PUSH1 0xE5 SHL DUP4 MSTORE DUP3 ADD MSTORE PUSH1 0x14 PUSH1 0x24 DUP3 ADD MSTORE PUSH32 0x506C6179657231206E6F74207665726966696564000000000000000000000000 PUSH1 0x44 DUP3 ADD MSTORE REVERT JUMPDEST PUSH1 0x64 DUP8 DUP8 PUSH1 0x40 MLOAD SWAP2 PUSH3 0x461BCD PUSH1 0xE5 SHL DUP4 MSTORE DUP3 ADD MSTORE PUSH1 0xB PUSH1 0x24 DUP3 ADD MSTORE PUSH32 0x53616D6520706C61796572000000000000000000000000000000000000000000 PUSH1 0x44 DUP3 ADD MSTORE REVERT JUMPDEST PUSH1 0x64 DUP8 DUP8 PUSH1 0x40 MLOAD SWAP2 PUSH3 0x461BCD PUSH1 0xE5 SHL DUP4 MSTORE DUP3 ADD MSTORE PUSH1 0x6 PUSH1 0x24 DUP3 ADD MSTORE PUSH32 0x4A6F696E65640000000000000000000000000000000000000000000000000000 PUSH1 0x44 DUP3 ADD MSTORE REVERT JUMPDEST PUSH1 0x64 DUP4 DUP4 PUSH1 0x40 MLOAD SWAP2 PUSH3 0x461BCD PUSH1 0xE5 SHL DUP4 MSTORE DUP3 ADD MSTORE PUSH1 0xC PUSH1 0x24 DUP3 ADD MSTORE PUSH32 0x4475656C206D697373696E670000000000000000000000000000000000000000 PUSH1 0x44 DUP3 ADD MSTORE REVERT JUMPDEST CALLVALUE PUSH2 0x131 JUMPI PUSH1 0x20 CALLDATASIZE PUSH1 0x3 NOT ADD SLT PUSH2 0x131 JUMPI PUSH2 0x898 PUSH2 0x1367 JUMP JUMPDEST PUSH1 0x1 PUSH1 0x1 PUSH1 0xA0 SHL SUB SWAP1 PUSH2 0x8CE DUP3 PUSH32 0x0 AND CALLER EQ PUSH2 0x15DF JUMP JUMPDEST AND DUP1 PUSH1 0x0 MSTORE PUSH1 0x3 PUSH1 0x20 MSTORE PUSH1 0x40 PUSH1 0x0 KECCAK256 PUSH1 0x1 PUSH1 0xFF NOT DUP3 SLOAD AND OR SWAP1 SSTORE PUSH32 0x35E92767EFF4A063167FC37F0DF63960429CD730DCA0D179D48253FC2AA0D15F PUSH1 0x0 DUP1 LOG2 STOP JUMPDEST CALLVALUE PUSH2 0x131 JUMPI PUSH1 0x40 CALLDATASIZE PUSH1 0x3 NOT ADD SLT PUSH2 0x131 JUMPI DUP1 CALLDATALOAD SWAP1 PUSH2 0x92B PUSH2 0x1351 JUMP JUMPDEST DUP3 PUSH1 0x0 MSTORE PUSH1 0x20 SWAP2 PUSH1 0x0 DUP4 MSTORE PUSH1 0x40 PUSH1 0x0 KECCAK256 SWAP3 PUSH1 0x1 PUSH1 0x1 PUSH1 0xA0 SHL SUB SWAP3 PUSH1 0x1 SWAP5 DUP5 DUP1 DUP8 DUP4 ADD SLOAD AND CALLER EQ SWAP2 DUP3 ISZERO PUSH2 0xABD JUMPI JUMPDEST POP POP ISZERO PUSH2 0xA7A JUMPI DUP6 PUSH1 0x0 MSTORE PUSH1 0x0 DUP3 MSTORE PUSH2 0x981 DUP6 PUSH1 0xFF PUSH1 0x40 PUSH1 0x0 KECCAK256 SWAP6 DUP7 ADD SLOAD PUSH1 0xA0 SHR AND EQ PUSH2 0x162A JUMP JUMPDEST DUP5 DUP4 ADD SWAP1 DUP5 DUP1 DUP4 SLOAD AND SWAP2 AND SWAP1 DUP2 EQ DUP1 ISZERO PUSH2 0xA6B JUMPI JUMPDEST PUSH2 0x99F SWAP1 PUSH2 0x1675 JUMP JUMPDEST DUP7 PUSH1 0x0 MSTORE DUP6 DUP4 MSTORE PUSH1 0x40 PUSH1 0x0 KECCAK256 CALLER PUSH1 0x0 MSTORE DUP4 MSTORE PUSH1 0x40 PUSH1 0x0 KECCAK256 DUP2 PUSH20 0xFFFFFFFFFFFFFFFFFFFFFFFFFFFFFFFFFFFFFFFF NOT DUP3 SLOAD AND OR SWAP1 SSTORE CALLER DUP8 PUSH32 0xDF9E8954C1FE1DC40676CADB9B3E2D1EBEE0B2437C9DD6632CB289BA62A46EAB PUSH1 0x0 DUP1 LOG4 DUP6 PUSH1 0x0 MSTORE DUP5 DUP3 MSTORE DUP4 PUSH1 0x40 PUSH1 0x0 KECCAK256 SWAP2 SLOAD AND PUSH1 0x0 MSTORE DUP2 MSTORE DUP3 PUSH1 0x40 PUSH1 0x0 KECCAK256 SLOAD AND SWAP4 DUP6 PUSH1 0x0 MSTORE DUP2 MSTORE DUP3 PUSH1 0x2 PUSH1 0x40 PUSH1 0x0 KECCAK256 SWAP4 ADD SLOAD AND PUSH1 0x0 MSTORE MSTORE PUSH1 0x40 PUSH1 0x0 KECCAK256 SLOAD AND DUP2 ISZERO ISZERO SWAP1 DUP2 PUSH2 0xA61 JUMPI JUMPDEST DUP2 PUSH2 0xA57 JUMPI JUMPDEST POP PUSH2 0xA4C JUMPI STOP JUMPDEST PUSH2 0xA55 SWAP2 PUSH2 0x17AD JUMP JUMPDEST STOP JUMPDEST SWAP1 POP DUP2 EQ DUP4 PUSH2 0xA45 JUMP JUMPDEST DUP1 ISZERO ISZERO SWAP2 POP PUSH2 0xA3F JUMP JUMPDEST POP PUSH1 0x2 DUP5 ADD SLOAD DUP6 AND DUP2 EQ PUSH2 0x996 JUMP JUMPDEST PUSH1 0x64 DUP4 DUP4 PUSH1 0x40 MLOAD SWAP2 PUSH3 0x461BCD PUSH1 0xE5 SHL DUP4 MSTORE DUP3 ADD MSTORE PUSH1 0xC PUSH1 0x24 DUP3 ADD MSTORE PUSH32 0x4E6F74206120706C617965720000000000000000000000000000000000000000 PUSH1 0x44 DUP3 ADD MSTORE REVERT JUMPDEST PUSH1 0x2 SWAP2 SWAP3 POP ADD SLOAD AND CALLER EQ DUP5 DUP9 PUSH2 0x959 JUMP JUMPDEST CALLVALUE PUSH2 0x131 JUMPI PUSH1 0x20 CALLDATASIZE PUSH1 0x3 NOT ADD SLT PUSH2 0x131 JUMPI DUP1 PUSH2 0x120 SWAP2 CALLDATALOAD PUSH1 0x0 MSTORE PUSH1 0x0 PUSH1 0x20 MSTORE PUSH1 0x40 PUSH1 0x0 KECCAK256 SWAP1 PUSH1 0x6 DUP3 SLOAD SWAP3 PUSH1 0x1 PUSH1 0x1 PUSH1 0xA0 SHL SUB PUSH1 0xFF DUP2 PUSH1 0x1 DUP5 ADD SLOAD AND SWAP5 DUP3 PUSH1 0x2 DUP6 ADD SLOAD AND SWAP1 PUSH1 0x1 PUSH1 0x1 PUSH1 0x80 SHL SUB PUSH1 0x3 DUP7 ADD SLOAD AND SWAP1 DUP6 ADD SLOAD SWAP2 PUSH1 0x5 DUP7 ADD SLOAD SWAP6 PUSH8 0xFFFFFFFFFFFFFFFF SWAP8 DUP9 SWAP2 ADD SLOAD AND SWAP8 PUSH1 0x40 MLOAD SWAP10 DUP11 MSTORE PUSH1 0x20 DUP11 ADD MSTORE PUSH1 0x40 DUP10 ADD MSTORE PUSH1 0x60 DUP9 ADD MSTORE DUP3 DUP2 AND PUSH1 0x80 DUP9 ADD MSTORE PUSH1 0xA0 SHR AND PUSH1 0xA0 DUP7 ADD MSTORE DUP2 AND PUSH1 0xC0 DUP6 ADD MSTORE PUSH1 0xA0 SHR AND PUSH1 0xE0 DUP4 ADD MSTORE PUSH2 0x100 DUP3 ADD MSTORE RETURN JUMPDEST CALLVALUE PUSH2 0x131 JUMPI PUSH1 0x0 CALLDATASIZE PUSH1 0x3 NOT ADD SLT PUSH2 0x131 JUMPI PUSH1 0x20 PUSH1 0x40 MLOAD PUSH1 0x1 PUSH1 0x1 PUSH1 0xA0 SHL SUB PUSH32 0x0 AND DUP2 MSTORE RETURN JUMPDEST CALLVALUE PUSH2 0x131 JUMPI PUSH1 0x20 SWAP1 PUSH1 0x20 PUSH1 0x3 NOT CALLDATASIZE ADD SLT PUSH2 0x131 JUMPI DUP1 CALLDATALOAD SWAP1 PUSH8 0xFFFFFFFFFFFFFFFF SWAP1 DUP2 DUP4 GT PUSH2 0x131 JUMPI CALLDATASIZE PUSH1 0x23 DUP5 ADD SLT ISZERO PUSH2 0x131 JUMPI DUP3 ADD CALLDATALOAD SWAP1 DUP2 GT PUSH2 0x131 JUMPI PUSH1 0x24 DUP3 ADD SWAP2 PUSH1 0x24 CALLDATASIZE SWAP2 DUP4 PUSH1 0x5 SHL ADD ADD GT PUSH2 0x131 JUMPI PUSH1 0x1 PUSH1 0x1 PUSH1 0xA0 SHL SUB SWAP1 PUSH2 0xC44 DUP3 PUSH32 0x0 AND CALLER EQ PUSH2 0x15DF JUMP JUMPDEST PUSH1 0x0 JUMPDEST DUP2 DUP2 LT PUSH2 0xC50 JUMPI STOP JUMPDEST DUP1 DUP4 PUSH2 0xC67 PUSH2 0xC62 PUSH1 0x1 SWAP5 DUP7 DUP10 PUSH2 0x16C0 JUMP JUMPDEST PUSH2 0x16D0 JUMP JUMPDEST AND PUSH1 0x0 MSTORE PUSH1 0x3 DUP7 MSTORE PUSH1 0x40 PUSH1 0x0 KECCAK256 DUP3 PUSH1 0xFF NOT DUP3 SLOAD AND OR SWAP1 SSTORE DUP4 PUSH2 0xC8D PUSH2 0xC62 DUP4 DUP7 DUP10 PUSH2 0x16C0 JUMP JUMPDEST AND PUSH32 0x35E92767EFF4A063167FC37F0DF63960429CD730DCA0D179D48253FC2AA0D15F PUSH1 0x0 DUP1 LOG2 ADD PUSH2 0xC47 JUMP JUMPDEST CALLVALUE PUSH2 0x131 JUMPI PUSH1 0x40 CALLDATASIZE PUSH1 0x3 NOT ADD SLT PUSH2 0x131 JUMPI DUP1 CALLDATALOAD PUSH2 0xCD4 PUSH2 0x1351 JUMP JUMPDEST SWAP1 PUSH1 0x5 PUSH2 0xE10 PUSH1 0x1 PUSH1 0x1 PUSH1 0xA0 SHL SUB PUSH2 0xD0F DUP2 PUSH32 0x0 AND CALLER EQ PUSH2 0x15DF JUMP JUMPDEST DUP4 PUSH1 0x0 MSTORE PUSH1 0x0 PUSH1 0x20 MSTORE PUSH2 0xD52 PUSH1 0x40 PUSH1 0x0 KECCAK256 SWAP2 PUSH2 0xD36 PUSH1 0x1 PUSH1 0xFF DUP11 DUP7 ADD SLOAD PUSH1 0xA0 SHR AND EQ PUSH2 0x162A JUMP JUMPDEST DUP1 PUSH1 0x1 DUP5 ADD SLOAD AND DUP2 DUP9 AND SWAP1 DUP2 EQ SWAP2 DUP3 ISZERO PUSH2 0xDD7 JUMPI JUMPDEST POP POP PUSH2 0x1675 JUMP JUMPDEST PUSH8 0xFFFFFFFFFFFFFFFF SWAP3 DUP4 SWAP2 ADD SLOAD PUSH1 0xA0 SHR AND ADD DUP2 DUP2 GT PUSH2 0xDC2 JUMPI AND TIMESTAMP GT ISZERO PUSH2 0xD7E JUMPI PUSH2 0xA55 SWAP3 POP PUSH2 0x17AD JUMP JUMPDEST PUSH1 0x64 DUP4 PUSH1 0x20 PUSH1 0x40 MLOAD SWAP2 PUSH3 0x461BCD PUSH1 0xE5 SHL DUP4 MSTORE DUP3 ADD MSTORE PUSH1 0x9 PUSH1 0x24 DUP3 ADD MSTORE PUSH32 0x546F6F206561726C790000000000000000000000000000000000000000000000 PUSH1 0x44 DUP3 ADD MSTORE REVERT JUMPDEST PUSH1 0x11 DUP6 PUSH4 0x4E487B71 PUSH1 0xE0 SHL PUSH1 0x0 MSTORE MSTORE PUSH1 0x24 PUSH1 0x0 REVERT JUMPDEST PUSH1 0x2 DUP6 ADD SLOAD AND EQ SWAP1 POP DUP9 DUP1 PUSH2 0xD4B JUMP JUMPDEST CALLVALUE PUSH2 0x131 JUMPI PUSH1 0x0 CALLDATASIZE PUSH1 0x3 NOT ADD SLT PUSH2 0x131 JUMPI PUSH1 0x20 PUSH1 0x40 MLOAD PUSH1 0x1 PUSH1 0x1 PUSH1 0xA0 SHL SUB PUSH32 0x0 AND DUP2 MSTORE RETURN JUMPDEST CALLVALUE PUSH2 0x131 JUMPI PUSH1 0x20 CALLDATASIZE PUSH1 0x3 NOT ADD SLT PUSH2 0x131 JUMPI PUSH1 0x1 PUSH1 0x1 PUSH1 0xA0 SHL SUB PUSH2 0xE4C PUSH2 0x1367 JUMP JUMPDEST AND PUSH1 0x0 MSTORE PUSH1 0x2 PUSH1 0x20 MSTORE PUSH1 0x80 PUSH1 0x40 PUSH1 0x0 KECCAK256 DUP1 SLOAD SWAP1 PUSH1 0x1 PUSH1 0x1 PUSH1 0xC0 SHL SUB PUSH1 0x2 DUP2 PUSH1 0x1 DUP5 ADD SLOAD AND SWAP3 ADD SLOAD AND SWAP1 PUSH1 0x40 MLOAD SWAP3 PUSH1 0x1 PUSH1 0x1 PUSH1 0x80 SHL SUB DUP2 AND DUP5 MSTORE DUP5 SHR PUSH1 0x20 DUP5 ADD MSTORE PUSH1 0x40 DUP4 ADD MSTORE PUSH1 0x60 DUP3 ADD MSTORE RETURN JUMPDEST CALLVALUE PUSH2 0x131 JUMPI PUSH1 0x20 CALLDATASIZE PUSH1 0x3 NOT ADD SLT PUSH2 0x131 JUMPI PUSH2 0x120 SWAP1 PUSH1 0x0 PUSH2 0x100 PUSH1 0x40 MLOAD PUSH2 0xEBE DUP2 PUSH2 0x13FC JUMP JUMPDEST DUP3 DUP2 MSTORE DUP3 PUSH1 0x20 DUP3 ADD MSTORE DUP3 PUSH1 0x40 DUP3 ADD MSTORE DUP3 PUSH1 0x60 DUP3 ADD MSTORE DUP3 PUSH1 0x80 DUP3 ADD MSTORE DUP3 PUSH1 0xA0 DUP3 ADD MSTORE DUP3 PUSH1 0xC0 DUP3 ADD MSTORE DUP3 PUSH1 0xE0 DUP3 ADD MSTORE ADD MSTORE DUP1 CALLDATALOAD PUSH1 0x0 MSTORE PUSH1 0x0 PUSH1 0x20 MSTORE PUSH8 0xFFFFFFFFFFFFFFFF PUSH2 0x100 PUSH1 0x40 PUSH1 0x0 KECCAK256 DUP3 PUSH1 0x6 PUSH1 0x40 MLOAD SWAP3 PUSH2 0xF18 DUP5 PUSH2 0x13FC JUMP JUMPDEST PUSH1 0xFF DUP2 SLOAD SWAP8 DUP9 DUP7 MSTORE PUSH1 0x1 PUSH1 0x1 PUSH1 0xA0 SHL SUB PUSH1 0x1 DUP5 ADD SLOAD AND PUSH1 0x20 DUP8 ADD MSTORE PUSH1 0x1 PUSH1 0x1 PUSH1 0xA0 SHL SUB PUSH1 0x2 DUP5 ADD SLOAD AND PUSH1 0x40 DUP8 ADD MSTORE PUSH1 0x1 PUSH1 0x1 PUSH1 0x80 SHL SUB PUSH1 0x3 DUP5 ADD SLOAD AND PUSH1 0x60 DUP8 ADD MSTORE DUP3 ADD SLOAD PUSH1 0x1 PUSH1 0x1 PUSH1 0xA0 SHL SUB DUP2 AND PUSH1 0x80 DUP8 ADD MSTORE PUSH1 0xA0 SHR AND PUSH1 0xA0 DUP6 ADD MSTORE DUP3 PUSH1 0x5 DUP3 ADD SLOAD PUSH1 0x1 PUSH1 0x1 PUSH1 0xA0 SHL SUB DUP2 AND PUSH1 0xC0 DUP8 ADD MSTORE PUSH1 0xA0 SHR AND PUSH1 0xE0 DUP6 ADD MSTORE ADD SLOAD AND DUP3 DUP3 ADD MSTORE PUSH1 0x40 MLOAD SWAP4 DUP5 MSTORE PUSH1 0x1 PUSH1 0x1 PUSH1 0xA0 SHL SUB PUSH1 0x20 DUP3 ADD MLOAD AND PUSH1 0x20 DUP6 ADD MSTORE PUSH1 0x1 PUSH1 0x1 PUSH1 0xA0 SHL SUB PUSH1 0x40 DUP3 ADD MLOAD AND PUSH1 0x40 DUP6 ADD MSTORE PUSH1 0x1 PUSH1 0x1 PUSH1 0x80 SHL SUB PUSH1 0x60 DUP3 ADD MLOAD AND PUSH1 0x60 DUP6 ADD MSTORE PUSH1 0x1 PUSH1 0x1 PUSH1 0xA0 SHL SUB PUSH1 0x80 DUP3 ADD MLOAD AND PUSH1 0x80 DUP6 ADD MSTORE PUSH1 0xFF PUSH1 0xA0 DUP3 ADD MLOAD AND PUSH1 0xA0 DUP6 ADD MSTORE PUSH1 0x1 PUSH1 0x1 PUSH1 0xA0 SHL SUB PUSH1 0xC0 DUP3 ADD MLOAD AND PUSH1 0xC0 DUP6 ADD MSTORE DUP3 PUSH1 0xE0 DUP3 ADD MLOAD AND PUSH1 0xE0 DUP6 ADD MSTORE ADD MLOAD AND PUSH2 0x100 DUP3 ADD MSTORE RETURN JUMPDEST CALLVALUE PUSH2 0x131 JUMPI PUSH1 0x20 CALLDATASIZE PUSH1 0x3 NOT ADD SLT PUSH2 0x131 JUMPI PUSH1 0x1 PUSH1 0x1 PUSH1 0xA0 SHL SUB PUSH2 0x1043 PUSH2 0x1367 JUMP JUMPDEST PUSH1 0x0 PUSH1 0x60 PUSH1 0x40 MLOAD PUSH2 0x1053 DUP2 PUSH2 0x13CA JUMP JUMPDEST DUP3 DUP2 MSTORE DUP3 PUSH1 0x20 DUP3 ADD MSTORE DUP3 PUSH1 0x40 DUP3 ADD MSTORE ADD MSTORE AND PUSH1 0x0 MSTORE PUSH1 0x2 PUSH1 0x20 MSTORE PUSH1 0x80 PUSH1 0x40 PUSH1 0x0 KECCAK256 PUSH1 0x40 MLOAD PUSH2 0x1080 DUP2 PUSH2 0x13CA JUMP JUMPDEST DUP2 SLOAD SWAP1 PUSH1 0x1 PUSH1 0x1 PUSH1 0x80 SHL SUB SWAP2 DUP3 DUP2 AND SWAP4 DUP5 DUP4 MSTORE PUSH1 0x20 DUP4 ADD SWAP2 DUP7 SHR DUP3 MSTORE PUSH1 0x1 PUSH1 0x1 PUSH1 0xC0 SHL SUB SWAP4 DUP5 SWAP3 PUSH1 0x60 DUP5 PUSH1 0x2 DUP2 PUSH1 0x1 DUP8 ADD SLOAD AND SWAP6 PUSH1 0x40 DUP10 ADD SWAP7 DUP8 MSTORE ADD SLOAD AND SWAP6 ADD SWAP5 DUP6 MSTORE PUSH1 0x40 MLOAD SWAP7 DUP8 MSTORE MLOAD AND PUSH1 0x20 DUP7 ADD MSTORE MLOAD AND PUSH1 0x40 DUP5 ADD MSTORE MLOAD AND PUSH1 0x60 DUP3 ADD MSTORE RETURN JUMPDEST CALLVALUE PUSH2 0x131 JUMPI PUSH1 0x0 CALLDATASIZE PUSH1 0x3 NOT ADD SLT PUSH2 0x131 JUMPI PUSH1 0x20 PUSH1 0x40 MLOAD PUSH32 0x0 DUP2 MSTORE RETURN JUMPDEST CALLVALUE PUSH2 0x131 JUMPI PUSH1 0x20 SWAP1 DUP2 PUSH1 0x3 NOT CALLDATASIZE ADD SLT PUSH2 0x131 JUMPI DUP1 CALLDATALOAD SWAP2 DUP3 PUSH1 0x0 MSTORE PUSH1 0x0 DUP2 MSTORE PUSH1 0x40 PUSH1 0x0 KECCAK256 PUSH1 0x1 PUSH1 0x1 PUSH1 0xA0 SHL SUB DUP1 PUSH1 0x1 DUP4 ADD SLOAD AND CALLER DUP2 SUB PUSH2 0x125C JUMPI SWAP1 PUSH1 0x44 DUP5 SWAP3 PUSH1 0x0 PUSH1 0x1 PUSH1 0x1 PUSH1 0x80 SHL SUB PUSH1 0x3 DUP10 DUP9 ADD SWAP8 DUP9 SLOAD SWAP9 PUSH2 0x117C PUSH1 0xFF DUP12 PUSH1 0xA0 SHR AND ISZERO PUSH2 0x157C JUMP JUMPDEST PUSH21 0x30000000000000000000000000000000000000000 PUSH1 0xFF PUSH1 0xA0 SHL NOT DUP12 AND OR SWAP1 SSTORE ADD SLOAD AND SWAP4 PUSH1 0x40 MLOAD SWAP7 DUP8 SWAP6 DUP7 SWAP5 PUSH4 0xA9059CBB PUSH1 0xE0 SHL DUP7 MSTORE DUP12 DUP7 ADD MSTORE PUSH1 0x24 DUP6 ADD MSTORE AND GAS CALL SWAP1 DUP2 ISZERO PUSH2 0x462 JUMPI PUSH1 0x0 SWAP2 PUSH2 0x123F JUMPI JUMPDEST POP ISZERO PUSH2 0x11FC JUMPI DUP3 PUSH32 0x5D798F443A55745E766F01169ABBF30E321258C3AC925C948D1FAD2C068967E4 PUSH1 0x0 DUP1 LOG2 STOP JUMPDEST PUSH1 0x64 SWAP3 POP PUSH1 0x40 MLOAD SWAP2 PUSH3 0x461BCD PUSH1 0xE5 SHL DUP4 MSTORE DUP3 ADD MSTORE PUSH1 0xD PUSH1 0x24 DUP3 ADD MSTORE PUSH32 0x526566756E64206661696C656400000000000000000000000000000000000000 PUSH1 0x44 DUP3 ADD MSTORE REVERT JUMPDEST PUSH2 0x1256 SWAP2 POP DUP3 RETURNDATASIZE DUP5 GT PUSH2 0x45B JUMPI PUSH2 0x44D DUP2 DUP4 PUSH2 0x1419 JUMP JUMPDEST DUP5 PUSH2 0x11CE JUMP JUMPDEST PUSH1 0x64 DUP6 DUP6 PUSH1 0x40 MLOAD SWAP2 PUSH3 0x461BCD PUSH1 0xE5 SHL DUP4 MSTORE DUP3 ADD MSTORE PUSH1 0xC PUSH1 0x24 DUP3 ADD MSTORE PUSH32 0x4F6E6C792063726561746F720000000000000000000000000000000000000000 PUSH1 0x44 DUP3 ADD MSTORE REVERT JUMPDEST CALLVALUE PUSH2 0x131 JUMPI PUSH1 0x40 CALLDATASIZE PUSH1 0x3 NOT ADD SLT PUSH2 0x131 JUMPI PUSH2 0x12BE SWAP1 PUSH1 0x24 CALLDATALOAD SWAP1 CALLDATALOAD PUSH2 0x1483 JUMP JUMPDEST PUSH1 0x40 MLOAD DUP1 SWAP2 PUSH1 0x20 DUP1 DUP4 ADD PUSH1 0x20 DUP5 MSTORE DUP3 MLOAD DUP1 SWAP2 MSTORE PUSH1 0x20 PUSH1 0x40 DUP6 ADD SWAP4 ADD SWAP2 PUSH1 0x0 JUMPDEST DUP3 DUP2 LT PUSH2 0x12EC JUMPI POP POP POP POP SUB SWAP1 RETURN JUMPDEST DUP4 MLOAD PUSH1 0x1 PUSH1 0x1 PUSH1 0xA0 SHL SUB AND DUP6 MSTORE DUP7 SWAP6 POP SWAP4 DUP2 ADD SWAP4 SWAP3 DUP2 ADD SWAP3 PUSH1 0x1 ADD PUSH2 0x12DD JUMP JUMPDEST CALLVALUE PUSH2 0x131 JUMPI PUSH1 0x40 CALLDATASIZE PUSH1 0x3 NOT ADD SLT PUSH2 0x131 JUMPI PUSH1 0x20 SWAP2 PUSH2 0x1328 PUSH2 0x1351 JUMP JUMPDEST SWAP1 CALLDATALOAD PUSH1 0x0 MSTORE PUSH1 0x1 DUP4 MSTORE PUSH1 0x40 PUSH1 0x0 KECCAK256 PUSH1 0x1 PUSH1 0x1 PUSH1 0xA0 SHL SUB DUP1 SWAP3 AND PUSH1 0x0 MSTORE DUP4 MSTORE PUSH1 0x40 PUSH1 0x0 KECCAK256 SLOAD AND DUP2 MSTORE RETURN JUMPDEST PUSH1 0x24 CALLDATALOAD SWAP1 PUSH1 0x1 PUSH1 0x1 PUSH1 0xA0 SHL SUB DUP3 AND DUP3 SUB PUSH2 0x131 JUMPI JUMP JUMPDEST PUSH1 0x4 CALLDATALOAD SWAP1 PUSH1 0x1 PUSH1 0x1 PUSH1 0xA0 SHL SUB DUP3 AND DUP3 SUB PUSH2 0x131 JUMPI JUMP JUMPDEST PUSH1 0x4 SLOAD DUP2 LT ISZERO PUSH2 0x13B4 JUMPI PUSH1 0x4 PUSH1 0x0 MSTORE PUSH32 0x8A35ACFBC15FF81A39AE7D344FD709F28E8600B4AA8C65C6B64BFE7FE36BD19B ADD SWAP1 PUSH1 0x0 SWAP1 JUMP JUMPDEST PUSH4 0x4E487B71 PUSH1 0xE0 SHL PUSH1 0x0 MSTORE PUSH1 0x32 PUSH1 0x4 MSTORE PUSH1 0x24 PUSH1 0x0 REVERT JUMPDEST PUSH1 0x80 DUP2 ADD SWAP1 DUP2 LT PUSH8 0xFFFFFFFFFFFFFFFF DUP3 GT OR PUSH2 0x13E6 JUMPI PUSH1 0x40 MSTORE JUMP JUMPDEST PUSH4 0x4E487B71 PUSH1 0xE0 SHL PUSH1 0x0 MSTORE PUSH1 0x41 PUSH1 0x4 MSTORE PUSH1 0x24 PUSH1 0x0 REVERT JUMPDEST PUSH2 0x120 DUP2 ADD SWAP1 DUP2 LT PUSH8 0xFFFFFFFFFFFFFFFF DUP3 GT OR PUSH2 0x13E6 JUMPI PUSH1 0x40 MSTORE JUMP JUMPDEST SWAP1 PUSH1 0x1F DUP1 NOT SWAP2 ADD AND DUP2 ADD SWAP1 DUP2 LT PUSH8 0xFFFFFFFFFFFFFFFF DUP3 GT OR PUSH2 0x13E6 JUMPI PUSH1 0x40 MSTORE JUMP JUMPDEST PUSH8 0xFFFFFFFFFFFFFFFF DUP2 GT PUSH2 0x13E6 JUMPI PUSH1 0x5 SHL PUSH1 0x20 ADD SWAP1 JUMP JUMPDEST SWAP2 SWAP1 DUP3 ADD DUP1 SWAP3 GT PUSH2 0x1460 JUMPI JUMP JUMPDEST PUSH4 0x4E487B71 PUSH1 0xE0 SHL PUSH1 0x0 MSTORE PUSH1 0x11 PUSH1 0x4 MSTORE PUSH1 0x24 PUSH1 0x0 REVERT JUMPDEST SWAP2 SWAP1 DUP3 SUB SWAP2 DUP3 GT PUSH2 0x1460 JUMPI JUMP JUMPDEST SWAP1 PUSH1 0x4 SWAP1 PUSH1 0x4 SLOAD SWAP1 DUP2 DUP5 LT ISZERO PUSH2 0x154F JUMPI PUSH2 0x14B1 SWAP2 PUSH2 0x14A2 DUP6 SWAP3 DUP4 PUSH2 0x1453 JUMP JUMPDEST SWAP1 DUP1 DUP3 GT PUSH2 0x1547 JUMPI JUMPDEST POP PUSH2 0x1476 JUMP JUMPDEST PUSH2 0x14BA DUP2 PUSH2 0x143B JUMP JUMPDEST SWAP3 PUSH2 0x14C8 PUSH1 0x40 MLOAD SWAP5 DUP6 PUSH2 0x1419 JUMP JUMPDEST DUP2 DUP5 MSTORE PUSH2 0x14D4 DUP3 PUSH2 0x143B JUMP JUMPDEST PUSH1 0x20 SWAP2 SWAP1 PUSH1 0x1F NOT ADD CALLDATASIZE DUP7 DUP5 ADD CALLDATACOPY PUSH1 0x0 SWAP1 PUSH1 0x0 JUMPDEST DUP5 DUP2 LT PUSH2 0x14F7 JUMPI POP POP POP POP POP POP SWAP1 JUMP JUMPDEST PUSH2 0x1509 PUSH2 0x1504 DUP3 DUP5 PUSH2 0x1453 JUMP JUMPDEST PUSH2 0x137D JUMP JUMPDEST SWAP1 SLOAD SWAP1 DUP9 MLOAD DUP4 LT ISZERO PUSH2 0x1534 JUMPI PUSH1 0x3 SHL SHR PUSH1 0x1 PUSH1 0x1 PUSH1 0xA0 SHL SUB AND PUSH1 0x5 DUP3 SWAP1 SHL DUP9 ADD DUP6 ADD MSTORE PUSH1 0x1 ADD PUSH2 0x14E7 JUMP JUMPDEST PUSH1 0x24 DUP6 PUSH1 0x32 DUP11 PUSH4 0x4E487B71 PUSH1 0xE0 SHL DUP4 MSTORE MSTORE REVERT JUMPDEST SWAP1 POP CODESIZE PUSH2 0x14AB JUMP JUMPDEST POP POP POP POP PUSH1 0x40 MLOAD PUSH1 0x20 DUP2 ADD DUP2 DUP2 LT PUSH8 0xFFFFFFFFFFFFFFFF DUP3 GT OR PUSH2 0x13E6 JUMPI PUSH1 0x40 MSTORE PUSH1 0x0 DUP2 MSTORE PUSH1 0x0 CALLDATASIZE DUP2 CALLDATACOPY SWAP1 JUMP JUMPDEST ISZERO PUSH2 0x1583 JUMPI JUMP JUMPDEST PUSH1 0x64 PUSH1 0x40 MLOAD PUSH3 0x461BCD PUSH1 0xE5 SHL DUP2 MSTORE PUSH1 0x20 PUSH1 0x4 DUP3 ADD MSTORE PUSH1 0x8 PUSH1 0x24 DUP3 ADD MSTORE PUSH32 0x4E6F74206F70656E000000000000000000000000000000000000000000000000 PUSH1 0x44 DUP3 ADD MSTORE REVERT JUMPDEST SWAP1 DUP2 PUSH1 0x20 SWAP2 SUB SLT PUSH2 0x131 JUMPI MLOAD DUP1 ISZERO ISZERO DUP2 SUB PUSH2 0x131 JUMPI SWAP1 JUMP JUMPDEST ISZERO PUSH2 0x15E6 JUMPI JUMP JUMPDEST PUSH1 0x64 PUSH1 0x40 MLOAD PUSH3 0x461BCD PUSH1 0xE5 SHL DUP2 MSTORE PUSH1 0x20 PUSH1 0x4 DUP3 ADD MSTORE PUSH1 0x9 PUSH1 0x24 DUP3 ADD MSTORE PUSH32 0x4E6F74206F776E65720000000000000000000000000000000000000000000000 PUSH1 0x44 DUP3 ADD MSTORE REVERT JUMPDEST ISZERO PUSH2 0x1631 JUMPI JUMP JUMPDEST PUSH1 0x64 PUSH1 0x40 MLOAD PUSH3 0x461BCD PUSH1 0xE5 SHL DUP2 MSTORE PUSH1 0x20 PUSH1 0x4 DUP3 ADD MSTORE PUSH1 0xA PUSH1 0x24 DUP3 ADD MSTORE PUSH32 0x4E6F742061637469766500000000000000000000000000000000000000000000 PUSH1 0x44 DUP3 ADD MSTORE REVERT JUMPDEST ISZERO PUSH2 0x167C JUMPI JUMP JUMPDEST PUSH1 0x64 PUSH1 0x40 MLOAD PUSH3 0x461BCD PUSH1 0xE5 SHL DUP2 MSTORE PUSH1 0x20 PUSH1 0x4 DUP3 ADD MSTORE PUSH1 0xE PUSH1 0x24 DUP3 ADD MSTORE PUSH32 0x496E76616C69642077696E6E6572000000000000000000000000000000000000 PUSH1 0x44 DUP3 ADD MSTORE REVERT JUMPDEST SWAP2 SWAP1 DUP2 LT ISZERO PUSH2 0x13B4 JUMPI PUSH1 0x5 SHL ADD SWAP1 JUMP JUMPDEST CALLDATALOAD PUSH1 0x1 PUSH1 0x1 PUSH1 0xA0 SHL SUB DUP2 AND DUP2 SUB PUSH2 0x131 JUMPI SWAP1 JUMP JUMPDEST ISZERO PUSH2 0x16EB JUMPI JUMP JUMPDEST PUSH1 0x64 PUSH1 0x40 MLOAD PUSH3 0x461BCD PUSH1 0xE5 SHL DUP2 MSTORE PUSH1 0x20 PUSH1 0x4 DUP3 ADD MSTORE PUSH1 0xC PUSH1 0x24 DUP3 ADD MSTORE PUSH32 0x4E6F742076657269666965640000000000000000000000000000000000000000 PUSH1 0x44 DUP3 ADD MSTORE REVERT JUMPDEST ISZERO PUSH2 0x1736 JUMPI JUMP JUMPDEST PUSH1 0x64 PUSH1 0x40 MLOAD PUSH3 0x461BCD PUSH1 0xE5 SHL DUP2 MSTORE PUSH1 0x20 PUSH1 0x4 DUP3 ADD MSTORE PUSH1 0xF PUSH1 0x24 DUP3 ADD MSTORE PUSH32 0x5472616E73666572206661696C65640000000000000000000000000000000000 PUSH1 0x44 DUP3 ADD MSTORE REVERT JUMPDEST SWAP2 SWAP1 SWAP2 PUSH1 0x1 PUSH1 0x1 PUSH1 0xC0 SHL SUB DUP1 DUP1 SWAP5 AND SWAP2 AND ADD SWAP2 DUP3 GT PUSH2 0x1460 JUMPI JUMP JUMPDEST SWAP1 PUSH1 0x1 PUSH1 0x1 PUSH1 0x1 PUSH1 0x80 SHL SUB DUP1 SWAP4 AND ADD SWAP2 DUP3 GT PUSH2 0x1460 JUMPI JUMP JUMPDEST DUP1 PUSH1 0x0 MSTORE PUSH1 0x0 PUSH1 0x20 MSTORE PUSH1 0x40 PUSH1 0x0 KECCAK256 SWAP2 PUSH1 0x4 DUP4 ADD SLOAD SWAP3 PUSH2 0x17D4 PUSH1 0x1 PUSH1 0xFF DUP7 PUSH1 0xA0 SHR AND EQ PUSH2 0x162A JUMP JUMPDEST PUSH1 0x3 DUP2 ADD SLOAD SWAP1 PUSH17 0x1FFFFFFFFFFFFFFFFFFFFFFFFFFFFFFFE PUSH1 0x1 PUSH1 0x1 PUSH1 0x80 SHL SUB DUP4 AND SWAP3 PUSH1 0x1 SHL AND SWAP2 DUP1 DUP4 DIV PUSH1 0x2 EQ SWAP1 ISZERO OR ISZERO PUSH2 0x1460 JUMPI PUSH32 0x0 SWAP2 DUP3 DUP2 MUL SWAP3 DUP2 DUP5 DIV EQ DUP2 ISZERO OR ISZERO PUSH2 0x1460 JUMPI PUSH2 0x184B SWAP1 PUSH2 0x2710 DUP5 DIV SWAP1 PUSH2 0x1476 JUMP JUMPDEST DUP6 PUSH21 0x20000000000000000000000000000000000000000 PUSH1 0xFF PUSH1 0xA0 SHL NOT DUP4 SWAP9 AND OR PUSH1 0x4 DUP5 ADD SSTORE PUSH1 0x1 PUSH1 0x1 PUSH1 0xA0 SHL SUB DUP6 AND PUSH20 0xFFFFFFFFFFFFFFFFFFFFFFFFFFFFFFFFFFFFFFFF NOT PUSH1 0x5 DUP6 ADD SLOAD AND OR PUSH1 0x5 DUP5 ADD SSTORE PUSH1 0x6 DUP4 ADD PUSH8 0xFFFFFFFFFFFFFFFF TIMESTAMP AND PUSH8 0xFFFFFFFFFFFFFFFF NOT DUP3 SLOAD AND OR SWAP1 SSTORE PUSH1 0x20 PUSH1 0x40 MLOAD DUP1 SWAP3 DUP2 PUSH1 0x0 PUSH1 0x1 PUSH1 0x1 PUSH1 0xA0 SHL SUB DUP3 PUSH2 0x18FE PUSH4 0xA9059CBB PUSH1 0xE0 SHL SWAP10 DUP11 DUP4 MSTORE DUP14 PUSH1 0x4 DUP5 ADD PUSH1 0x20 SWAP1 SWAP4 SWAP3 SWAP2 SWAP4 PUSH1 0x1 PUSH1 0x1 PUSH1 0xA0 SHL SUB PUSH1 0x40 DUP3 ADD SWAP6 AND DUP2 MSTORE ADD MSTORE JUMP JUMPDEST SUB SWAP4 AND GAS CALL SWAP1 DUP2 ISZERO PUSH2 0x462 JUMPI PUSH1 0x0 SWAP2 PUSH2 0x1B58 JUMPI JUMPDEST POP ISZERO PUSH2 0x1B14 JUMPI PUSH2 0x2710 DUP4 DIV PUSH2 0x1A2A JUMPI JUMPDEST POP PUSH32 0x41AB25B76C03860697E1B4B4D5726E0FF60F9D93DD8115C0915BC5DD09327963 SWAP3 PUSH2 0x2710 PUSH1 0x40 SWAP4 DUP4 PUSH1 0x1 PUSH1 0x1 PUSH1 0xA0 SHL SUB PUSH1 0x1 DUP2 SWAP7 ADD SLOAD AND DUP1 DUP7 DUP7 AND EQ PUSH1 0x0 EQ PUSH2 0x1A23 JUMPI POP PUSH1 0x2 ADD SLOAD DUP5 AND JUMPDEST DUP5 DUP5 AND PUSH1 0x0 MSTORE PUSH1 0x2 PUSH1 0x20 MSTORE DUP5 DUP7 PUSH1 0x0 KECCAK256 SWAP2 AND PUSH1 0x0 MSTORE DUP6 PUSH1 0x0 KECCAK256 SWAP1 DUP1 SLOAD SWAP1 PUSH1 0x1 PUSH1 0x1 PUSH1 0x80 SHL SUB PUSH2 0x199F DUP2 DUP5 AND PUSH2 0x1795 JUMP JUMPDEST AND PUSH16 0xFFFFFFFFFFFFFFFFFFFFFFFFFFFFFFFF NOT SWAP3 DUP4 AND OR DUP2 SSTORE PUSH1 0x1 ADD DUP1 SLOAD PUSH24 0xFFFFFFFFFFFFFFFFFFFFFFFFFFFFFFFFFFFFFFFFFFFFFFFF NOT PUSH1 0x1 PUSH1 0x1 PUSH1 0xC0 SHL SUB PUSH2 0x19ED DUP15 DUP3 AND DUP3 DUP6 AND PUSH2 0x177A JUMP JUMPDEST AND SWAP2 AND OR SWAP1 SSTORE PUSH1 0x1 PUSH1 0x1 PUSH1 0x80 SHL SUB DUP3 SLOAD SWAP2 PUSH2 0x1A0A DUP4 PUSH1 0x80 SHR PUSH2 0x1795 JUMP JUMPDEST PUSH1 0x80 SHL AND SWAP2 AND OR SWAP1 SSTORE DUP5 MLOAD SWAP8 DUP9 MSTORE DIV PUSH1 0x20 DUP8 ADD MSTORE AND SWAP4 LOG3 JUMP JUMPDEST SWAP1 POP PUSH2 0x196F JUMP JUMPDEST PUSH1 0x20 PUSH1 0x1 PUSH1 0x1 PUSH1 0xA0 SHL SUB PUSH1 0x4 DUP5 SWAP6 SWAP5 ADD SLOAD AND SWAP2 PUSH1 0x40 MLOAD SWAP3 DUP4 SWAP2 DUP3 MSTORE DUP2 PUSH1 0x0 DUP2 PUSH2 0x1A91 PUSH2 0x2710 DUP10 DIV PUSH32 0x0 PUSH1 0x4 DUP5 ADD PUSH1 0x20 SWAP1 SWAP4 SWAP3 SWAP2 SWAP4 PUSH1 0x1 PUSH1 0x1 PUSH1 0xA0 SHL SUB PUSH1 0x40 DUP3 ADD SWAP6 AND DUP2 MSTORE ADD MSTORE JUMP JUMPDEST SUB SWAP3 GAS CALL SWAP1 DUP2 ISZERO PUSH2 0x462 JUMPI PUSH1 0x0 SWAP2 PUSH2 0x1AF5 JUMPI JUMPDEST POP ISZERO PUSH2 0x1AB1 JUMPI SWAP1 CODESIZE PUSH2 0x1922 JUMP JUMPDEST PUSH1 0x64 PUSH1 0x40 MLOAD PUSH3 0x461BCD PUSH1 0xE5 SHL DUP2 MSTORE PUSH1 0x20 PUSH1 0x4 DUP3 ADD MSTORE PUSH1 0x13 PUSH1 0x24 DUP3 ADD MSTORE PUSH32 0x466565207472616E73666572206661696C656400000000000000000000000000 PUSH1 0x44 DUP3 ADD MSTORE REVERT JUMPDEST PUSH2 0x1B0E SWAP2 POP PUSH1 0x20 RETURNDATASIZE PUSH1 0x20 GT PUSH2 0x45B JUMPI PUSH2 0x44D DUP2 DUP4 PUSH2 0x1419 JUMP JUMPDEST CODESIZE PUSH2 0x1AA4 JUMP JUMPDEST PUSH1 0x64 PUSH1 0x40 MLOAD PUSH3 0x461BCD PUSH1 0xE5 SHL DUP2 MSTORE PUSH1 0x20 PUSH1 0x4 DUP3 ADD MSTORE PUSH1 0x15 PUSH1 0x24 DUP3 ADD MSTORE PUSH32 0x5072697A65207472616E73666572206661696C65640000000000000000000000 PUSH1 0x44 DUP3 ADD MSTORE REVERT JUMPDEST PUSH2 0x1B71 SWAP2 POP PUSH1 0x20 RETURNDATASIZE PUSH1 0x20 GT PUSH2 0x45B JUMPI PUSH2 0x44D DUP2 DUP4 PUSH2 0x1419 JUMP JUMPDEST CODESIZE PUSH2 0x1912 JUMP JUMPDEST PUSH1 0x1 PUSH1 0x1 PUSH1 0xA0 SHL SUB DUP1 SWAP2 AND SWAP1 PUSH1 0x0 SWAP1 DUP3 DUP3 MSTORE PUSH1 0x5 PUSH1 0x20 MSTORE PUSH1 0x40 DUP3 KECCAK256 SLOAD ISZERO DUP1 PUSH2 0x1C01 JUMPI JUMPDEST PUSH2 0x1BA3 JUMPI POP POP POP JUMP JUMPDEST PUSH1 0x4 SLOAD PUSH9 0x10000000000000000 DUP2 LT ISZERO PUSH2 0x1BED JUMPI SWAP1 PUSH2 0x1BCB DUP3 PUSH1 0x1 PUSH1 0x40 SWAP6 SWAP5 ADD PUSH1 0x4 SSTORE PUSH2 0x137D JUMP JUMPDEST DUP2 SWAP3 SWAP2 SLOAD SWAP1 PUSH1 0x3 SHL SWAP2 DUP7 DUP4 SHL SWAP3 SHL NOT AND OR SWAP1 SSTORE PUSH1 0x4 SLOAD SWAP3 DUP2 MSTORE PUSH1 0x5 PUSH1 0x20 MSTORE KECCAK256 SSTORE JUMP JUMPDEST PUSH1 0x24 DUP4 PUSH4 0x4E487B71 PUSH1 0xE0 SHL DUP2 MSTORE PUSH1 0x41 PUSH1 0x4 MSTORE REVERT JUMPDEST POP PUSH1 0x4 SLOAD ISZERO PUSH2 0x1C3A JUMPI PUSH1 0x4 DUP3 MSTORE DUP1 PUSH32 0x8A35ACFBC15FF81A39AE7D344FD709F28E8600B4AA8C65C6B64BFE7FE36BD19B SLOAD AND DUP4 EQ ISZERO PUSH2 0x1B9A JUMP JUMPDEST PUSH1 0x24 DUP3 PUSH4 0x4E487B71 PUSH1 0xE0 SHL DUP2 MSTORE PUSH1 0x32 PUSH1 0x4 MSTORE REVERT INVALID LOG2 PUSH5 0x6970667358 0x22 SLT KECCAK256 0xE6 RETURN BLOBHASH JUMPI RETURN SWAP6 DUP14 0xEA PREVRANDAO 0x2E 0xDA AND PUSH9 0xA583340F93D5EDEA1E 0x4F SWAP6 0xD3 BYTE 0x4C 0xB6 0x4E SMOD OR 0xE7 PUSH5 0x736F6C6343 STOP ADDMOD XOR STOP CALLER "},"methodIdentifiers":{"batchRegisterVerified(address[])":"c0938ad4","cancelDuel(bytes32)":"123fa3b6","confirmResult(bytes32,address)":"d9c88cf7","confirmations(bytes32,address)":"0c4ecab4","createDuel(bytes32,uint256,address)":"fb39fb52","duels(bytes32)":"d18aae70","feeBps()":"24a9d853","feeCollector()":"c415b95c","forceFinishDuel(bytes32,address)":"b4e1a268","getDuel(bytes32)":"56c50e3f","getPlayerStats(address)":"4fd66eae","getPlayers(uint256,uint256)":"0d2dce22","isVerified(address)":"b9209e33","joinDuel(bytes32)":"ed5eb77a","owner()":"8da5cb5b","players(uint256)":"f71d96cb","registerVerifiedPlayer(address)":"e0710749","stats(address)":"8bcdcbf3","verifiedPlayers(address)":"fb3a6acc"}}}}}