{
  "_format": "hh-sol-artifact-1",
  "contractName": "ReferralSystem",
  "sourceName": "contracts/ReferralSystem.sol",
  "abi": [
    {
      "inputs": [
        {
          "internalType": "uint256",
          "name": "_referralRewardBps",
          "type": "uint256"
        }
      ],
      "stateMutability": "nonpayable",
      "type": "constructor"
    },
    {
      "anonymous": false,
      "inputs": [
        {
          "indexed": true,
          "internalType": "address",
          "name": "user",
          "type": "address"
        },
        {
          "indexed": true,
          "internalType": "address",
          "name": "referrer",
          "type": "address"
        }
      ],
      "name": "ReferralRegistered",
      "type": "event"
    },
    {
      "anonymous": false,
      "inputs": [
        {
          "indexed": true,
          "internalType": "address",
          "name": "referrer",
          "type": "address"
        },
        {
          "indexed": true,
          "internalType": "address",
          "name": "referee",
          "type": "address"
        },
        {
          "indexed": false,
          "internalType": "uint256",
          "name": "amount",
          "type": "uint256"
        }
      ],
      "name": "ReferralRewardEarned",
      "type": "event"
    },
    {
      "anonymous": false,
      "inputs": [
        {
          "indexed": true,
          "internalType": "address",
          "name": "referrer",
          "type": "address"
        },
        {
          "indexed": false,
          "internalType": "uint256",
          "name": "amount",
          "type": "uint256"
        }
      ],
      "name": "RewardsClaimed",
      "type": "event"
    },
    {
      "inputs": [],
      "name": "claimRewards",
      "outputs": [],
      "stateMutability": "nonpayable",
      "type": "function"
    },
    {
      "inputs": [
        {
          "internalType": "address",
          "name": "user",
          "type": "address"
        }
      ],
      "name": "getReferralData",
      "outputs": [
        {
          "components": [
            {
              "internalType": "address",
              "name": "referrer",
              "type": "address"
            },
            {
              "internalType": "uint256",
              "name": "referrals",
              "type": "uint256"
            },
            {
              "internalType": "uint256",
              "name": "totalEarnings",
              "type": "uint256"
            },
            {
              "internalType": "uint256",
              "name": "claimedEarnings",
              "type": "uint256"
            }
          ],
          "internalType": "struct ReferralSystem.ReferralData",
          "name": "",
          "type": "tuple"
        }
      ],
      "stateMutability": "view",
      "type": "function"
    },
    {
      "inputs": [
        {
          "internalType": "address",
          "name": "user",
          "type": "address"
        }
      ],
      "name": "getReferrer",
      "outputs": [
        {
          "internalType": "address",
          "name": "",
          "type": "address"
        }
      ],
      "stateMutability": "view",
      "type": "function"
    },
    {
      "inputs": [],
      "name": "owner",
      "outputs": [
        {
          "internalType": "address",
          "name": "",
          "type": "address"
        }
      ],
      "stateMutability": "view",
      "type": "function"
    },
    {
      "inputs": [
        {
          "internalType": "address",
          "name": "referee",
          "type": "address"
        },
        {
          "internalType": "uint256",
          "name": "transactionAmount",
          "type": "uint256"
        }
      ],
      "name": "recordReferralReward",
      "outputs": [],
      "stateMutability": "nonpayable",
      "type": "function"
    },
    {
      "inputs": [],
      "name": "referralRewardBps",
      "outputs": [
        {
          "internalType": "uint256",
          "name": "",
          "type": "uint256"
        }
      ],
      "stateMutability": "view",
      "type": "function"
    },
    {
      "inputs": [
        {
          "internalType": "address",
          "name": "",
          "type": "address"
        }
      ],
      "name": "referrals",
      "outputs": [
        {
          "internalType": "address",
          "name": "referrer",
          "type": "address"
        },
        {
          "internalType": "uint256",
          "name": "referrals",
          "type": "uint256"
        },
        {
          "internalType": "uint256",
          "name": "totalEarnings",
          "type": "uint256"
        },
        {
          "internalType": "uint256",
          "name": "claimedEarnings",
          "type": "uint256"
        }
      ],
      "stateMutability": "view",
      "type": "function"
    },
    {
      "inputs": [
        {
          "internalType": "address",
          "name": "",
          "type": "address"
        }
      ],
      "name": "referrerOf",
      "outputs": [
        {
          "internalType": "address",
          "name": "",
          "type": "address"
        }
      ],
      "stateMutability": "view",
      "type": "function"
    },
    {
      "inputs": [
        {
          "internalType": "address",
          "name": "referrer",
          "type": "address"
        }
      ],
      "name": "registerReferral",
      "outputs": [],
      "stateMutability": "nonpayable",
      "type": "function"
    },
    {
      "inputs": [
        {
          "internalType": "address",
          "name": "",
          "type": "address"
        }
      ],
      "name": "registered",
      "outputs": [
        {
          "internalType": "bool",
          "name": "",
          "type": "bool"
        }
      ],
      "stateMutability": "view",
      "type": "function"
    },
    {
      "inputs": [
        {
          "internalType": "uint256",
          "name": "newBps",
          "type": "uint256"
        }
      ],
      "name": "setReferralRewardBps",
      "outputs": [],
      "stateMutability": "nonpayable",
      "type": "function"
    }
  ],
  "bytecode": "0x60a03461006557601f6107e838819003918201601f19168301916001600160401b0383118484101761006a5780849260209460405283398101031261006557513360805260005560405161076790816100818239608051818181610135015261030c0152f35b600080fd5b634e487b7160e01b600052604160045260246000fdfe608060408181526004918236101561001657600080fd5b600092833560e01c918263209ab7111461046e575081632bd15fa514610443578163372500ab146103765781634a9fefc71461034d57816375f4c059146103305781638da5cb5b146102ec5781639ca423b31461028f578163a3674633146101f5578163b09e603f1461011557508063b2dd5c07146100da5763d21cacdf1461009e57600080fd5b346100d65760203660031901126100d657602091816001600160a01b0391826100c561061e565b168152600285522054169051908152f35b5080fd5b50346100d65760203660031901126100d65760ff816020936001600160a01b0361010261061e565b1681526003855220541690519015158152f35b9050346101f15760203660031901126101f1578035916001600160a01b037f00000000000000000000000000000000000000000000000000000000000000001633036101ae576103e8831161016b575050815580f35b906020606492519162461bcd60e51b8352820152600760248201527f4d617820313025000000000000000000000000000000000000000000000000006044820152fd5b906020606492519162461bcd60e51b8352820152600960248201527f4e6f74206f776e657200000000000000000000000000000000000000000000006044820152fd5b8280fd5b5050346100d65760203660031901126100d6576080918161021461061e565b918060606102206106fb565b828152826020820152828582015201526001600160a01b0380931681526001602052209161024c6106fb565b9183541692838352600181015460208401908152606060036002840154938587019485520154940193845282519485525160208501525190830152516060820152f35b5050346100d65760203660031901126100d65790816080926001600160a01b0392836102b961061e565b16815260016020522091825416916001810154916003600283015492015492815194855260208501528301526060820152f35b5050346100d657816003193601126100d657602090516001600160a01b037f0000000000000000000000000000000000000000000000000000000000000000168152f35b5050346100d657816003193601126100d657602091549051908152f35b5050346100d65760203660031901126100d657602091816001600160a01b0391826100c561061e565b919050346101f157826003193601126101f15733835260016020528083209160036002840154930190815490818503948086116104305782146103ed5750836103be91610639565b9055519081527ffc30cddea38e2bf4d6ea7d3f9ed3b6ad7f176419f4963bd81318067a4aee73fe60203392a280f35b606490602085519162461bcd60e51b8352820152600a60248201527f4e6f2072657761726473000000000000000000000000000000000000000000006044820152fd5b602487601184634e487b7160e01b835252fd5b5050346100d65736600319011261046b5761046861045f61061e565b6024359061065c565b80f35b80fd5b8491843461061a57602092836003193601126106165761048c61061e565b903386526003855260ff83872054166105d657506001600160a01b03169233841461059557831561055457906001809233875260028152828720867fffffffffffffffffffffffff0000000000000000000000000000000000000000825416179055600381528287208260ff198254161790558587525284200190815490600019821461054157506001019055337f5f1ca2fcc108b751843a763e60d2201f593516109d7dbb1b700468f2d4190bb78380a380f35b846011602492634e487b7160e01b835252fd5b60649291519162461bcd60e51b8352820152601060248201527f496e76616c6964207265666572726572000000000000000000000000000000006044820152fd5b60649291519162461bcd60e51b8352820152601160248201527f43616e6e6f742072656665722073656c660000000000000000000000000000006044820152fd5b80858562461bcd60e51b60649452820152601260248201527f416c7265616479207265676973746572656400000000000000000000000000006044820152fd5b8480fd5b8380fd5b600435906001600160a01b038216820361063457565b600080fd5b9190820180921161064657565b634e487b7160e01b600052601160045260246000fd5b906001600160a01b038092169160009083825260026020526040822054169182156106f5578154908181029181830414901517156106e1577fe05841e5a327956f4a370d19d6e54c700a6b2638644182706f8ac8738c35fb8a916002604061271060209404928681526001855220016106d6828254610639565b9055604051908152a3565b602482634e487b7160e01b81526011600452fd5b50505050565b604051906080820182811067ffffffffffffffff82111761071b57604052565b634e487b7160e01b600052604160045260246000fdfea264697066735822122072152115778a41a68af004c2822eda1ca0bb9d4a58dc9c589569d5424219dd6664736f6c63430008180033",
  "linkReferences": {},
  "deployedLinkReferences": {}
}