{
  "_format": "hh-sol-artifact-1",
  "contractName": "DuelManagerV2",
  "sourceName": "contracts/DuelManagerV2.sol",
  "abi": [
    {
      "inputs": [
        {
          "internalType": "address",
          "name": "_feeCollector",
          "type": "address"
        },
        {
          "internalType": "uint256",
          "name": "_feeBps",
          "type": "uint256"
        }
      ],
      "stateMutability": "nonpayable",
      "type": "constructor"
    },
    {
      "anonymous": false,
      "inputs": [
        {
          "indexed": true,
          "internalType": "bytes32",
          "name": "id",
          "type": "bytes32"
        }
      ],
      "name": "DuelCancelled",
      "type": "event"
    },
    {
      "anonymous": false,
      "inputs": [
        {
          "indexed": true,
          "internalType": "bytes32",
          "name": "id",
          "type": "bytes32"
        },
        {
          "indexed": true,
          "internalType": "address",
          "name": "player1",
          "type": "address"
        },
        {
          "indexed": false,
          "internalType": "uint256",
          "name": "stake",
          "type": "uint256"
        },
        {
          "indexed": true,
          "internalType": "address",
          "name": "token",
          "type": "address"
        }
      ],
      "name": "DuelCreated",
      "type": "event"
    },
    {
      "anonymous": false,
      "inputs": [
        {
          "indexed": true,
          "internalType": "bytes32",
          "name": "id",
          "type": "bytes32"
        },
        {
          "indexed": true,
          "internalType": "address",
          "name": "winner",
          "type": "address"
        },
        {
          "indexed": false,
          "internalType": "uint256",
          "name": "prize",
          "type": "uint256"
        },
        {
          "indexed": false,
          "internalType": "uint256",
          "name": "fee",
          "type": "uint256"
        }
      ],
      "name": "DuelFinished",
      "type": "event"
    },
    {
      "anonymous": false,
      "inputs": [
        {
          "indexed": true,
          "internalType": "bytes32",
          "name": "id",
          "type": "bytes32"
        },
        {
          "indexed": true,
          "internalType": "address",
          "name": "player2",
          "type": "address"
        }
      ],
      "name": "DuelJoined",
      "type": "event"
    },
    {
      "anonymous": false,
      "inputs": [
        {
          "indexed": true,
          "internalType": "bytes32",
          "name": "id",
          "type": "bytes32"
        }
      ],
      "name": "DuelStarted",
      "type": "event"
    },
    {
      "anonymous": false,
      "inputs": [
        {
          "indexed": true,
          "internalType": "address",
          "name": "player",
          "type": "address"
        }
      ],
      "name": "PlayerVerified",
      "type": "event"
    },
    {
      "anonymous": false,
      "inputs": [
        {
          "indexed": true,
          "internalType": "bytes32",
          "name": "id",
          "type": "bytes32"
        },
        {
          "indexed": true,
          "internalType": "address",
          "name": "player",
          "type": "address"
        },
        {
          "indexed": true,
          "internalType": "address",
          "name": "winner",
          "type": "address"
        }
      ],
      "name": "ResultConfirmed",
      "type": "event"
    },
    {
      "inputs": [
        {
          "internalType": "address[]",
          "name": "playerList",
          "type": "address[]"
        }
      ],
      "name": "batchRegisterVerified",
      "outputs": [],
      "stateMutability": "nonpayable",
      "type": "function"
    },
    {
      "inputs": [
        {
          "internalType": "bytes32",
          "name": "id",
          "type": "bytes32"
        }
      ],
      "name": "cancelDuel",
      "outputs": [],
      "stateMutability": "nonpayable",
      "type": "function"
    },
    {
      "inputs": [
        {
          "internalType": "bytes32",
          "name": "id",
          "type": "bytes32"
        },
        {
          "internalType": "address",
          "name": "winner",
          "type": "address"
        }
      ],
      "name": "confirmResult",
      "outputs": [],
      "stateMutability": "nonpayable",
      "type": "function"
    },
    {
      "inputs": [
        {
          "internalType": "bytes32",
          "name": "",
          "type": "bytes32"
        },
        {
          "internalType": "address",
          "name": "",
          "type": "address"
        }
      ],
      "name": "confirmations",
      "outputs": [
        {
          "internalType": "address",
          "name": "",
          "type": "address"
        }
      ],
      "stateMutability": "view",
      "type": "function"
    },
    {
      "inputs": [
        {
          "internalType": "bytes32",
          "name": "id",
          "type": "bytes32"
        },
        {
          "internalType": "uint256",
          "name": "stake",
          "type": "uint256"
        },
        {
          "internalType": "address",
          "name": "token",
          "type": "address"
        }
      ],
      "name": "createDuel",
      "outputs": [],
      "stateMutability": "nonpayable",
      "type": "function"
    },
    {
      "inputs": [
        {
          "internalType": "bytes32",
          "name": "",
          "type": "bytes32"
        }
      ],
      "name": "duels",
      "outputs": [
        {
          "internalType": "bytes32",
          "name": "id",
          "type": "bytes32"
        },
        {
          "internalType": "address",
          "name": "player1",
          "type": "address"
        },
        {
          "internalType": "address",
          "name": "player2",
          "type": "address"
        },
        {
          "internalType": "uint128",
          "name": "stake",
          "type": "uint128"
        },
        {
          "internalType": "address",
          "name": "token",
          "type": "address"
        },
        {
          "internalType": "uint8",
          "name": "status",
          "type": "uint8"
        },
        {
          "internalType": "address",
          "name": "winner",
          "type": "address"
        },
        {
          "internalType": "uint64",
          "name": "createdAt",
          "type": "uint64"
        },
        {
          "internalType": "uint64",
          "name": "finishedAt",
          "type": "uint64"
        }
      ],
      "stateMutability": "view",
      "type": "function"
    },
    {
      "inputs": [],
      "name": "feeBps",
      "outputs": [
        {
          "internalType": "uint256",
          "name": "",
          "type": "uint256"
        }
      ],
      "stateMutability": "view",
      "type": "function"
    },
    {
      "inputs": [],
      "name": "feeCollector",
      "outputs": [
        {
          "internalType": "address",
          "name": "",
          "type": "address"
        }
      ],
      "stateMutability": "view",
      "type": "function"
    },
    {
      "inputs": [
        {
          "internalType": "bytes32",
          "name": "id",
          "type": "bytes32"
        },
        {
          "internalType": "address",
          "name": "winner",
          "type": "address"
        }
      ],
      "name": "forceFinishDuel",
      "outputs": [],
      "stateMutability": "nonpayable",
      "type": "function"
    },
    {
      "inputs": [
        {
          "internalType": "bytes32",
          "name": "id",
          "type": "bytes32"
        }
      ],
      "name": "getDuel",
      "outputs": [
        {
          "components": [
            {
              "internalType": "bytes32",
              "name": "id",
              "type": "bytes32"
            },
            {
              "internalType": "address",
              "name": "player1",
              "type": "address"
            },
            {
              "internalType": "address",
              "name": "player2",
              "type": "address"
            },
            {
              "internalType": "uint128",
              "name": "stake",
              "type": "uint128"
            },
            {
              "internalType": "address",
              "name": "token",
              "type": "address"
            },
            {
              "internalType": "uint8",
              "name": "status",
              "type": "uint8"
            },
            {
              "internalType": "address",
              "name": "winner",
              "type": "address"
            },
            {
              "internalType": "uint64",
              "name": "createdAt",
              "type": "uint64"
            },
            {
              "internalType": "uint64",
              "name": "finishedAt",
              "type": "uint64"
            }
          ],
          "internalType": "struct DuelManagerV2.Duel",
          "name": "",
          "type": "tuple"
        }
      ],
      "stateMutability": "view",
      "type": "function"
    },
    {
      "inputs": [
        {
          "internalType": "address",
          "name": "player",
          "type": "address"
        }
      ],
      "name": "getPlayerStats",
      "outputs": [
        {
          "components": [
            {
              "internalType": "uint128",
              "name": "wins",
              "type": "uint128"
            },
            {
              "internalType": "uint128",
              "name": "losses",
              "type": "uint128"
            },
            {
              "internalType": "uint192",
              "name": "winnings",
              "type": "uint192"
            },
            {
              "internalType": "uint192",
              "name": "totalStaked",
              "type": "uint192"
            }
          ],
          "internalType": "struct DuelManagerV2.PlayerStats",
          "name": "",
          "type": "tuple"
        }
      ],
      "stateMutability": "view",
      "type": "function"
    },
    {
      "inputs": [
        {
          "internalType": "uint256",
          "name": "start",
          "type": "uint256"
        },
        {
          "internalType": "uint256",
          "name": "count",
          "type": "uint256"
        }
      ],
      "name": "getPlayers",
      "outputs": [
        {
          "internalType": "address[]",
          "name": "",
          "type": "address[]"
        }
      ],
      "stateMutability": "view",
      "type": "function"
    },
    {
      "inputs": [
        {
          "internalType": "address",
          "name": "player",
          "type": "address"
        }
      ],
      "name": "isVerified",
      "outputs": [
        {
          "internalType": "bool",
          "name": "",
          "type": "bool"
        }
      ],
      "stateMutability": "view",
      "type": "function"
    },
    {
      "inputs": [
        {
          "internalType": "bytes32",
          "name": "id",
          "type": "bytes32"
        }
      ],
      "name": "joinDuel",
      "outputs": [],
      "stateMutability": "nonpayable",
      "type": "function"
    },
    {
      "inputs": [],
      "name": "owner",
      "outputs": [
        {
          "internalType": "address",
          "name": "",
          "type": "address"
        }
      ],
      "stateMutability": "view",
      "type": "function"
    },
    {
      "inputs": [
        {
          "internalType": "uint256",
          "name": "",
          "type": "uint256"
        }
      ],
      "name": "players",
      "outputs": [
        {
          "internalType": "address",
          "name": "",
          "type": "address"
        }
      ],
      "stateMutability": "view",
      "type": "function"
    },
    {
      "inputs": [
        {
          "internalType": "address",
          "name": "player",
          "type": "address"
        }
      ],
      "name": "registerVerifiedPlayer",
      "outputs": [],
      "stateMutability": "nonpayable",
      "type": "function"
    },
    {
      "inputs": [
        {
          "internalType": "address",
          "name": "",
          "type": "address"
        }
      ],
      "name": "stats",
      "outputs": [
        {
          "internalType": "uint128",
          "name": "wins",
          "type": "uint128"
        },
        {
          "internalType": "uint128",
          "name": "losses",
          "type": "uint128"
        },
        {
          "internalType": "uint192",
          "name": "winnings",
          "type": "uint192"
        },
        {
          "internalType": "uint192",
          "name": "totalStaked",
          "type": "uint192"
        }
      ],
      "stateMutability": "view",
      "type": "function"
    },
    {
      "inputs": [
        {
          "internalType": "address",
          "name": "",
          "type": "address"
        }
      ],
      "name": "verifiedPlayers",
      "outputs": [
        {
          "internalType": "bool",
          "name": "",
          "type": "bool"
        }
      ],
      "stateMutability": "view",
      "type": "function"
    }
  ],
  "bytecode": "0x60e0346100f657601f611d9638819003918201601f19168301916001600160401b038311848410176100fb5780849260409485528339810103126100f65780516001600160a01b038116918282036100f6576020015133608052916100f15750335b60a0526107d081116100bd5760c052604051611c84908161011282396080518181816108a701528181610c1d01528181610ce80152610e07015260a051818181610b990152611a53015260c0518181816110f8015261180c0152f35b60405162461bcd60e51b815260206004820152600c60248201526b08ccaca40e8dede40d0d2ced60a31b6044820152606490fd5b610061565b600080fd5b634e487b7160e01b600052604160045260246000fdfe60808060405260048036101561001457600080fd5b60003560e01c9182630c4ecab41461130c575081630d2dce221461129f578163123fa3b61461111b57816324a9d853146110e05781634fd66eae1461102257816356c50e3f14610e985781638bcdcbf314610e2b5781638da5cb5b14610de7578163b4e1a26814610cb9578163b9209e33146100f2578163c0938ad414610bbd578163c415b95c14610b79578163d18aae7014610ace578163d9c88cf71461090f578163e07107491461087f578163ed5eb77a1461058a578163f71d96cb1461054b578163fb39fb5214610136575063fb3a6acc146100f257600080fd5b34610131576020366003190112610131576001600160a01b03610113611367565b166000526003602052602060ff604060002054166040519015158152f35b600080fd5b346101315760603660031901126101315760243590604435916001600160a01b0383168093036101315733600052600360205261017a60ff604060002054166116e4565b813560005260006020526001600160a01b036001604060002001541661050757801515806104f6575b156104b257821561046e576040516101ba816113fc565b82358152336020820152600060408201526001600160801b0382166060820152836080820152600060a0820152600060c082015267ffffffffffffffff421660e082015260006101008201528235600052600060205267ffffffffffffffff6101006006604060002084518155600181016001600160a01b036020870151169073ffffffffffffffffffffffffffffffffffffffff19918282541617905560028201906001600160a01b0360408801511690825416179055600381016001600160801b036060870151166fffffffffffffffffffffffffffffffff198254161790558681016001600160a01b036080870151168154907fffffffffffffffffffffff00000000000000000000000000000000000000000074ff000000000000000000000000000000000000000060a08a015160a01b16921617179055600581016001600160a01b0360c0870151168154907fffffffff000000000000000000000000000000000000000000000000000000007bffffffffffffffff000000000000000000000000000000000000000060e08a015160a01b16921617179055019201511667ffffffffffffffff198254161790556040516323b872dd60e01b815233838201523060248201528160448201526020816064816000885af18015610462576103ae91600091610433575b5061172f565b336000526002602052604060002060026001600160c01b0391019077ffffffffffffffffffffffffffffffffffffffffffffffff198254916103f481861682851661177a565b16911617905561040333611b77565b6040519081527fc387dbc55364fece0c83fa65c865f1dcef6ab6a86829e50446076911b9068681602033933592a4005b610455915060203d60201161045b575b61044d8183611419565b8101906115c7565b856103a8565b503d610443565b6040513d6000823e3d90fd5b60648260206040519162461bcd60e51b8352820152600e60248201527f546f6b656e2072657175697265640000000000000000000000000000000000006044820152fd5b60648260206040519162461bcd60e51b8352820152600d60248201527f496e76616c6964207374616b65000000000000000000000000000000000000006044820152fd5b506001600160801b038111156101a3565b60648260206040519162461bcd60e51b8352820152600b60248201527f4475656c206578697374730000000000000000000000000000000000000000006044820152fd5b346101315760203660031901126101315780359054811015610131576001600160a01b0361057a60209261137d565b9190546040519260031b1c168152f35b34610131576020806003193601126101315781359133600052600382526105b860ff604060002054166116e4565b82600052600082526040600020906001600160a01b03928360018401541692831561083c578281018054946105f360ff8760a01c161561157c565b60028301908154908882166107f9578033146107b6576000526003855260ff6040600020541615610773579184939160039373ffffffffffffffffffffffffffffffffffffffff193391161790557401000000000000000000000000000000000000000060ff60a01b198816179055019460646001600160801b03946000868954169360405198899586946323b872dd60e01b865233908601523060248601526044850152165af1908115610462576106b8600294928593600091610756575061172f565b3360005252604060002092541691019077ffffffffffffffffffffffffffffffffffffffffffffffff198254916106f96001600160c01b039182851661177a565b16911617905561070833611b77565b33817f1eb43aa8ef4d730d2f76aae922aafdbd064efa3352f73fd40fa1d3bbef4cd057600080a37fb37fb54a76f874f0ec60d8cd7ffdcd72d64968a3b511f407f16cafd9b50a7708600080a2005b61076d9150833d851161045b5761044d8183611419565b886103a8565b606486866040519162461bcd60e51b8352820152601460248201527f506c6179657231206e6f742076657269666965640000000000000000000000006044820152fd5b606487876040519162461bcd60e51b8352820152600b60248201527f53616d6520706c617965720000000000000000000000000000000000000000006044820152fd5b606487876040519162461bcd60e51b8352820152600660248201527f4a6f696e656400000000000000000000000000000000000000000000000000006044820152fd5b606483836040519162461bcd60e51b8352820152600c60248201527f4475656c206d697373696e6700000000000000000000000000000000000000006044820152fd5b3461013157602036600319011261013157610898611367565b6001600160a01b03906108ce827f00000000000000000000000000000000000000000000000000000000000000001633146115df565b168060005260036020526040600020600160ff198254161790557f35e92767eff4a063167fc37f0df63960429cd730dca0d179d48253fc2aa0d15f600080a2005b346101315760403660031901126101315780359061092b611351565b82600052602091600083526040600020926001600160a01b0392600194848087830154163314918215610abd575b505015610a7a5785600052600082526109818560ff60406000209586015460a01c161461162a565b84830190848083541691169081148015610a6b575b61099f90611675565b86600052858352604060002033600052835260406000208173ffffffffffffffffffffffffffffffffffffffff1982541617905533877fdf9e8954c1fe1dc40676cadb9b3e2d1ebee0b2437c9dd6632cb289ba62a46eab600080a485600052848252836040600020915416600052815282604060002054169385600052815282600260406000209301541660005252604060002054168115159081610a61575b81610a57575b50610a4c57005b610a55916117ad565b005b9050811483610a45565b8015159150610a3f565b50600284015485168114610996565b606483836040519162461bcd60e51b8352820152600c60248201527f4e6f74206120706c6179657200000000000000000000000000000000000000006044820152fd5b600291925001541633148488610959565b3461013157602036600319011261013157806101209135600052600060205260406000209060068254926001600160a01b0360ff816001840154169482600285015416906001600160801b03600386015416908501549160058601549567ffffffffffffffff97889101541697604051998a5260208a015260408901526060880152828116608088015260a01c1660a0860152811660c085015260a01c1660e0830152610100820152f35b346101315760003660031901126101315760206040516001600160a01b037f0000000000000000000000000000000000000000000000000000000000000000168152f35b346101315760209060206003193601126101315780359067ffffffffffffffff90818311610131573660238401121561013157820135908111610131576024820191602436918360051b010111610131576001600160a01b0390610c44827f00000000000000000000000000000000000000000000000000000000000000001633146115df565b60005b818110610c5057005b8083610c67610c6260019486896116c0565b6116d0565b166000526003865260406000208260ff1982541617905583610c8d610c628386896116c0565b167f35e92767eff4a063167fc37f0df63960429cd730dca0d179d48253fc2aa0d15f600080a201610c47565b34610131576040366003190112610131578035610cd4611351565b906005610e106001600160a01b03610d0f817f00000000000000000000000000000000000000000000000000000000000000001633146115df565b836000526000602052610d52604060002091610d36600160ff8a86015460a01c161461162a565b80600184015416818816908114918215610dd7575b5050611675565b67ffffffffffffffff928391015460a01c1601818111610dc25716421115610d7e57610a5592506117ad565b60648360206040519162461bcd60e51b8352820152600960248201527f546f6f206561726c7900000000000000000000000000000000000000000000006044820152fd5b601185634e487b7160e01b6000525260246000fd5b6002850154161490508880610d4b565b346101315760003660031901126101315760206040516001600160a01b037f0000000000000000000000000000000000000000000000000000000000000000168152f35b34610131576020366003190112610131576001600160a01b03610e4c611367565b166000526002602052608060406000208054906001600160c01b036002816001840154169201541690604051926001600160801b0381168452841c602084015260408301526060820152f35b3461013157602036600319011261013157610120906000610100604051610ebe816113fc565b8281528260208201528260408201528260608201528260808201528260a08201528260c08201528260e082015201528035600052600060205267ffffffffffffffff610100604060002082600660405192610f18846113fc565b60ff8154978886526001600160a01b0360018401541660208701526001600160a01b0360028401541660408701526001600160801b0360038401541660608701528201546001600160a01b038116608087015260a01c1660a08501528260058201546001600160a01b03811660c087015260a01c1660e0850152015416828201526040519384526001600160a01b0360208201511660208501526001600160a01b0360408201511660408501526001600160801b0360608201511660608501526001600160a01b03608082015116608085015260ff60a08201511660a08501526001600160a01b0360c08201511660c08501528260e08201511660e0850152015116610100820152f35b34610131576020366003190112610131576001600160a01b03611043611367565b60006060604051611053816113ca565b828152826020820152826040820152015216600052600260205260806040600020604051611080816113ca565b8154906001600160801b0391828116938483526020830191861c82526001600160c01b0393849260608460028160018701541695604089019687520154169501948552604051968752511660208601525116604084015251166060820152f35b346101315760003660031901126101315760206040517f00000000000000000000000000000000000000000000000000000000000000008152f35b34610131576020908160031936011261013157803591826000526000815260406000206001600160a01b038060018301541633810361125c57906044849260006001600160801b0360038988019788549861117c60ff8b60a01c161561157c565b7403000000000000000000000000000000000000000060ff60a01b198b1617905501541693604051968795869463a9059cbb60e01b86528b8601526024850152165af19081156104625760009161123f575b50156111fc57827f5d798f443a55745e766f01169abbf30e321258c3ac925c948d1fad2c068967e4600080a2005b606492506040519162461bcd60e51b8352820152600d60248201527f526566756e64206661696c6564000000000000000000000000000000000000006044820152fd5b6112569150823d841161045b5761044d8183611419565b846111ce565b606485856040519162461bcd60e51b8352820152600c60248201527f4f6e6c792063726561746f7200000000000000000000000000000000000000006044820152fd5b34610131576040366003190112610131576112be906024359035611483565b6040518091602080830160208452825180915260206040850193019160005b8281106112ec57505050500390f35b83516001600160a01b0316855286955093810193928101926001016112dd565b3461013157604036600319011261013157602091611328611351565b90356000526001835260406000206001600160a01b038092166000528352604060002054168152f35b602435906001600160a01b038216820361013157565b600435906001600160a01b038216820361013157565b6004548110156113b45760046000527f8a35acfbc15ff81a39ae7d344fd709f28e8600b4aa8c65c6b64bfe7fe36bd19b0190600090565b634e487b7160e01b600052603260045260246000fd5b6080810190811067ffffffffffffffff8211176113e657604052565b634e487b7160e01b600052604160045260246000fd5b610120810190811067ffffffffffffffff8211176113e657604052565b90601f8019910116810190811067ffffffffffffffff8211176113e657604052565b67ffffffffffffffff81116113e65760051b60200190565b9190820180921161146057565b634e487b7160e01b600052601160045260246000fd5b9190820391821161146057565b90600490600454908184101561154f576114b1916114a2859283611453565b90808211611547575b50611476565b6114ba8161143b565b926114c86040519485611419565b8184526114d48261143b565b60209190601f1901368684013760009060005b8481106114f75750505050505090565b6115096115048284611453565b61137d565b90549088518310156115345760031b1c6001600160a01b0316600582901b88018501526001016114e7565b60248560328a634e487b7160e01b835252fd5b9050386114ab565b505050506040516020810181811067ffffffffffffffff8211176113e65760405260008152600036813790565b1561158357565b606460405162461bcd60e51b815260206004820152600860248201527f4e6f74206f70656e0000000000000000000000000000000000000000000000006044820152fd5b90816020910312610131575180151581036101315790565b156115e657565b606460405162461bcd60e51b815260206004820152600960248201527f4e6f74206f776e657200000000000000000000000000000000000000000000006044820152fd5b1561163157565b606460405162461bcd60e51b815260206004820152600a60248201527f4e6f7420616374697665000000000000000000000000000000000000000000006044820152fd5b1561167c57565b606460405162461bcd60e51b815260206004820152600e60248201527f496e76616c69642077696e6e65720000000000000000000000000000000000006044820152fd5b91908110156113b45760051b0190565b356001600160a01b03811681036101315790565b156116eb57565b606460405162461bcd60e51b815260206004820152600c60248201527f4e6f7420766572696669656400000000000000000000000000000000000000006044820152fd5b1561173657565b606460405162461bcd60e51b815260206004820152600f60248201527f5472616e73666572206661696c656400000000000000000000000000000000006044820152fd5b9190916001600160c01b038080941691160191821161146057565b9060016001600160801b038093160191821161146057565b8060005260006020526040600020916004830154926117d4600160ff8660a01c161461162a565b6003810154907001fffffffffffffffffffffffffffffffe6001600160801b0383169260011b169180830460021490151715611460577f0000000000000000000000000000000000000000000000000000000000000000918281029281840414811517156114605761184b90612710840490611476565b857402000000000000000000000000000000000000000060ff60a01b198398161760048401556001600160a01b03851673ffffffffffffffffffffffffffffffffffffffff196005850154161760058401556006830167ffffffffffffffff421667ffffffffffffffff19825416179055602060405180928160006001600160a01b03826118fe63a9059cbb60e01b998a83528d60048401602090939291936001600160a01b0360408201951681520152565b0393165af190811561046257600091611b58575b5015611b14576127108304611a2a575b507f41ab25b76c03860697e1b4b4d5726e0ff60f9d93dd8115c0915bc5dd0932796392612710604093836001600160a01b03600181960154168086861614600014611a2357506002015484165b84841660005260026020528486600020911660005285600020908054906001600160801b0361199f818416611795565b166fffffffffffffffffffffffffffffffff19928316178155600101805477ffffffffffffffffffffffffffffffffffffffffffffffff196001600160c01b036119ed8e821682851661177a565b1691161790556001600160801b03825491611a0a8360801c611795565b60801b16911617905584519788520460208701521693a3565b905061196f565b60206001600160a01b03600484959401541691604051928391825281600081611a9161271089047f000000000000000000000000000000000000000000000000000000000000000060048401602090939291936001600160a01b0360408201951681520152565b03925af190811561046257600091611af5575b5015611ab1579038611922565b606460405162461bcd60e51b815260206004820152601360248201527f466565207472616e73666572206661696c6564000000000000000000000000006044820152fd5b611b0e915060203d60201161045b5761044d8183611419565b38611aa4565b606460405162461bcd60e51b815260206004820152601560248201527f5072697a65207472616e73666572206661696c656400000000000000000000006044820152fd5b611b71915060203d60201161045b5761044d8183611419565b38611912565b6001600160a01b0380911690600090828252600560205260408220541580611c01575b611ba357505050565b60045468010000000000000000811015611bed5790611bcb826001604095940160045561137d565b819291549060031b9186831b921b191617905560045492815260056020522055565b602483634e487b7160e01b81526041600452fd5b5060045415611c3a5760048252807f8a35acfbc15ff81a39ae7d344fd709f28e8600b4aa8c65c6b64bfe7fe36bd19b5416831415611b9a565b602482634e487b7160e01b81526032600452fdfea2646970667358221220e6f34957f3958dea442eda1668a583340f93d5edea1e4f95d31a4cb64e0717e764736f6c63430008180033",
  "linkReferences": {},
  "deployedLinkReferences": {}
}