{
  "_format": "hh-sol-artifact-1",
  "contractName": "Tournament",
  "sourceName": "contracts/Tournament.sol",
  "abi": [
    {
      "inputs": [
        {
          "internalType": "address",
          "name": "_duelManager",
          "type": "address"
        },
        {
          "internalType": "address",
          "name": "_feeCollector",
          "type": "address"
        },
        {
          "internalType": "uint256",
          "name": "_feeBps",
          "type": "uint256"
        }
      ],
      "stateMutability": "nonpayable",
      "type": "constructor"
    },
    {
      "anonymous": false,
      "inputs": [
        {
          "indexed": true,
          "internalType": "bytes32",
          "name": "id",
          "type": "bytes32"
        },
        {
          "indexed": false,
          "internalType": "uint256",
          "name": "round",
          "type": "uint256"
        },
        {
          "indexed": true,
          "internalType": "address",
          "name": "winner",
          "type": "address"
        }
      ],
      "name": "MatchResultRecorded",
      "type": "event"
    },
    {
      "anonymous": false,
      "inputs": [
        {
          "indexed": true,
          "internalType": "bytes32",
          "name": "id",
          "type": "bytes32"
        },
        {
          "indexed": true,
          "internalType": "address",
          "name": "player",
          "type": "address"
        }
      ],
      "name": "PlayerJoined",
      "type": "event"
    },
    {
      "anonymous": false,
      "inputs": [
        {
          "indexed": true,
          "internalType": "bytes32",
          "name": "id",
          "type": "bytes32"
        },
        {
          "indexed": false,
          "internalType": "uint256",
          "name": "roundNumber",
          "type": "uint256"
        }
      ],
      "name": "RoundFinished",
      "type": "event"
    },
    {
      "anonymous": false,
      "inputs": [
        {
          "indexed": true,
          "internalType": "bytes32",
          "name": "id",
          "type": "bytes32"
        },
        {
          "indexed": false,
          "internalType": "uint256",
          "name": "roundNumber",
          "type": "uint256"
        }
      ],
      "name": "RoundStarted",
      "type": "event"
    },
    {
      "anonymous": false,
      "inputs": [
        {
          "indexed": true,
          "internalType": "bytes32",
          "name": "id",
          "type": "bytes32"
        },
        {
          "indexed": true,
          "internalType": "address",
          "name": "creator",
          "type": "address"
        },
        {
          "indexed": false,
          "internalType": "uint256",
          "name": "entryFee",
          "type": "uint256"
        },
        {
          "indexed": false,
          "internalType": "uint256",
          "name": "maxPlayers",
          "type": "uint256"
        }
      ],
      "name": "TournamentCreated",
      "type": "event"
    },
    {
      "anonymous": false,
      "inputs": [
        {
          "indexed": true,
          "internalType": "bytes32",
          "name": "id",
          "type": "bytes32"
        },
        {
          "indexed": true,
          "internalType": "address",
          "name": "winner",
          "type": "address"
        },
        {
          "indexed": false,
          "internalType": "uint256",
          "name": "prize",
          "type": "uint256"
        }
      ],
      "name": "TournamentFinished",
      "type": "event"
    },
    {
      "anonymous": false,
      "inputs": [
        {
          "indexed": true,
          "internalType": "bytes32",
          "name": "id",
          "type": "bytes32"
        }
      ],
      "name": "TournamentStarted",
      "type": "event"
    },
    {
      "inputs": [
        {
          "internalType": "bytes32",
          "name": "id",
          "type": "bytes32"
        },
        {
          "internalType": "uint256",
          "name": "entryFee",
          "type": "uint256"
        },
        {
          "internalType": "address",
          "name": "token",
          "type": "address"
        },
        {
          "internalType": "uint256",
          "name": "maxPlayers",
          "type": "uint256"
        },
        {
          "internalType": "uint256",
          "name": "",
          "type": "uint256"
        }
      ],
      "name": "createTournament",
      "outputs": [],
      "stateMutability": "nonpayable",
      "type": "function"
    },
    {
      "inputs": [],
      "name": "duelManager",
      "outputs": [
        {
          "internalType": "address",
          "name": "",
          "type": "address"
        }
      ],
      "stateMutability": "view",
      "type": "function"
    },
    {
      "inputs": [],
      "name": "feeBps",
      "outputs": [
        {
          "internalType": "uint256",
          "name": "",
          "type": "uint256"
        }
      ],
      "stateMutability": "view",
      "type": "function"
    },
    {
      "inputs": [],
      "name": "feeCollector",
      "outputs": [
        {
          "internalType": "address",
          "name": "",
          "type": "address"
        }
      ],
      "stateMutability": "view",
      "type": "function"
    },
    {
      "inputs": [
        {
          "internalType": "bytes32",
          "name": "tournamentId",
          "type": "bytes32"
        },
        {
          "internalType": "uint256",
          "name": "roundNumber",
          "type": "uint256"
        },
        {
          "internalType": "address",
          "name": "player",
          "type": "address"
        }
      ],
      "name": "getMatchup",
      "outputs": [
        {
          "internalType": "address",
          "name": "",
          "type": "address"
        }
      ],
      "stateMutability": "view",
      "type": "function"
    },
    {
      "inputs": [
        {
          "internalType": "bytes32",
          "name": "tournamentId",
          "type": "bytes32"
        },
        {
          "internalType": "uint256",
          "name": "roundNumber",
          "type": "uint256"
        }
      ],
      "name": "getRoundParticipants",
      "outputs": [
        {
          "internalType": "address[]",
          "name": "",
          "type": "address[]"
        }
      ],
      "stateMutability": "view",
      "type": "function"
    },
    {
      "inputs": [
        {
          "internalType": "bytes32",
          "name": "tournamentId",
          "type": "bytes32"
        },
        {
          "internalType": "uint256",
          "name": "roundNumber",
          "type": "uint256"
        }
      ],
      "name": "getRoundWinners",
      "outputs": [
        {
          "internalType": "address[]",
          "name": "",
          "type": "address[]"
        }
      ],
      "stateMutability": "view",
      "type": "function"
    },
    {
      "inputs": [
        {
          "internalType": "bytes32",
          "name": "id",
          "type": "bytes32"
        }
      ],
      "name": "getTournament",
      "outputs": [
        {
          "components": [
            {
              "internalType": "bytes32",
              "name": "id",
              "type": "bytes32"
            },
            {
              "internalType": "address",
              "name": "creator",
              "type": "address"
            },
            {
              "internalType": "uint256",
              "name": "entryFee",
              "type": "uint256"
            },
            {
              "internalType": "address",
              "name": "token",
              "type": "address"
            },
            {
              "internalType": "uint256",
              "name": "prizePool",
              "type": "uint256"
            },
            {
              "internalType": "uint256",
              "name": "maxPlayers",
              "type": "uint256"
            },
            {
              "internalType": "uint256",
              "name": "currentPlayers",
              "type": "uint256"
            },
            {
              "internalType": "enum Tournament.TournamentStatus",
              "name": "status",
              "type": "uint8"
            },
            {
              "internalType": "uint256",
              "name": "rounds",
              "type": "uint256"
            },
            {
              "internalType": "uint256",
              "name": "currentRound",
              "type": "uint256"
            },
            {
              "internalType": "uint64",
              "name": "startTime",
              "type": "uint64"
            },
            {
              "internalType": "uint64",
              "name": "endTime",
              "type": "uint64"
            }
          ],
          "internalType": "struct Tournament.TournamentInfo",
          "name": "",
          "type": "tuple"
        }
      ],
      "stateMutability": "view",
      "type": "function"
    },
    {
      "inputs": [
        {
          "internalType": "bytes32",
          "name": "id",
          "type": "bytes32"
        }
      ],
      "name": "joinTournament",
      "outputs": [],
      "stateMutability": "nonpayable",
      "type": "function"
    },
    {
      "inputs": [
        {
          "internalType": "bytes32",
          "name": "",
          "type": "bytes32"
        },
        {
          "internalType": "uint256",
          "name": "",
          "type": "uint256"
        },
        {
          "internalType": "address",
          "name": "",
          "type": "address"
        }
      ],
      "name": "matchResults",
      "outputs": [
        {
          "internalType": "address",
          "name": "player1",
          "type": "address"
        },
        {
          "internalType": "address",
          "name": "player2",
          "type": "address"
        },
        {
          "internalType": "address",
          "name": "winner",
          "type": "address"
        },
        {
          "internalType": "bool",
          "name": "confirmed",
          "type": "bool"
        }
      ],
      "stateMutability": "view",
      "type": "function"
    },
    {
      "inputs": [],
      "name": "owner",
      "outputs": [
        {
          "internalType": "address",
          "name": "",
          "type": "address"
        }
      ],
      "stateMutability": "view",
      "type": "function"
    },
    {
      "inputs": [
        {
          "internalType": "address",
          "name": "",
          "type": "address"
        }
      ],
      "name": "playerTournamentWins",
      "outputs": [
        {
          "internalType": "uint256",
          "name": "",
          "type": "uint256"
        }
      ],
      "stateMutability": "view",
      "type": "function"
    },
    {
      "inputs": [
        {
          "internalType": "bytes32",
          "name": "tournamentId",
          "type": "bytes32"
        },
        {
          "internalType": "uint256",
          "name": "roundNumber",
          "type": "uint256"
        },
        {
          "internalType": "address",
          "name": "opponent",
          "type": "address"
        },
        {
          "internalType": "address",
          "name": "winner",
          "type": "address"
        }
      ],
      "name": "recordMatchResult",
      "outputs": [],
      "stateMutability": "nonpayable",
      "type": "function"
    },
    {
      "inputs": [
        {
          "internalType": "bytes32",
          "name": "",
          "type": "bytes32"
        },
        {
          "internalType": "uint256",
          "name": "",
          "type": "uint256"
        }
      ],
      "name": "rounds",
      "outputs": [
        {
          "internalType": "bytes32",
          "name": "tournamentId",
          "type": "bytes32"
        },
        {
          "internalType": "uint256",
          "name": "roundNumber",
          "type": "uint256"
        },
        {
          "internalType": "enum Tournament.RoundStatus",
          "name": "status",
          "type": "uint8"
        }
      ],
      "stateMutability": "view",
      "type": "function"
    },
    {
      "inputs": [
        {
          "internalType": "bytes32",
          "name": "id",
          "type": "bytes32"
        }
      ],
      "name": "startTournament",
      "outputs": [],
      "stateMutability": "nonpayable",
      "type": "function"
    },
    {
      "inputs": [
        {
          "internalType": "bytes32",
          "name": "",
          "type": "bytes32"
        },
        {
          "internalType": "uint256",
          "name": "",
          "type": "uint256"
        }
      ],
      "name": "tournamentPlayers",
      "outputs": [
        {
          "internalType": "address",
          "name": "",
          "type": "address"
        }
      ],
      "stateMutability": "view",
      "type": "function"
    },
    {
      "inputs": [
        {
          "internalType": "bytes32",
          "name": "",
          "type": "bytes32"
        }
      ],
      "name": "tournaments",
      "outputs": [
        {
          "internalType": "bytes32",
          "name": "id",
          "type": "bytes32"
        },
        {
          "internalType": "address",
          "name": "creator",
          "type": "address"
        },
        {
          "internalType": "uint256",
          "name": "entryFee",
          "type": "uint256"
        },
        {
          "internalType": "address",
          "name": "token",
          "type": "address"
        },
        {
          "internalType": "uint256",
          "name": "prizePool",
          "type": "uint256"
        },
        {
          "internalType": "uint256",
          "name": "maxPlayers",
          "type": "uint256"
        },
        {
          "internalType": "uint256",
          "name": "currentPlayers",
          "type": "uint256"
        },
        {
          "internalType": "enum Tournament.TournamentStatus",
          "name": "status",
          "type": "uint8"
        },
        {
          "internalType": "uint256",
          "name": "rounds",
          "type": "uint256"
        },
        {
          "internalType": "uint256",
          "name": "currentRound",
          "type": "uint256"
        },
        {
          "internalType": "uint64",
          "name": "startTime",
          "type": "uint64"
        },
        {
          "internalType": "uint64",
          "name": "endTime",
          "type": "uint64"
        }
      ],
      "stateMutability": "view",
      "type": "function"
    }
  ],
  "bytecode": "0x61010034620000ce57601f6200204d38819003918201601f19168301916001600160401b03831184841017620000d357808492606094604052833981010312620000ce576200004e81620000e9565b9060406200005f60208301620000e9565b910151913360805260a05260e05260c052604051611f4e9081620000ff82396080518181816101ef0152610495015260a051818181610394015281816106c001528181610b690152610e3f015260c0518181816113870152611879015260e0518181816102ce01526114990152f35b600080fd5b634e487b7160e01b600052604160045260246000fd5b51906001600160a01b0382168203620000ce5756fe608080604052600436101561001357600080fd5b60003560e01c908163139cfab1146118f25750806320f1b1ab1461189c57806324a9d853146118615780633061ff1d14610def5780634d6bed1b14610b2c57806352a17a7514610aef57806359633c0414610aa55780636074e837146106845780636b17cbaf146104b95780638da5cb5b1461047557806393f24ebb1461042b578063b04e8418146103b8578063be50b05114610374578063c1062bf6146102f2578063c415b95c146102ae578063db7f5f621461021c5763f664163b146100da57600080fd5b346102175760203660031901126102175760043580600052600060205260406000206001600160a01b038060018301541633149081156101eb575b50156101a75760ff60078201541660048110156101915760049161013b60069215611b72565b01541061014d5761014b90611d1b565b005b606460405162461bcd60e51b815260206004820152601260248201527f4e6f7420656e6f75676820706c617965727300000000000000000000000000006044820152fd5b634e487b7160e01b600052602160045260246000fd5b606460405162461bcd60e51b815260206004820152600e60248201527f4e6f7420617574686f72697a65640000000000000000000000000000000000006044820152fd5b90507f000000000000000000000000000000000000000000000000000000000000000016331438610115565b600080fd5b346102175761022a366119c6565b90600052600160209160016020526040600020906000526020526004604060002001916040519182602085549182815201946000526020600020926000905b8282106102905761028c86610280818a0382611aac565b60405191829182611a34565b0390f35b84546001600160a01b03168752958601959383019390830190610269565b346102175760003660031901126102175760206040516001600160a01b037f0000000000000000000000000000000000000000000000000000000000000000168152f35b3461021757610300366119c6565b90600052600160209160016020526040600020906000526020526007604060002001916040519182602085549182815201946000526020600020926000905b8282106103565761028c86610280818a0382611aac565b84546001600160a01b0316875295860195938301939083019061033f565b346102175760003660031901126102175760206040516001600160a01b037f0000000000000000000000000000000000000000000000000000000000000000168152f35b346102175760806103c836611a0a565b91600052600260205260406000209060005260205260406000206001600160a01b0380921660005260205260ff604060002082815416926002816001840154169201549160405194855260208501528116604084015260a01c1615156060820152f35b3461021757602061043b36611a0a565b9160005260018352604060002090600052825260056040600020016001600160a01b03809216600052825260406000205416604051908152f35b346102175760003660031901126102175760206040516001600160a01b037f0000000000000000000000000000000000000000000000000000000000000000168152f35b346102175760203660031901126102175760006101606040516104db81611a79565b8281528260208201528260408201528260608201528260808201528260a08201528260c08201528260e082015282610100820152826101208201528261014082015201526004356000526000602052604060002060405161053b81611a79565b815481526001600160a01b036001830154166020820152600282015460408201526001600160a01b03600383015416606082015260048201546080820152600582015460a0820152600682015460c082015260ff60078301541691600483101561019157600a67ffffffffffffffff916101809460e085015260088101546101008501526009810154610120850152015481811661014084015260401c1661016082015267ffffffffffffffff61016060405192805184526001600160a01b036020820151166020850152604081015160408501526001600160a01b0360608201511660608501526080810151608085015260a081015160a085015260c081015160c085015261065360e082015160e08601906119b9565b6101008101516101008501526101208101516101208501528261014082015116610140850152015116610160820152f35b346102175760a03660031901126102175761069d6119dc565b604051633ece9ab360e21b81523360048201526020816024816001600160a01b037f0000000000000000000000000000000000000000000000000000000000000000165afa8015610a99576106fa91600091610a6a575b50611ae6565b600435600052600060205260016001600160a01b0360016040600020015416610a2657602435156109e25760046064351015806109d5575b1561099157606435600019810190811161097b5760643516610937576064356000915b8082116109235750506001600160a01b036040519261077384611a79565b600435845233602085015260243560408501521660608301526000608083015260643560a0830152600060c0830152600060e0830152610100820152600061012082015260006101408201526000610160820152600435600052600060205260406000209080518255600182016001600160a01b036020830151169073ffffffffffffffffffffffffffffffffffffffff1991828254161790556040820151600284015560038301906001600160a01b03606084015116908254161790556080810151600483015560a0810151600583015560c08101516006830155600782019160e0820151906004821015610191576108e793600a9260ff8019835416911617905561010083015160088201556101208301516009820155019061016067ffffffffffffffff91826101408201511667ffffffffffffffff198554161784550151166fffffffffffffffff0000000000000000196fffffffffffffffff000000000000000083549260401b169116179055565b6040516024358152606435602082015233907f84b80c08773e59b732461d8ca5a6431f6233e3c3521571f1cced230cfd9c8389604060043592a3005b909161092e90611bbd565b91811c90610755565b606460405162461bcd60e51b815260206004820152601260248201527f4d75737420626520706f776572206f66203200000000000000000000000000006044820152fd5b634e487b7160e01b600052601160045260246000fd5b606460405162461bcd60e51b815260206004820152600f60248201527f496e76616c696420706c617965727300000000000000000000000000000000006044820152fd5b5060406064351115610732565b606460405162461bcd60e51b815260206004820152600b60248201527f496e76616c6964206665650000000000000000000000000000000000000000006044820152fd5b606460405162461bcd60e51b815260206004820152601160248201527f546f75726e616d656e74206578697374730000000000000000000000000000006044820152fd5b610a8c915060203d602011610a92575b610a848183611aac565b810190611ace565b836106f4565b503d610a7a565b6040513d6000823e3d90fd5b3461021757610ab3366119c6565b906000526003602052604060002090815481101561021757610adf6001600160a01b03916020936119f2565b90549060031b1c16604051908152f35b34610217576020366003190112610217576004356001600160a01b0381168091036102175760005260046020526020604060002054604051908152f35b346102175760208060031936011261021757600435906001600160a01b039060405190633ece9ab360e21b825233600483015260249181818481877f0000000000000000000000000000000000000000000000000000000000000000165afa8015610a9957610ba291600091610dd25750611ae6565b8360005260008152604060002060ff6007820154166004811015610dbd57610bca9015611b72565b6006810192835494600583019586541115610d7b57610be93388611c77565b610d385760038301541660008460028501926064845460405194859384927f23b872dd000000000000000000000000000000000000000000000000000000008452336004850152308a85015260448401525af1908115610a9957600091610d1b575b5015610cd857600490549201908154928301809311610cc45750906003929155610c758354611bbd565b83558460005252610c8a336040600020611b31565b33837fdd5a0e5e0c7946c099f2ed766c0b633dd2eb1e1e10743bab89f871e8038b080b600080a354905414610cbb57005b61014b90611d1b565b634e487b7160e01b60005260116004526000fd5b606484600f846040519262461bcd60e51b845260048401528201527f5472616e73666572206661696c656400000000000000000000000000000000006044820152fd5b610d329150853d8711610a9257610a848183611aac565b88610c4b565b606484600e846040519262461bcd60e51b845260048401528201527f416c7265616479206a6f696e65640000000000000000000000000000000000006044820152fd5b6064846004846040519262461bcd60e51b8452828401528201527f46756c6c000000000000000000000000000000000000000000000000000000006044820152fd5b83634e487b7160e01b60005260216004526000fd5b610de99150833d8511610a9257610a848183611aac565b866106f4565b3461021757608036600319011261021757610e086119dc565b6001600160a01b03606435166064350361021757604051633ece9ab360e21b81523360048201526020816024816001600160a01b037f0000000000000000000000000000000000000000000000000000000000000000165afa8015610a9957610e7891600091610a6a5750611ae6565b6004356000526000602052604060002060ff60078201541660048110156101915760010361181d5760090154602435036117d9576004356000526001602052604060002060243560005260205260406000209060ff60028301541660038110156101915760010361179557336000526003820160205260ff6040600020541615611751576001600160a01b0381166000526003820160205260ff604060002054161561170d5733600052600582016020526001600160a01b0381166001600160a01b0360406000205416036116c957336001600160a01b03606435161480156116ac575b156116685760043560005260026020526040600020602435600052602052604060002033600052602052604060002090600282019182549160ff8360a01c161560001461160a57740100000000000000000000000000000000000000009291906001600160a01b03811633109081156116035733915b6001600160a01b0373ffffffffffffffffffffffffffffffffffffffff199316838554161784556000146115f15760016001600160a01b0391935b019216908254161790557fffffffffffffffffffffff0000000000000000000000000000000000000000006001600160a01b036064351691161717905560405160243581526001600160a01b0360643516907e6943e2f40064e1b914aea0122a8475660d478c6fb57644b8a9819631c7eed1602060043592a36001600160a01b03606435166000526006810160205260406000209081549160ff8316156115d0575b5050505b6004356000526001602052604060002060243560005260205260406000206007600482015460011c910154146110e557005b60043560005260016020526040600020602435600052602052604060002060028101600260ff19825416179055600435600052600060205260406000206008810154602435106000146113205761113f6009820154611bbd565b8060098301556004356000526001602052604060002090600052602052604060002060043581556009820154600182015560028101600160ff19825416179055611190600760048301940184611bcc565b60030160005b83548110156111d857806001600160a01b036111b4600193876119f2565b90549060031b1c166000528260205260406000208260ff1982541617905501611196565b505090506009810154600435600052600160205260406000209060005260205260406000209060048201549160005b8381106112775750506009915001546040519081527fd451ebd572a00a0b3685a5b20e8309111f6c29324b7f09bf66b0de68435a208d602060043592a25b60405160243581527f7a9ff488eecf9ca75d4f79c0c60eafff06296b1b26154da5b9289e73a72b4748602060043592a2005b6001600160a01b0361128c82600485016119f2565b90549060031b1c1660018201821161097b576001600160a01b036112b660018401600486016119f2565b90549060031b1c1690806000526005840160205260406000209173ffffffffffffffffffffffffffffffffffffffff19928184825416179055600052604060002091825416179055600281018091111561120757634e487b7160e01b600052601160045260246000fd5b6007808201805460ff19166002179055600a820180546fffffffffffffffff000000000000000019164260401b6fffffffffffffffff0000000000000000161790559091018054156115ba576000526001600160a01b0360206000205416906004810154907f000000000000000000000000000000000000000000000000000000000000000080830290838204148315171561097b5761271090049081830392831161097b5760030180546040517fa9059cbb000000000000000000000000000000000000000000000000000000008082526001600160a01b0387811660048401526024830187905290949260209183916044918391600091165af1908115610a995760009161159b575b50156115575780611487575b50505081600052600460205260406000206114528154611bbd565b90556040519081527f4a1f0fb465c70d8db45724e82c75564a3473134c71b11eee39730dc6890d98b8602060043592a3611245565b90546040519283526001600160a01b037f000000000000000000000000000000000000000000000000000000000000000081166004850152602484019290925260209183916044918391600091165af1908115610a9957600091611538575b50156114f457828080611437565b606460405162461bcd60e51b815260206004820152600a60248201527f466565206661696c6564000000000000000000000000000000000000000000006044820152fd5b611551915060203d602011610a9257610a848183611aac565b836114e6565b606460405162461bcd60e51b815260206004820152600c60248201527f5072697a65206661696c656400000000000000000000000000000000000000006044820152fd5b6115b4915060203d602011610a9257610a848183611aac565b8661142b565b634e487b7160e01b600052603260045260246000fd5b60016115e99360ff191617905560076064359101611b31565b8080806110af565b506001600160a01b036001339361100d565b8091610fd2565b50509150506001600160a01b038060643516911603156110b357606460405162461bcd60e51b815260206004820152600f60248201527f526573756c74206d69736d6174636800000000000000000000000000000000006044820152fd5b606460405162461bcd60e51b815260206004820152600e60248201527f496e76616c69642077696e6e65720000000000000000000000000000000000006044820152fd5b506001600160a01b0381166001600160a01b036064351614610f5c565b606460405162461bcd60e51b815260206004820152601160248201527f4e6f7420796f7572206f70706f6e656e740000000000000000000000000000006044820152fd5b606460405162461bcd60e51b815260206004820152601060248201527f496e76616c6964206f70706f6e656e74000000000000000000000000000000006044820152fd5b606460405162461bcd60e51b815260206004820152601160248201527f4e6f742061207061727469636970616e740000000000000000000000000000006044820152fd5b606460405162461bcd60e51b815260206004820152601060248201527f526f756e64206e6f7420616374697665000000000000000000000000000000006044820152fd5b606460405162461bcd60e51b815260206004820152600b60248201527f57726f6e6720726f756e640000000000000000000000000000000000000000006044820152fd5b606460405162461bcd60e51b815260206004820152600a60248201527f4e6f7420616374697665000000000000000000000000000000000000000000006044820152fd5b346102175760003660031901126102175760206040517f00000000000000000000000000000000000000000000000000000000000000008152f35b34610217576118aa366119c6565b9060005260016020526040600020906000526020526040600020805460ff60026001840154930154169160405191825260208201526003821015610191576060916040820152f35b346102175760203660031901126102175761018090600435600052600060205260406000208054906001600160a01b039081600182015416916119986002830154916003840154166004840154600585015460068601549160ff60078801541693600888015496600a60098a01549901549967ffffffffffffffff9b8d5260208d015260408c015260608b015260808a015260a089015260c088015260e08701906119b9565b61010085015261012084015281811661014084015260401c16610160820152f35b9060048210156101915752565b6040906003190112610217576004359060243590565b604435906001600160a01b038216820361021757565b80548210156115ba5760005260206000200190600090565b60609060031901126102175760043590602435906044356001600160a01b03811681036102175790565b602090602060408183019282815285518094520193019160005b828110611a5c575050505090565b83516001600160a01b031685529381019392810192600101611a4e565b610180810190811067ffffffffffffffff821117611a9657604052565b634e487b7160e01b600052604160045260246000fd5b90601f8019910116810190811067ffffffffffffffff821117611a9657604052565b90816020910312610217575180151581036102175790565b15611aed57565b606460405162461bcd60e51b815260206004820152600c60248201527f4e6f7420766572696669656400000000000000000000000000000000000000006044820152fd5b805468010000000000000000811015611a9657611b53916001820181556119f2565b6001600160a01b039291928084549260031b9316831b921b1916179055565b15611b7957565b606460405162461bcd60e51b815260206004820152600860248201527f4e6f74206f70656e0000000000000000000000000000000000000000000000006044820152fd5b600019811461097b5760010190565b818114611c735781549167ffffffffffffffff8311611a9657680100000000000000008311611a96578154838355808410611c48575b5060005260206000209060005260206000208154916000925b848410611c29575050505050565b60016001600160a01b0381921692019384549281850155019290611c1b565b60008360005284602060002092830192015b828110611c68575050611c02565b818155600101611c5a565b5050565b906000918252602090600360205260408320916040518084602082965493848152019087526020872092875b85828210611cfc57505050611cba92500384611aac565b825192845b848110611cce57505050505090565b6001600160a01b0380848360051b850101511690851614611cf157600101611cbf565b505050505050600190565b85546001600160a01b0316845260019586019589955093019201611ca3565b9060009180835260208381526040936009858220956007870196600192839160ff1999838b825416179055600a810167ffffffffffffffff421667ffffffffffffffff198254161790550155818452808320828452845280832085815582808201556002808201848a8254161790558685528360039960038852818588208c600496611dab600482019384611bcc565b60038b9101935b611ed7575b50505050505086855283865282852084865286528285206004810180549a6005889301925b8c8110611e3a5750505050505084959650937fed58d1996f59e47237b266ef1d2426a20f7c4f24f1495cf6ce077eabe7ad62537fd451ebd572a00a0b3685a5b20e8309111f6c29324b7f09bf66b0de68435a208d95519380a28152a2565b611e4481846119f2565b90546001600160a01b0391841b1c811690898301808411611ec457611e6990866119f2565b905490851b1c1690808b52858c52888b209173ffffffffffffffffffffffffffffffffffffffff199281848254161790558b52888b209182541617905584810180911115611ddc57602489601188634e487b7160e01b835252fd5b60248c60118b634e487b7160e01b835252fd5b8254811015611f13576001600160a01b038692611ef483866119f2565b9054911b1c168b52838c52888b208286825416179055018d9085611db2565b611db756fea2646970667358221220ee9a07343041ae3ba4f379283f3ae97e39eb41f3cfa39bfc22076cfccd364f4c64736f6c63430008180033",
  "linkReferences": {},
  "deployedLinkReferences": {}
}