{
  "_format": "hh-sol-artifact-1",
  "contractName": "StakingRewards",
  "sourceName": "contracts/StakingRewards.sol",
  "abi": [
    {
      "inputs": [
        {
          "internalType": "address",
          "name": "_rewardToken",
          "type": "address"
        },
        {
          "internalType": "uint256",
          "name": "_initialRewardRate",
          "type": "uint256"
        }
      ],
      "stateMutability": "nonpayable",
      "type": "constructor"
    },
    {
      "anonymous": false,
      "inputs": [
        {
          "indexed": false,
          "internalType": "uint256",
          "name": "newRate",
          "type": "uint256"
        }
      ],
      "name": "RewardRateUpdated",
      "type": "event"
    },
    {
      "anonymous": false,
      "inputs": [
        {
          "indexed": true,
          "internalType": "address",
          "name": "user",
          "type": "address"
        },
        {
          "indexed": false,
          "internalType": "uint256",
          "name": "amount",
          "type": "uint256"
        }
      ],
      "name": "RewardsClaimed",
      "type": "event"
    },
    {
      "anonymous": false,
      "inputs": [
        {
          "indexed": true,
          "internalType": "address",
          "name": "user",
          "type": "address"
        },
        {
          "indexed": false,
          "internalType": "uint256",
          "name": "amount",
          "type": "uint256"
        }
      ],
      "name": "Staked",
      "type": "event"
    },
    {
      "anonymous": false,
      "inputs": [
        {
          "indexed": true,
          "internalType": "address",
          "name": "user",
          "type": "address"
        },
        {
          "indexed": false,
          "internalType": "uint256",
          "name": "amount",
          "type": "uint256"
        }
      ],
      "name": "Unstaked",
      "type": "event"
    },
    {
      "inputs": [
        {
          "internalType": "address",
          "name": "user",
          "type": "address"
        }
      ],
      "name": "calculatePendingRewards",
      "outputs": [
        {
          "internalType": "uint256",
          "name": "",
          "type": "uint256"
        }
      ],
      "stateMutability": "view",
      "type": "function"
    },
    {
      "inputs": [],
      "name": "claimRewards",
      "outputs": [],
      "stateMutability": "nonpayable",
      "type": "function"
    },
    {
      "inputs": [
        {
          "internalType": "uint256",
          "name": "amount",
          "type": "uint256"
        }
      ],
      "name": "depositRewards",
      "outputs": [],
      "stateMutability": "nonpayable",
      "type": "function"
    },
    {
      "inputs": [
        {
          "internalType": "address",
          "name": "user",
          "type": "address"
        }
      ],
      "name": "getStakeInfo",
      "outputs": [
        {
          "components": [
            {
              "internalType": "uint256",
              "name": "amount",
              "type": "uint256"
            },
            {
              "internalType": "uint64",
              "name": "stakedAt",
              "type": "uint64"
            },
            {
              "internalType": "uint64",
              "name": "lastClaimed",
              "type": "uint64"
            },
            {
              "internalType": "uint256",
              "name": "totalEarned",
              "type": "uint256"
            }
          ],
          "internalType": "struct StakingRewards.StakeInfo",
          "name": "",
          "type": "tuple"
        }
      ],
      "stateMutability": "view",
      "type": "function"
    },
    {
      "inputs": [],
      "name": "getTotalStakers",
      "outputs": [
        {
          "internalType": "uint256",
          "name": "",
          "type": "uint256"
        }
      ],
      "stateMutability": "view",
      "type": "function"
    },
    {
      "inputs": [],
      "name": "owner",
      "outputs": [
        {
          "internalType": "address",
          "name": "",
          "type": "address"
        }
      ],
      "stateMutability": "view",
      "type": "function"
    },
    {
      "inputs": [],
      "name": "rewardRate",
      "outputs": [
        {
          "internalType": "uint256",
          "name": "",
          "type": "uint256"
        }
      ],
      "stateMutability": "view",
      "type": "function"
    },
    {
      "inputs": [],
      "name": "rewardToken",
      "outputs": [
        {
          "internalType": "address",
          "name": "",
          "type": "address"
        }
      ],
      "stateMutability": "view",
      "type": "function"
    },
    {
      "inputs": [
        {
          "internalType": "uint256",
          "name": "newRate",
          "type": "uint256"
        }
      ],
      "name": "setRewardRate",
      "outputs": [],
      "stateMutability": "nonpayable",
      "type": "function"
    },
    {
      "inputs": [
        {
          "internalType": "uint256",
          "name": "amount",
          "type": "uint256"
        }
      ],
      "name": "stake",
      "outputs": [],
      "stateMutability": "nonpayable",
      "type": "function"
    },
    {
      "inputs": [
        {
          "internalType": "uint256",
          "name": "",
          "type": "uint256"
        }
      ],
      "name": "stakers",
      "outputs": [
        {
          "internalType": "address",
          "name": "",
          "type": "address"
        }
      ],
      "stateMutability": "view",
      "type": "function"
    },
    {
      "inputs": [
        {
          "internalType": "address",
          "name": "",
          "type": "address"
        }
      ],
      "name": "stakes",
      "outputs": [
        {
          "internalType": "uint256",
          "name": "amount",
          "type": "uint256"
        },
        {
          "internalType": "uint64",
          "name": "stakedAt",
          "type": "uint64"
        },
        {
          "internalType": "uint64",
          "name": "lastClaimed",
          "type": "uint64"
        },
        {
          "internalType": "uint256",
          "name": "totalEarned",
          "type": "uint256"
        }
      ],
      "stateMutability": "view",
      "type": "function"
    },
    {
      "inputs": [],
      "name": "totalRewardsDistributed",
      "outputs": [
        {
          "internalType": "uint256",
          "name": "",
          "type": "uint256"
        }
      ],
      "stateMutability": "view",
      "type": "function"
    },
    {
      "inputs": [],
      "name": "totalStaked",
      "outputs": [
        {
          "internalType": "uint256",
          "name": "",
          "type": "uint256"
        }
      ],
      "stateMutability": "view",
      "type": "function"
    },
    {
      "inputs": [
        {
          "internalType": "uint256",
          "name": "amount",
          "type": "uint256"
        }
      ],
      "name": "unstake",
      "outputs": [],
      "stateMutability": "nonpayable",
      "type": "function"
    }
  ],
  "bytecode": "0x60c0346100a357601f610d1838819003918201601f19168301916001600160401b038311848410176100a85780849260409485528339810103126100a3578051906001600160a01b03821682036100a35760200151903360805260a052600055604051610c5990816100bf8239608051818181610453015261050c015260a0518181816101270152818161030e0152818161057e015281816106ef0152610b430152f35b600080fd5b634e487b7160e01b600052604160045260246000fdfe6040608081526004908136101561001557600080fd5b6000803560e01c8063097aad101461084257806316934fc4146107dd5780632e17de781461065457806331ed0db414610636578063372500ab1461061c5780637b0a47ee146105ff578063817b1cd2146105e05780638bdf67f2146105305780638da5cb5b146104ec5780639e447fc614610432578063a694fc3a1461021e578063c34531531461016e578063ee1725461461014f578063f7c618c1146101075763fd5e6dd1146100c557600080fd5b34610104576020366003190112610104578235925483101561010457506001600160a01b036100f560209361087a565b92905490519260031b1c168152f35b80fd5b50903461014b578160031936011261014b57602090516001600160a01b037f0000000000000000000000000000000000000000000000000000000000000000168152f35b5080fd5b50903461014b578160031936011261014b576020906002549051908152f35b50913461021a57602036600319011261021a57356001600160a01b03811680910361021a57828291608094606084516101a6816108c7565b828152826020820152828682015201528152600360205220908051906101cb826108c7565b825492838352600181015467ffffffffffffffff8092606060026020880192848616845284888a0196891c16865201549601958652845196875251166020860152511690830152516060820152f35b8280fd5b50903461014b5760208060031936011261021a5783359182156103f0573384526003825280842080546103db576001810180546fffffffffffffffffffffffffffffffff19164267ffffffffffffffff81169190911760409190911b6fffffffffffffffff0000000000000000161790558554680100000000000000008110156103c8578461030196976102b8836001889501835561087a565b81549060031b906001600160a01b0333831b921b19161790555b84516323b872dd60e01b8152339181019182523060208301526040820192909252909687918291606090910190565b0381896001600160a01b037f0000000000000000000000000000000000000000000000000000000000000000165af19485156103be577f9e71bc8eea02a63969f509818f2dafb9254532904319f9dbda79b67bd34a5f3d949561036b918891610391575b50610a0a565b610376858254610a55565b905561038484600154610a55565b600155519283523392a280f35b6103b19150853d87116103b7575b6103a981836108f9565b8101906109ed565b38610365565b503d61039f565b82513d88823e3d90fd5b602486604189634e487b7160e01b835252fd5b828461030196976103eb33610a62565b6102d2565b6064918591519162461bcd60e51b8352820152601260248201527f416d6f756e74206d757374206265203e203000000000000000000000000000006044820152fd5b5091903461021a57602036600319011261021a578135916001600160a01b037f00000000000000000000000000000000000000000000000000000000000000001633036104aa5750816020917f41d466ebd06fb97e7786086ac8b69b7eb7da798592036251291d34e9791cde0193855551908152a180f35b6020606492519162461bcd60e51b8352820152600960248201527f4e6f74206f776e657200000000000000000000000000000000000000000000006044820152fd5b50903461014b578160031936011261014b57602090516001600160a01b037f0000000000000000000000000000000000000000000000000000000000000000168152f35b50913461021a57602036600319011261021a5781516323b872dd60e01b8152338183019081523060208281019190915292356040820152909190829081906060010381866001600160a01b037f0000000000000000000000000000000000000000000000000000000000000000165af19081156105d4576105b8925083916105bb5750610a0a565b80f35b6103b1915060203d6020116103b7576103a981836108f9565b505051903d90823e3d90fd5b50903461014b578160031936011261014b576020906001549051908152f35b50903461014b578160031936011261014b57602091549051908152f35b50346101045780600319360112610104576105b833610a62565b50913461021a578260031936011261021a5760209250549051908152f35b50913461021a576020806003193601126107d957813591338552600382528385208381541061079757836106e292849261068d33610a62565b61069883825461091b565b81556106a68360015461091b565b600155805415610777575b508651938492839263a9059cbb60e01b845233908401602090939291936001600160a01b0360408201951681520152565b0381886001600160a01b037f0000000000000000000000000000000000000000000000000000000000000000165af190811561076d577f0f5bb82176feb1b5e747e28471aa92156a04d9f3ab9f45f28e2d704232b93f7593949161074c9187916107565750610a0a565b519283523392a280f35b6103b19150843d86116103b7576103a981836108f9565b84513d87823e3d90fd5b6001016fffffffffffffffffffffffffffffffff198154169055386106b1565b5060649184519162461bcd60e51b8352820152601260248201527f496e73756666696369656e74207374616b6500000000000000000000000000006044820152fd5b8380fd5b50913461021a57602036600319011261021a57356001600160a01b03811680910361021a5782829160809452600360205220805491600182015491600267ffffffffffffffff9101549282519485528181166020860152821c16908301526060820152f35b50913461021a57602036600319011261021a5735916001600160a01b03831683036101045750610873602092610951565b9051908152f35b6004548110156108b15760046000527f8a35acfbc15ff81a39ae7d344fd709f28e8600b4aa8c65c6b64bfe7fe36bd19b0190600090565b634e487b7160e01b600052603260045260246000fd5b6080810190811067ffffffffffffffff8211176108e357604052565b634e487b7160e01b600052604160045260246000fd5b90601f8019910116810190811067ffffffffffffffff8211176108e357604052565b9190820391821161092857565b634e487b7160e01b600052601160045260246000fd5b8181029291811591840414171561092857565b6001600160a01b03166000526003602052604060002060405190610974826108c7565b80548083526002600183015467ffffffffffffffff90818116602087015260401c1692836040860152015460608401521580156109e5575b6109de57670de0b6b3a7640000916109d56109ca6109da934261091b565b91516000549061093e565b61093e565b0490565b5050600090565b5080156109ac565b90816020910312610a0557518015158103610a055790565b600080fd5b15610a1157565b606460405162461bcd60e51b815260206004820152600f60248201527f5472616e73666572206661696c656400000000000000000000000000000000006044820152fd5b9190820180921161092857565b6001600160a01b03808216918260005260209160038352604060002091825415610c1c57610a8f81610951565b9283610a9e575b505050505050565b610b3f928592610afc836002889501610ab8868254610a55565b905560010180547fffffffffffffffffffffffffffffffff0000000000000000ffffffffffffffff164260401b6fffffffffffffffff000000000000000016179055565b610b0883600254610a55565b600255600060405180968195829463a9059cbb60e01b845260048401602090939291936001600160a01b0360408201951681520152565b03927f0000000000000000000000000000000000000000000000000000000000000000165af1908115610c1057600091610bf3575b5015610baf57907ffc30cddea38e2bf4d6ea7d3f9ed3b6ad7f176419f4963bd81318067a4aee73fe91604051908152a2388080808080610a96565b6064826040519062461bcd60e51b82526004820152601660248201527f526577617264207472616e73666572206661696c6564000000000000000000006044820152fd5b610c0a9150833d85116103b7576103a981836108f9565b38610b74565b6040513d6000823e3d90fd5b505050505056fea26469706673582212200bba4f019effdfe469110a6202a93d735522f903914b4a5c13764471e3c7b93364736f6c63430008180033",
  "linkReferences": {},
  "deployedLinkReferences": {}
}