{
  "_format": "hh-sol-artifact-1",
  "contractName": "DuelManager",
  "sourceName": "contracts/DuelManager.sol",
  "abi": [
    {
      "inputs": [
        {
          "internalType": "address",
          "name": "_feeCollector",
          "type": "address"
        },
        {
          "internalType": "uint256",
          "name": "_feeBps",
          "type": "uint256"
        }
      ],
      "stateMutability": "nonpayable",
      "type": "constructor"
    },
    {
      "anonymous": false,
      "inputs": [
        {
          "indexed": true,
          "internalType": "bytes32",
          "name": "id",
          "type": "bytes32"
        }
      ],
      "name": "DuelCancelled",
      "type": "event"
    },
    {
      "anonymous": false,
      "inputs": [
        {
          "indexed": true,
          "internalType": "bytes32",
          "name": "id",
          "type": "bytes32"
        },
        {
          "indexed": true,
          "internalType": "address",
          "name": "player1",
          "type": "address"
        },
        {
          "indexed": false,
          "internalType": "uint256",
          "name": "stake",
          "type": "uint256"
        },
        {
          "indexed": true,
          "internalType": "address",
          "name": "token",
          "type": "address"
        }
      ],
      "name": "DuelCreated",
      "type": "event"
    },
    {
      "anonymous": false,
      "inputs": [
        {
          "indexed": true,
          "internalType": "bytes32",
          "name": "id",
          "type": "bytes32"
        },
        {
          "indexed": true,
          "internalType": "address",
          "name": "winner",
          "type": "address"
        },
        {
          "indexed": false,
          "internalType": "uint256",
          "name": "prize",
          "type": "uint256"
        }
      ],
      "name": "DuelFinished",
      "type": "event"
    },
    {
      "anonymous": false,
      "inputs": [
        {
          "indexed": true,
          "internalType": "bytes32",
          "name": "id",
          "type": "bytes32"
        },
        {
          "indexed": true,
          "internalType": "address",
          "name": "player2",
          "type": "address"
        }
      ],
      "name": "DuelJoined",
      "type": "event"
    },
    {
      "anonymous": false,
      "inputs": [
        {
          "indexed": true,
          "internalType": "bytes32",
          "name": "id",
          "type": "bytes32"
        }
      ],
      "name": "DuelStarted",
      "type": "event"
    },
    {
      "anonymous": false,
      "inputs": [
        {
          "indexed": true,
          "internalType": "bytes32",
          "name": "id",
          "type": "bytes32"
        },
        {
          "indexed": true,
          "internalType": "address",
          "name": "player",
          "type": "address"
        },
        {
          "indexed": true,
          "internalType": "address",
          "name": "winner",
          "type": "address"
        }
      ],
      "name": "ResultConfirmed",
      "type": "event"
    },
    {
      "inputs": [
        {
          "internalType": "bytes32",
          "name": "id",
          "type": "bytes32"
        }
      ],
      "name": "cancelDuel",
      "outputs": [],
      "stateMutability": "nonpayable",
      "type": "function"
    },
    {
      "inputs": [
        {
          "internalType": "bytes32",
          "name": "id",
          "type": "bytes32"
        },
        {
          "internalType": "address",
          "name": "winner",
          "type": "address"
        }
      ],
      "name": "confirmResult",
      "outputs": [],
      "stateMutability": "nonpayable",
      "type": "function"
    },
    {
      "inputs": [
        {
          "internalType": "bytes32",
          "name": "",
          "type": "bytes32"
        },
        {
          "internalType": "address",
          "name": "",
          "type": "address"
        }
      ],
      "name": "confirmations",
      "outputs": [
        {
          "internalType": "address",
          "name": "",
          "type": "address"
        }
      ],
      "stateMutability": "view",
      "type": "function"
    },
    {
      "inputs": [
        {
          "internalType": "bytes32",
          "name": "id",
          "type": "bytes32"
        },
        {
          "internalType": "uint256",
          "name": "stake",
          "type": "uint256"
        },
        {
          "internalType": "address",
          "name": "token",
          "type": "address"
        }
      ],
      "name": "createDuel",
      "outputs": [],
      "stateMutability": "nonpayable",
      "type": "function"
    },
    {
      "inputs": [
        {
          "internalType": "bytes32",
          "name": "",
          "type": "bytes32"
        }
      ],
      "name": "duels",
      "outputs": [
        {
          "internalType": "bytes32",
          "name": "id",
          "type": "bytes32"
        },
        {
          "internalType": "address",
          "name": "player1",
          "type": "address"
        },
        {
          "internalType": "address",
          "name": "player2",
          "type": "address"
        },
        {
          "internalType": "uint256",
          "name": "stake",
          "type": "uint256"
        },
        {
          "internalType": "address",
          "name": "token",
          "type": "address"
        },
        {
          "internalType": "enum DuelManager.Status",
          "name": "status",
          "type": "uint8"
        },
        {
          "internalType": "address",
          "name": "winner",
          "type": "address"
        }
      ],
      "stateMutability": "view",
      "type": "function"
    },
    {
      "inputs": [],
      "name": "feeBps",
      "outputs": [
        {
          "internalType": "uint256",
          "name": "",
          "type": "uint256"
        }
      ],
      "stateMutability": "view",
      "type": "function"
    },
    {
      "inputs": [],
      "name": "feeCollector",
      "outputs": [
        {
          "internalType": "address",
          "name": "",
          "type": "address"
        }
      ],
      "stateMutability": "view",
      "type": "function"
    },
    {
      "inputs": [
        {
          "internalType": "uint256",
          "name": "start",
          "type": "uint256"
        },
        {
          "internalType": "uint256",
          "name": "count",
          "type": "uint256"
        }
      ],
      "name": "getPlayers",
      "outputs": [
        {
          "internalType": "address[]",
          "name": "out",
          "type": "address[]"
        }
      ],
      "stateMutability": "view",
      "type": "function"
    },
    {
      "inputs": [
        {
          "internalType": "bytes32",
          "name": "id",
          "type": "bytes32"
        }
      ],
      "name": "joinDuel",
      "outputs": [],
      "stateMutability": "nonpayable",
      "type": "function"
    },
    {
      "inputs": [],
      "name": "owner",
      "outputs": [
        {
          "internalType": "address",
          "name": "",
          "type": "address"
        }
      ],
      "stateMutability": "view",
      "type": "function"
    },
    {
      "inputs": [
        {
          "internalType": "uint256",
          "name": "",
          "type": "uint256"
        }
      ],
      "name": "players",
      "outputs": [
        {
          "internalType": "address",
          "name": "",
          "type": "address"
        }
      ],
      "stateMutability": "view",
      "type": "function"
    },
    {
      "inputs": [
        {
          "internalType": "uint256",
          "name": "_feeBps",
          "type": "uint256"
        }
      ],
      "name": "setFeeBps",
      "outputs": [],
      "stateMutability": "nonpayable",
      "type": "function"
    },
    {
      "inputs": [
        {
          "internalType": "address",
          "name": "_feeCollector",
          "type": "address"
        }
      ],
      "name": "setFeeCollector",
      "outputs": [],
      "stateMutability": "nonpayable",
      "type": "function"
    },
    {
      "inputs": [
        {
          "internalType": "address",
          "name": "",
          "type": "address"
        }
      ],
      "name": "stats",
      "outputs": [
        {
          "internalType": "uint256",
          "name": "wins",
          "type": "uint256"
        },
        {
          "internalType": "uint256",
          "name": "losses",
          "type": "uint256"
        },
        {
          "internalType": "uint256",
          "name": "winnings",
          "type": "uint256"
        },
        {
          "internalType": "uint256",
          "name": "totalStaked",
          "type": "uint256"
        }
      ],
      "stateMutability": "view",
      "type": "function"
    }
  ],
  "bytecode": "0x608060405234801561001057600080fd5b5060405161163338038061163383398101604081905261002f91610081565b600080546001600160a01b031916331790556001600160a01b038216156100565781610058565b335b600180546001600160a01b0319166001600160a01b0392909216919091179055600255506100bb565b6000806040838503121561009457600080fd5b82516001600160a01b03811681146100ab57600080fd5b6020939093015192949293505050565b611569806100ca6000396000f3fe608060405234801561001057600080fd5b50600436106100ea5760003560e01c8063a42dce801161008c578063d9c88cf711610066578063d9c88cf7146102a2578063ed5eb77a146102b5578063f71d96cb146102c8578063fb39fb52146102db57600080fd5b8063a42dce8014610207578063c415b95c1461021a578063d18aae701461022d57600080fd5b806324a9d853116100c857806324a9d8531461017557806372c27b621461018c5780638bcdcbf31461019f5780638da5cb5b146101f457600080fd5b80630c4ecab4146100ef5780630d2dce2214610140578063123fa3b614610160575b600080fd5b6101236100fd3660046112e7565b60046020908152600092835260408084209091529082529020546001600160a01b031681565b6040516001600160a01b0390911681526020015b60405180910390f35b61015361014e366004611313565b6102ee565b6040516101379190611335565b61017361016e366004611382565b6103ff565b005b61017e60025481565b604051908152602001610137565b61017361019a366004611382565b6105b6565b6101d46101ad36600461139b565b60056020526000908152604090208054600182015460028301546003909301549192909184565b604080519485526020850193909352918301526060820152608001610137565b600054610123906001600160a01b031681565b61017361021536600461139b565b610642565b600154610123906001600160a01b031681565b61028f61023b366004611382565b600360208190526000918252604090912080546001820154600283015493830154600484015460059094015492946001600160a01b039283169490831693919280821692600160a01b90920460ff16911687565b60405161013797969594939291906113d3565b6101736102b03660046112e7565b6106aa565b6101736102c3366004611382565b6108d7565b6101236102d6366004611382565b610b9f565b6101736102e936600461143b565b610bc9565b6006546060908084106103115750506040805160008152602081019091526103f9565b600061031d848661149c565b90508181111561032a5750805b600061033686836114af565b90508067ffffffffffffffff81111561035157610351611470565b60405190808252806020026020018201604052801561037a578160200160208202803683370190505b50935060005b818110156103f4576006610394828961149c565b815481106103a4576103a46114c2565b9060005260206000200160009054906101000a90046001600160a01b03168582815181106103d4576103d46114c2565b6001600160a01b0390921660209283029190910190910152600101610380565b505050505b92915050565b600081815260036020526040902060018101546001600160a01b0316331461045d5760405162461bcd60e51b815260206004820152600c60248201526b27b7363c9031b932b0ba37b960a11b60448201526064015b60405180910390fd5b60006004820154600160a01b900460ff16600381111561047f5761047f6113bd565b146104b75760405162461bcd60e51b81526020600482015260086024820152672737ba1037b832b760c11b6044820152606401610454565b60048181018054600360a01b60ff60a01b198216179091556001830154600384015460405163a9059cbb60e01b81526001600160a01b03928316948101949094526024840152169063a9059cbb906044016020604051808303816000875af1158015610527573d6000803e3d6000fd5b505050506040513d601f19601f8201168201806040525081019061054b91906114d8565b6105875760405162461bcd60e51b815260206004820152600d60248201526c1c99599d5b990819985a5b1959609a1b6044820152606401610454565b60405182907f5d798f443a55745e766f01169abbf30e321258c3ac925c948d1fad2c068967e490600090a25050565b6000546001600160a01b031633146105fc5760405162461bcd60e51b81526020600482015260096024820152682737ba1037bbb732b960b91b6044820152606401610454565b6107d081111561063d5760405162461bcd60e51b815260206004820152600c60248201526b08ccaca40e8dede40d0d2ced60a31b6044820152606401610454565b600255565b6000546001600160a01b031633146106885760405162461bcd60e51b81526020600482015260096024820152682737ba1037bbb732b960b91b6044820152606401610454565b600180546001600160a01b0319166001600160a01b0392909216919091179055565b600082815260036020526040902060018101548391906001600160a01b03163314806106e2575060028101546001600160a01b031633145b61071d5760405162461bcd60e51b815260206004820152600c60248201526b2737ba103090383630bcb2b960a11b6044820152606401610454565b600084815260036020526040902060016004820154600160a01b900460ff16600381111561074d5761074d6113bd565b146107875760405162461bcd60e51b815260206004820152600a6024820152694e6f742061637469766560b01b6044820152606401610454565b60018101546001600160a01b03858116911614806107b4575060028101546001600160a01b038581169116145b6107f15760405162461bcd60e51b815260206004820152600e60248201526d24b73b30b634b2103bb4b73732b960911b6044820152606401610454565b600085815260046020908152604080832033808552925280832080546001600160a01b0319166001600160a01b0389169081179091559051909288917fdf9e8954c1fe1dc40676cadb9b3e2d1ebee0b2437c9dd6632cb289ba62a46eab9190a4600085815260046020908152604080832060018501546001600160a01b039081168552925280832054600285015483168452922054918116911681158015906108a257506001600160a01b03811615155b80156108bf5750806001600160a01b0316826001600160a01b0316145b156108ce576108ce8783610ece565b50505050505050565b600081815260036020526040902060018101546001600160a01b031661092e5760405162461bcd60e51b815260206004820152600c60248201526b4475656c206d697373696e6760a01b6044820152606401610454565b60006004820154600160a01b900460ff166003811115610950576109506113bd565b146109885760405162461bcd60e51b81526020600482015260086024820152672737ba1037b832b760c11b6044820152606401610454565b60028101546001600160a01b0316156109cc5760405162461bcd60e51b8152602060048201526006602482015265129bda5b995960d21b6044820152606401610454565b60018101546001600160a01b03163303610a165760405162461bcd60e51b815260206004820152600b60248201526a29b0b6b290383630bcb2b960a91b6044820152606401610454565b6002810180546001600160a01b031916331790556004810180546001919060ff60a01b1916600160a01b83021790555060048181015460038301546040516323b872dd60e01b8152339381019390935230602484015260448301526001600160a01b0316906323b872dd906064016020604051808303816000875af1158015610aa3573d6000803e3d6000fd5b505050506040513d601f19601f82011682018060405250810190610ac791906114d8565b610b0b5760405162461bcd60e51b81526020600482015260156024820152741cdd185ad9481d1c985b9cd9995c8819985a5b1959605a1b6044820152606401610454565b600380820154336000908152600560205260408120909201805491929091610b3490849061149c565b90915550610b43905033611242565b604051339083907f1eb43aa8ef4d730d2f76aae922aafdbd064efa3352f73fd40fa1d3bbef4cd05790600090a360405182907fb37fb54a76f874f0ec60d8cd7ffdcd72d64968a3b511f407f16cafd9b50a770890600090a25050565b60068181548110610baf57600080fd5b6000918252602090912001546001600160a01b0316905081565b6000838152600360205260409020600101546001600160a01b031615610c1f5760405162461bcd60e51b815260206004820152600b60248201526a4475656c2065786973747360a81b6044820152606401610454565b60008211610c595760405162461bcd60e51b815260206004820152600760248201526605374616b653e360cc1b6044820152606401610454565b6001600160a01b038116610ca05760405162461bcd60e51b815260206004820152600e60248201526d151bdad95b881c995c5d5a5c995960921b6044820152606401610454565b6040805160e0810182528481523360208083019182526000838501818152606085018881526001600160a01b038881166080880190815260a0880185815260c089018690528c8652600396879052989094208751815595516001870180549183166001600160a01b03199283161790559251600287018054918316918516919091179055905185850155915160048501805491909316918116821783559551949593949391926001600160a81b03199092161790600160a01b908490811115610d6b57610d6b6113bd565b021790555060c09190910151600590910180546001600160a01b0319166001600160a01b039283161790556040516323b872dd60e01b815233600482015230602482015260448101849052908216906323b872dd906064016020604051808303816000875af1158015610de2573d6000803e3d6000fd5b505050506040513d601f19601f82011682018060405250810190610e0691906114d8565b610e4a5760405162461bcd60e51b81526020600482015260156024820152741cdd185ad9481d1c985b9cd9995c8819985a5b1959605a1b6044820152606401610454565b3360009081526005602052604081206003018054849290610e6c90849061149c565b90915550610e7b905033611242565b806001600160a01b0316336001600160a01b0316847fc387dbc55364fece0c83fa65c865f1dcef6ab6a86829e50446076911b906868185604051610ec191815260200190565b60405180910390a4505050565b600082815260036020526040902060016004820154600160a01b900460ff166003811115610efe57610efe6113bd565b14610f385760405162461bcd60e51b815260206004820152600a6024820152694e6f742061637469766560b01b6044820152606401610454565b600081600301546002610f4b91906114fa565b9050600061271060025483610f6091906114fa565b610f6a9190611511565b90506000610f7882846114af565b60048581018054600160a11b60ff60a01b198216179091556005870180546001600160a01b038a81166001600160a01b0319909216821790925560405163a9059cbb60e01b81529384015260248301849052929350919091169063a9059cbb906044016020604051808303816000875af1158015610ffa573d6000803e3d6000fd5b505050506040513d601f19601f8201168201806040525081019061101e91906114d8565b6110625760405162461bcd60e51b81526020600482015260156024820152741c1c9a5e99481d1c985b9cd9995c8819985a5b1959605a1b6044820152606401610454565b81156111275760048481015460015460405163a9059cbb60e01b81526001600160a01b039182169381019390935260248301859052169063a9059cbb906044016020604051808303816000875af11580156110c1573d6000803e3d6000fd5b505050506040513d601f19601f820116820180604052508101906110e591906114d8565b6111275760405162461bcd60e51b8152602060048201526013602482015272199959481d1c985b9cd9995c8819985a5b1959606a1b6044820152606401610454565b60018401546000906001600160a01b038781169116146111545760018501546001600160a01b0316611163565b60028501546001600160a01b03165b6001600160a01b0387166000908152600560205260408120805492935060019290919061119190849061149c565b90915550506001600160a01b038616600090815260056020526040812060020180548492906111c190849061149c565b90915550506001600160a01b038116600090815260056020526040812060019081018054919290916111f490849061149c565b90915550506040518281526001600160a01b0387169088907f6128b48d5ec91f60dd9382c113490194411b22b09fc18481e66742e9a5428fee9060200160405180910390a350505050505050565b6001600160a01b03811660009081526007602052604090205460ff166112c8576001600160a01b0381166000818152600760205260408120805460ff191660019081179091556006805491820181559091527ff652222313e28459528d920b65115c16c04f3efc82aaedc97be59f3f377c0d3f0180546001600160a01b03191690911790555b50565b80356001600160a01b03811681146112e257600080fd5b919050565b600080604083850312156112fa57600080fd5b8235915061130a602084016112cb565b90509250929050565b6000806040838503121561132657600080fd5b50508035926020909101359150565b6020808252825182820181905260009190848201906040850190845b818110156113765783516001600160a01b031683529284019291840191600101611351565b50909695505050505050565b60006020828403121561139457600080fd5b5035919050565b6000602082840312156113ad57600080fd5b6113b6826112cb565b9392505050565b634e487b7160e01b600052602160045260246000fd5b8781526001600160a01b038781166020830152868116604083015260608201869052848116608083015260e08201906004851061142057634e487b7160e01b600052602160045260246000fd5b8460a084015280841660c08401525098975050505050505050565b60008060006060848603121561145057600080fd5b8335925060208401359150611467604085016112cb565b90509250925092565b634e487b7160e01b600052604160045260246000fd5b634e487b7160e01b600052601160045260246000fd5b808201808211156103f9576103f9611486565b818103818111156103f9576103f9611486565b634e487b7160e01b600052603260045260246000fd5b6000602082840312156114ea57600080fd5b815180151581146113b657600080fd5b80820281158282048414176103f9576103f9611486565b60008261152e57634e487b7160e01b600052601260045260246000fd5b50049056fea2646970667358221220c6fd3730fa7b2d8c78e9c093c2c41ef87081e2cc44523055b08a75dae9cc65e364736f6c63430008180033",
  "linkReferences": {},
  "deployedLinkReferences": {}
}