{
  "_format": "hh-sol-artifact-1",
  "contractName": "DuelManager",
  "sourceName": "contracts/DuelManager.sol",
  "abi": [
    {
      "inputs": [
        {
          "internalType": "address",
          "name": "_feeCollector",
          "type": "address"
        },
        {
          "internalType": "uint256",
          "name": "_feeBps",
          "type": "uint256"
        }
      ],
      "stateMutability": "nonpayable",
      "type": "constructor"
    },
    {
      "anonymous": false,
      "inputs": [
        {
          "indexed": true,
          "internalType": "bytes32",
          "name": "id",
          "type": "bytes32"
        },
        {
          "indexed": true,
          "internalType": "address",
          "name": "player1",
          "type": "address"
        },
        {
          "indexed": false,
          "internalType": "uint256",
          "name": "stake",
          "type": "uint256"
        },
        {
          "indexed": true,
          "internalType": "address",
          "name": "token",
          "type": "address"
        }
      ],
      "name": "ComputerDuelCreated",
      "type": "event"
    },
    {
      "anonymous": false,
      "inputs": [
        {
          "indexed": true,
          "internalType": "bytes32",
          "name": "id",
          "type": "bytes32"
        },
        {
          "indexed": true,
          "internalType": "address",
          "name": "winner",
          "type": "address"
        },
        {
          "indexed": false,
          "internalType": "uint256",
          "name": "prize",
          "type": "uint256"
        },
        {
          "indexed": false,
          "internalType": "bool",
          "name": "playerWon",
          "type": "bool"
        }
      ],
      "name": "ComputerDuelFinished",
      "type": "event"
    },
    {
      "anonymous": false,
      "inputs": [
        {
          "indexed": true,
          "internalType": "bytes32",
          "name": "id",
          "type": "bytes32"
        }
      ],
      "name": "DuelCancelled",
      "type": "event"
    },
    {
      "anonymous": false,
      "inputs": [
        {
          "indexed": true,
          "internalType": "bytes32",
          "name": "id",
          "type": "bytes32"
        },
        {
          "indexed": true,
          "internalType": "address",
          "name": "player1",
          "type": "address"
        },
        {
          "indexed": false,
          "internalType": "uint256",
          "name": "stake",
          "type": "uint256"
        },
        {
          "indexed": true,
          "internalType": "address",
          "name": "token",
          "type": "address"
        }
      ],
      "name": "DuelCreated",
      "type": "event"
    },
    {
      "anonymous": false,
      "inputs": [
        {
          "indexed": true,
          "internalType": "bytes32",
          "name": "id",
          "type": "bytes32"
        },
        {
          "indexed": true,
          "internalType": "address",
          "name": "winner",
          "type": "address"
        },
        {
          "indexed": false,
          "internalType": "uint256",
          "name": "prize",
          "type": "uint256"
        }
      ],
      "name": "DuelFinished",
      "type": "event"
    },
    {
      "anonymous": false,
      "inputs": [
        {
          "indexed": true,
          "internalType": "bytes32",
          "name": "id",
          "type": "bytes32"
        },
        {
          "indexed": true,
          "internalType": "address",
          "name": "player2",
          "type": "address"
        }
      ],
      "name": "DuelJoined",
      "type": "event"
    },
    {
      "anonymous": false,
      "inputs": [
        {
          "indexed": true,
          "internalType": "bytes32",
          "name": "id",
          "type": "bytes32"
        }
      ],
      "name": "DuelStarted",
      "type": "event"
    },
    {
      "anonymous": false,
      "inputs": [
        {
          "indexed": true,
          "internalType": "bytes32",
          "name": "id",
          "type": "bytes32"
        },
        {
          "indexed": true,
          "internalType": "address",
          "name": "player",
          "type": "address"
        },
        {
          "indexed": true,
          "internalType": "address",
          "name": "winner",
          "type": "address"
        }
      ],
      "name": "ResultConfirmed",
      "type": "event"
    },
    {
      "inputs": [
        {
          "internalType": "bytes32",
          "name": "id",
          "type": "bytes32"
        }
      ],
      "name": "cancelDuel",
      "outputs": [],
      "stateMutability": "nonpayable",
      "type": "function"
    },
    {
      "inputs": [],
      "name": "computerOpponent",
      "outputs": [
        {
          "internalType": "address",
          "name": "",
          "type": "address"
        }
      ],
      "stateMutability": "view",
      "type": "function"
    },
    {
      "inputs": [
        {
          "internalType": "bytes32",
          "name": "id",
          "type": "bytes32"
        },
        {
          "internalType": "address",
          "name": "winner",
          "type": "address"
        }
      ],
      "name": "confirmResult",
      "outputs": [],
      "stateMutability": "nonpayable",
      "type": "function"
    },
    {
      "inputs": [
        {
          "internalType": "bytes32",
          "name": "",
          "type": "bytes32"
        },
        {
          "internalType": "address",
          "name": "",
          "type": "address"
        }
      ],
      "name": "confirmations",
      "outputs": [
        {
          "internalType": "address",
          "name": "",
          "type": "address"
        }
      ],
      "stateMutability": "view",
      "type": "function"
    },
    {
      "inputs": [
        {
          "internalType": "bytes32",
          "name": "id",
          "type": "bytes32"
        },
        {
          "internalType": "uint256",
          "name": "stake",
          "type": "uint256"
        },
        {
          "internalType": "address",
          "name": "token",
          "type": "address"
        }
      ],
      "name": "createComputerDuel",
      "outputs": [],
      "stateMutability": "nonpayable",
      "type": "function"
    },
    {
      "inputs": [
        {
          "internalType": "bytes32",
          "name": "id",
          "type": "bytes32"
        },
        {
          "internalType": "uint256",
          "name": "stake",
          "type": "uint256"
        },
        {
          "internalType": "address",
          "name": "token",
          "type": "address"
        }
      ],
      "name": "createDuel",
      "outputs": [],
      "stateMutability": "nonpayable",
      "type": "function"
    },
    {
      "inputs": [
        {
          "internalType": "bytes32",
          "name": "",
          "type": "bytes32"
        }
      ],
      "name": "duels",
      "outputs": [
        {
          "internalType": "bytes32",
          "name": "id",
          "type": "bytes32"
        },
        {
          "internalType": "address",
          "name": "player1",
          "type": "address"
        },
        {
          "internalType": "address",
          "name": "player2",
          "type": "address"
        },
        {
          "internalType": "uint256",
          "name": "stake",
          "type": "uint256"
        },
        {
          "internalType": "address",
          "name": "token",
          "type": "address"
        },
        {
          "internalType": "enum DuelManager.Status",
          "name": "status",
          "type": "uint8"
        },
        {
          "internalType": "address",
          "name": "winner",
          "type": "address"
        },
        {
          "internalType": "bool",
          "name": "isComputerDuel",
          "type": "bool"
        }
      ],
      "stateMutability": "view",
      "type": "function"
    },
    {
      "inputs": [],
      "name": "feeBps",
      "outputs": [
        {
          "internalType": "uint256",
          "name": "",
          "type": "uint256"
        }
      ],
      "stateMutability": "view",
      "type": "function"
    },
    {
      "inputs": [],
      "name": "feeCollector",
      "outputs": [
        {
          "internalType": "address",
          "name": "",
          "type": "address"
        }
      ],
      "stateMutability": "view",
      "type": "function"
    },
    {
      "inputs": [
        {
          "internalType": "bytes32",
          "name": "id",
          "type": "bytes32"
        },
        {
          "internalType": "address",
          "name": "winner",
          "type": "address"
        }
      ],
      "name": "finishComputerDuel",
      "outputs": [],
      "stateMutability": "nonpayable",
      "type": "function"
    },
    {
      "inputs": [
        {
          "internalType": "uint256",
          "name": "start",
          "type": "uint256"
        },
        {
          "internalType": "uint256",
          "name": "count",
          "type": "uint256"
        }
      ],
      "name": "getPlayers",
      "outputs": [
        {
          "internalType": "address[]",
          "name": "out",
          "type": "address[]"
        }
      ],
      "stateMutability": "view",
      "type": "function"
    },
    {
      "inputs": [
        {
          "internalType": "bytes32",
          "name": "id",
          "type": "bytes32"
        }
      ],
      "name": "joinDuel",
      "outputs": [],
      "stateMutability": "nonpayable",
      "type": "function"
    },
    {
      "inputs": [],
      "name": "owner",
      "outputs": [
        {
          "internalType": "address",
          "name": "",
          "type": "address"
        }
      ],
      "stateMutability": "view",
      "type": "function"
    },
    {
      "inputs": [
        {
          "internalType": "uint256",
          "name": "",
          "type": "uint256"
        }
      ],
      "name": "players",
      "outputs": [
        {
          "internalType": "address",
          "name": "",
          "type": "address"
        }
      ],
      "stateMutability": "view",
      "type": "function"
    },
    {
      "inputs": [
        {
          "internalType": "address",
          "name": "_computerOpponent",
          "type": "address"
        }
      ],
      "name": "setComputerOpponent",
      "outputs": [],
      "stateMutability": "nonpayable",
      "type": "function"
    },
    {
      "inputs": [
        {
          "internalType": "uint256",
          "name": "_feeBps",
          "type": "uint256"
        }
      ],
      "name": "setFeeBps",
      "outputs": [],
      "stateMutability": "nonpayable",
      "type": "function"
    },
    {
      "inputs": [
        {
          "internalType": "address",
          "name": "_feeCollector",
          "type": "address"
        }
      ],
      "name": "setFeeCollector",
      "outputs": [],
      "stateMutability": "nonpayable",
      "type": "function"
    },
    {
      "inputs": [
        {
          "internalType": "address",
          "name": "",
          "type": "address"
        }
      ],
      "name": "stats",
      "outputs": [
        {
          "internalType": "uint256",
          "name": "wins",
          "type": "uint256"
        },
        {
          "internalType": "uint256",
          "name": "losses",
          "type": "uint256"
        },
        {
          "internalType": "uint256",
          "name": "winnings",
          "type": "uint256"
        },
        {
          "internalType": "uint256",
          "name": "totalStaked",
          "type": "uint256"
        }
      ],
      "stateMutability": "view",
      "type": "function"
    }
  ],
  "bytecode": "0x6080346100a357601f611c6a38819003918201601f19168301916001600160401b038311848410176100a85780849260409485528339810103126100a35780516001600160a01b0380821691908282036100a357602061dead9401519160018060a01b031993338560005416176000551560001461009e5750335b168260015416176001556002556003541617600355604051611bab90816100bf8239f35b61007a565b600080fd5b634e487b7160e01b600052604160045260246000fdfe60406080815260048036101561001457600080fd5b600091823560e01c806304fe738a146111d65780630c4ecab4146111945780630d2dce221461112b578063123fa3b614610f7457806324a9d85314610f555780633709e08f14610dc15780636ca81ff014610cad57806372c27b6214610c2e5780638bcdcbf314610bd55780638da5cb5b14610baf578063a42dce8014610b69578063ac7be06f14610b41578063c415b95c14610b19578063d18aae7014610a6c578063d9c88cf7146105bd578063ed5eb77a1461035c578063f71d96cb146103175763fb39fb52146100e657600080fd5b3461031357600191816100f83661124d565b82889693959296528460209485928484526101248b6001600160a01b039b8c9485922001541615611542565b61012f89151561158d565b169761013c8915156115d8565b84516101478161130f565b828152898b85830133815288840182815260608501908d8252608086019485528a60a08701948086528b60c089019b828d5260e08a019b838d5283525220955186558660018701935116926001600160a01b031993848254161790558660028701915116838254161790555160038501558488850193511690835416178255519086821015610300579260058996936101e68d979461025a9a976114f1565b019251167fffffffffffffffffffffff00000000000000000000000000000000000000000060ff60a01b84549351151560a01b16921617179055845193849283926323b872dd60e01b84523090339085016040919493929460608201956001600160a01b0380921683521660208201520152565b03818a8a5af19081156102f6577fc387dbc55364fece0c83fa65c865f1dcef6ab6a86829e50446076911b906868193929161029c9189916102c9575b50611623565b338752600682526003818820016102b486825461137c565b90556102bf33611b02565b519384523393a480f35b6102e99150843d86116102ef575b6102e18183611342565b81019061152a565b38610296565b503d6102d7565b82513d89823e3d90fd5b60248d602189634e487b7160e01b835252fd5b8280fd5b50903461031357602036600319011261031357359160075483101561035957506001600160a01b0361034a602093611277565b92905490519260031b1c168152f35b80fd5b503461031357602090816003193601126105b9578235928385528083528185206001600160a01b0390816001820154169081156105775783810180549260ff8460a01c1686811015610564576103b290156114a6565b60028301908154908682166105225733146104e0576001600160a01b0319163390811790915560ff60a01b19841674010000000000000000000000000000000000000000179091556003909101805486516323b872dd60e01b81529586019283523060208401526040830152939286928492909183918b919083906060010393165af19081156104d65760039261045661046795936006938a916104bf5750611623565b54943388525285200191825461137c565b905561047233611b02565b33817f1eb43aa8ef4d730d2f76aae922aafdbd064efa3352f73fd40fa1d3bbef4cd0578480a37fb37fb54a76f874f0ec60d8cd7ffdcd72d64968a3b511f407f16cafd9b50a77088280a280f35b6102e99150883d8a116102ef576102e18183611342565b83513d88823e3d90fd5b6064878a8a519162461bcd60e51b8352820152600b60248201527f53616d6520706c617965720000000000000000000000000000000000000000006044820152fd5b6064888b8b519162461bcd60e51b8352820152600660248201527f4a6f696e656400000000000000000000000000000000000000000000000000006044820152fd5b60248b602189634e487b7160e01b835252fd5b6064848787519162461bcd60e51b8352820152600c60248201527f4475656c206d697373696e6700000000000000000000000000000000000000006044820152fd5b8380fd5b5090346103135781600319360112610313578035906105da611237565b928285526020828152818620906001600160a01b0393600192858085830154163314918215610a5b575b505015610a1a5785885280825283882060ff8282015460a01c1682811015610a07578461063191146116b9565b838101938680865416991698891480156109f8575b61064f90611704565b878a52600598898552868b20338c528552868b20906001600160a01b03199181838254161790558b8a7fdf9e8954c1fe1dc40676cadb9b3e2d1ebee0b2437c9dd6632cb289ba62a46eab339280a4828a015460a01c60ff16156106fc5750505050848752858152838388209254169182885281528383882054166106d7575b50505050505080f35b6106f19585885281528287209187525284205416906117f8565b3880808080806106ce565b90939594888b9a939998949b5282875283868b209154168a52865282858a20541697878a52828752836002878c20920154168a52865282858a20541688151590816109ee575b816109e4575b5061075b575b5050505050505050905080f35b868952898652848920918a830190815460ff8160a01c168d8110156109d0578761078591146116b9565b60038501549384881b94808604600214901517156109bc57898e938d9a9998979695938f8c90610817956107c96127106107c16002548d61174f565b04809b61139f565b9e8f95600160a11b60ff60a01b198716178a558c01918254161790558a8d5180978196829563a9059cbb60e01b9c8d85528401602090939291936001600160a01b0360408201951681520152565b0393165af19081156109b2579161083c87969594928f948d9591610995575b506117ad565b8361090c575b50505050808401548216898103610904575060020154165b878952600686528389208054908482018092116108f15755878952600686526002848a200161088a86825461137c565b905516875260068452808288200180549182018092116108de577f6128b48d5ec91f60dd9382c113490194411b22b09fc18481e66742e9a5428fee95969798505551908152a380388080808080808061074e565b60248860118b634e487b7160e01b835252fd5b60248b60118e634e487b7160e01b835252fd5b91505061085a565b94909192939454168d8d87895416936109468b519788968795869485528401602090939291936001600160a01b0360408201951681520152565b03925af190811561098b57839291610965918c9161096e575b50611762565b38878180610842565b6109859150893d8b116102ef576102e18183611342565b3861095f565b85513d8c823e3d90fd5b6109ac9150853d87116102ef576102e18183611342565b38610836565b88513d8f823e3d90fd5b5060248c60118f634e487b7160e01b835252fd5b5060248c60218f634e487b7160e01b835252fd5b9050881438610748565b8015159150610742565b50600282015487168914610646565b60248a602185634e487b7160e01b835252fd5b60649184519162461bcd60e51b8352820152600c60248201527f4e6f74206120706c6179657200000000000000000000000000000000000000006044820152fd5b600291925001541633148538610604565b50829034610b15576020366003190112610b15578235825282602052808220918254926001600160a01b0391828060018401541694816002850154166003850154908986015492600560ff8560a01c169701549881519a8b5260208b0152890152606088015216608086015285821015610b02576101008560ff86868660a0850152811660c084015260a01c16151560e0820152f35b80602187634e487b7160e01b6024945252fd5b5080fd5b838234610b155781600319360112610b15576020906001600160a01b03600154169051908152f35b838234610b155781600319360112610b15576020906001600160a01b03600354169051908152f35b833461035957602036600319011261035957610b8361121c565b6001600160a01b0390610b9a8284541633146112c4565b166001600160a01b0319600154161760015580f35b838234610b155781600319360112610b15576001600160a01b0360209254169051908152f35b838234610b15576020366003190112610b1557806080926001600160a01b03610bfc61121c565b168152600660205220908154916001810154916003600283015492015492815194855260208501528301526060820152f35b50903461031357602036600319011261031357803591610c596001600160a01b0385541633146112c4565b6107d08311610c6a57505060025580f35b906020606492519162461bcd60e51b8352820152600c60248201527f46656520746f6f206869676800000000000000000000000000000000000000006044820152fd5b50919034610b155782600319360112610b15578035610cca611237565b9181845280602052848420610ce860ff600583015460a01c1661166e565b60ff8282015460a01c1682811015610dae576001610d0691146116b9565b6001600160a01b03610d30816001840154169282871683858214928315610d9e575b505050611704565b8554163314908115610d94575b5015610d51575090610d4e916117f8565b80f35b606490602086519162461bcd60e51b8352820152600e60248201527f4e6f7420617574686f72697a65640000000000000000000000000000000000006044820152fd5b9050331438610d3d565b6002015416149050388381610d28565b602486602185634e487b7160e01b835252fd5b5090346103135760019082610dd53661124d565b828897939795929552866020948592848452610e028b6001600160a01b039a8b9485922001541615611542565b610e0d88151561158d565b1696610e1a8815156115d8565b8060035416855190610e2b8261130f565b8382528b858301338152888401928352606084018b815260808501938d85528a60a0870194600186528b60c089019b828d5260e08a019b60018d5283525220955186558660018701935116926001600160a01b031993848254161790558660028701915116838254161790555160038501558488850193511690835416178255519086821015610300579260058996936101e68c9794610ecb9a976114f1565b03818a895af19081156102f65791610f0d8794927fb989f5bcaa268ac1f9f1798edc2ab8b625696181778bda6362b4a70f3d762bd7948a916102c95750611623565b33885260068252600381892001610f2586825461137c565b9055519384523393a47fb37fb54a76f874f0ec60d8cd7ffdcd72d64968a3b511f407f16cafd9b50a77088280a280f35b838234610b155781600319360112610b15576020906002549051908152f35b509034610313576020806003193601126105b9578135928385528282528085206001600160a01b0390816001820154163381036110e9578582019182549260ff8460a01c16888110156110d657600388959361102b979593610fd78e94156114a6565b7403000000000000000000000000000000000000000060ff60a01b198716179055015493875180978196829563a9059cbb60e01b84528d8401602090939291936001600160a01b0360408201951681520152565b0393165af19081156110cc5786916110af575b501561106e575050507f5d798f443a55745e766f01169abbf30e321258c3ac925c948d1fad2c068967e48280a280f35b60649350519162461bcd60e51b8352820152600d60248201527f726566756e64206661696c6564000000000000000000000000000000000000006044820152fd5b6110c69150833d85116102ef576102e18183611342565b3861103e565b82513d88823e3d90fd5b60248b60218b634e487b7160e01b835252fd5b6064868686519162461bcd60e51b8352820152600c60248201527f4f6e6c792063726561746f7200000000000000000000000000000000000000006044820152fd5b50903461031357816003193601126103135761114b9060243590356113ac565b815192839260208080860192818752855180945286019401925b82811061117457505050500390f35b83516001600160a01b031685528695509381019392810192600101611165565b509034610313578160031936011261031357816020936111b2611237565b92358152600585528181206001600160a01b03809416825285522054169051908152f35b8334610359576020366003190112610359576111f061121c565b6001600160a01b03906112078284541633146112c4565b166001600160a01b0319600354161760035580f35b600435906001600160a01b038216820361123257565b600080fd5b602435906001600160a01b038216820361123257565b60609060031901126112325760043590602435906044356001600160a01b03811681036112325790565b6007548110156112ae5760076000527fa66cc928b5edb82af9bd49922954155ab7b0942694bea4ce44661d9a8736c6880190600090565b634e487b7160e01b600052603260045260246000fd5b156112cb57565b606460405162461bcd60e51b815260206004820152600960248201527f4e6f74206f776e657200000000000000000000000000000000000000000000006044820152fd5b610100810190811067ffffffffffffffff82111761132c57604052565b634e487b7160e01b600052604160045260246000fd5b90601f8019910116810190811067ffffffffffffffff82111761132c57604052565b67ffffffffffffffff811161132c5760051b60200190565b9190820180921161138957565b634e487b7160e01b600052601160045260246000fd5b9190820391821161138957565b91906007549081841015611479576113d8916113c985928361137c565b90808211611471575b5061139f565b916113e283611364565b926113f06040519485611342565b8084526113fc81611364565b60209490601f19013686830137809460009360005b84811061142057505050505050565b61143261142d828461137c565b611277565b905490855183101561145d5760031b1c6001600160a01b0316600582901b8501840152600101611411565b602488634e487b7160e01b81526032600452fd5b9050386113d2565b505090506040516020810181811067ffffffffffffffff82111761132c5760405260008152600036813790565b156114ad57565b606460405162461bcd60e51b815260206004820152600860248201527f4e6f74206f70656e0000000000000000000000000000000000000000000000006044820152fd5b9060048110156115145760ff60a01b1960ff60a01b83549260a01b169116179055565b634e487b7160e01b600052602160045260246000fd5b90816020910312611232575180151581036112325790565b1561154957565b606460405162461bcd60e51b815260206004820152600b60248201527f4475656c206578697374730000000000000000000000000000000000000000006044820152fd5b1561159457565b606460405162461bcd60e51b815260206004820152600760248201527f5374616b653e30000000000000000000000000000000000000000000000000006044820152fd5b156115df57565b606460405162461bcd60e51b815260206004820152600e60248201527f546f6b656e2072657175697265640000000000000000000000000000000000006044820152fd5b1561162a57565b606460405162461bcd60e51b815260206004820152601560248201527f7374616b65207472616e73666572206661696c656400000000000000000000006044820152fd5b1561167557565b606460405162461bcd60e51b815260206004820152601160248201527f4e6f7420636f6d7075746572206475656c0000000000000000000000000000006044820152fd5b156116c057565b606460405162461bcd60e51b815260206004820152600a60248201527f4e6f7420616374697665000000000000000000000000000000000000000000006044820152fd5b1561170b57565b606460405162461bcd60e51b815260206004820152600e60248201527f496e76616c69642077696e6e65720000000000000000000000000000000000006044820152fd5b8181029291811591840414171561138957565b1561176957565b606460405162461bcd60e51b815260206004820152601360248201527f666565207472616e73666572206661696c6564000000000000000000000000006044820152fd5b156117b457565b606460405162461bcd60e51b815260206004820152601560248201527f7072697a65207472616e73666572206661696c656400000000000000000000006044820152fd5b91909160009080825260049360209085825260408085209487860180549160ff8360a01c16948a861015611aef576001809614611834906116b9565b8a868860058c019b8c54938460a01c60ff1661184f9061166e565b60ff60a01b198916600160a11b1788556001600160a01b038096169d8e6001600160a01b0319819716179055600382015460025461188d908261174f565b6127109004908161189d9161139f565b9b8c9301958787541614998a6000146119dc575050856118f494959697985416908888885416918c519687958694859363a9059cbb60e01b85528401602090939291936001600160a01b0360408201951681520152565b03925af19081156119d257906119109186916119bb57506117ad565b8282541684526006885285842080549182018092116119a8578a9b9c50868a9b9692957f9c2ea0f13a3509f96498872388f9a890949af6263d737e43e106cf07a3b4660a9582957f6128b48d5ec91f60dd9382c113490194411b22b09fc18481e66742e9a5428fee9d98600295555416815260068b52200161199388825461137c565b90555b81519087825288820152a351908152a3565b60248560118f634e487b7160e01b835252fd5b6109ac91508a3d8c116102ef576102e18183611342565b87513d87823e3d90fd5b91949850809250611a6d575b5050505054168152600686528184822001908154928301809311611a5a575087989950838798937f6128b48d5ec91f60dd9382c113490194411b22b09fc18481e66742e9a5428fee98937f9c2ea0f13a3509f96498872388f9a890949af6263d737e43e106cf07a3b4660a9355611996565b8060118c634e487b7160e01b6024945252fd5b611aa8938787808b5416928d519788968795869363a9059cbb60e01b85528401602090939291936001600160a01b0360408201951681520152565b0393165af1908115611ae55790611ac5918591611ace5750611762565b8b8838806119e8565b61098591508a3d8c116102ef576102e18183611342565b87513d86823e3d90fd5b60248260218d634e487b7160e01b835252fd5b6001600160a01b038091168060005260086020526040600020805460ff811615611b2d575b50505050565b60ff191660011790556007546801000000000000000081101561132c57806001611b5a9201600755611277565b909283549160031b92831b921b191617905538808080611b2756fea264697066735822122076d8ebbc83421104f1474b66a8965828d42f2fd88a07265fc4bede8085c70a3d64736f6c63430008180033",
  "linkReferences": {},
  "deployedLinkReferences": {}
}